{
  "abi": [
    {
      "inputs": [
        {
          "internalType": "address",
          "name": "_pool",
          "type": "address"
        },
        {
          "internalType": "uint256",
          "name": "_protocolFee",
          "type": "uint256"
        },
        {
          "internalType": "uint256",
          "name": "_maxTotalSupply",
          "type": "uint256"
        }
      ],
      "stateMutability": "nonpayable",
      "type": "constructor"
    },
    {
      "anonymous": false,
      "inputs": [
        {
          "indexed": true,
          "internalType": "address",
          "name": "owner",
          "type": "address"
        },
        {
          "indexed": true,
          "internalType": "address",
          "name": "spender",
          "type": "address"
        },
        {
          "indexed": false,
          "internalType": "uint256",
          "name": "value",
          "type": "uint256"
        }
      ],
      "name": "Approval",
      "type": "event"
    },
    {
      "anonymous": false,
      "inputs": [
        {
          "indexed": false,
          "internalType": "uint256",
          "name": "feesToVault0",
          "type": "uint256"
        },
        {
          "indexed": false,
          "internalType": "uint256",
          "name": "feesToVault1",
          "type": "uint256"
        },
        {
          "indexed": false,
          "internalType": "uint256",
          "name": "feesToProtocol0",
          "type": "uint256"
        },
        {
          "indexed": false,
          "internalType": "uint256",
          "name": "feesToProtocol1",
          "type": "uint256"
        }
      ],
      "name": "CollectFees",
      "type": "event"
    },
    {
      "anonymous": false,
      "inputs": [
        {
          "indexed": true,
          "internalType": "address",
          "name": "sender",
          "type": "address"
        },
        {
          "indexed": true,
          "internalType": "address",
          "name": "to",
          "type": "address"
        },
        {
          "indexed": false,
          "internalType": "uint256",
          "name": "shares",
          "type": "uint256"
        },
        {
          "indexed": false,
          "internalType": "uint256",
          "name": "amount0",
          "type": "uint256"
        },
        {
          "indexed": false,
          "internalType": "uint256",
          "name": "amount1",
          "type": "uint256"
        }
      ],
      "name": "Deposit",
      "type": "event"
    },
    {
      "anonymous": false,
      "inputs": [
        {
          "indexed": false,
          "internalType": "int24",
          "name": "tick",
          "type": "int24"
        },
        {
          "indexed": false,
          "internalType": "uint256",
          "name": "totalAmount0",
          "type": "uint256"
        },
        {
          "indexed": false,
          "internalType": "uint256",
          "name": "totalAmount1",
          "type": "uint256"
        },
        {
          "indexed": false,
          "internalType": "uint256",
          "name": "totalSupply",
          "type": "uint256"
        }
      ],
      "name": "Snapshot",
      "type": "event"
    },
    {
      "anonymous": false,
      "inputs": [
        {
          "indexed": true,
          "internalType": "address",
          "name": "from",
          "type": "address"
        },
        {
          "indexed": true,
          "internalType": "address",
          "name": "to",
          "type": "address"
        },
        {
          "indexed": false,
          "internalType": "uint256",
          "name": "value",
          "type": "uint256"
        }
      ],
      "name": "Transfer",
      "type": "event"
    },
    {
      "anonymous": false,
      "inputs": [
        {
          "indexed": true,
          "internalType": "address",
          "name": "sender",
          "type": "address"
        },
        {
          "indexed": true,
          "internalType": "address",
          "name": "to",
          "type": "address"
        },
        {
          "indexed": false,
          "internalType": "uint256",
          "name": "shares",
          "type": "uint256"
        },
        {
          "indexed": false,
          "internalType": "uint256",
          "name": "amount0",
          "type": "uint256"
        },
        {
          "indexed": false,
          "internalType": "uint256",
          "name": "amount1",
          "type": "uint256"
        }
      ],
      "name": "Withdraw",
      "type": "event"
    },
    {
      "inputs": [],
      "name": "acceptGovernance",
      "outputs": [],
      "stateMutability": "nonpayable",
      "type": "function"
    },
    {
      "inputs": [],
      "name": "accruedProtocolFees0",
      "outputs": [
        {
          "internalType": "uint256",
          "name": "",
          "type": "uint256"
        }
      ],
      "stateMutability": "view",
      "type": "function"
    },
    {
      "inputs": [],
      "name": "accruedProtocolFees1",
      "outputs": [
        {
          "internalType": "uint256",
          "name": "",
          "type": "uint256"
        }
      ],
      "stateMutability": "view",
      "type": "function"
    },
    {
      "inputs": [
        {
          "internalType": "address",
          "name": "owner",
          "type": "address"
        },
        {
          "internalType": "address",
          "name": "spender",
          "type": "address"
        }
      ],
      "name": "allowance",
      "outputs": [
        {
          "internalType": "uint256",
          "name": "",
          "type": "uint256"
        }
      ],
      "stateMutability": "view",
      "type": "function"
    },
    {
      "inputs": [
        {
          "internalType": "address",
          "name": "spender",
          "type": "address"
        },
        {
          "internalType": "uint256",
          "name": "amount",
          "type": "uint256"
        }
      ],
      "name": "approve",
      "outputs": [
        {
          "internalType": "bool",
          "name": "",
          "type": "bool"
        }
      ],
      "stateMutability": "nonpayable",
      "type": "function"
    },
    {
      "inputs": [
        {
          "internalType": "address",
          "name": "account",
          "type": "address"
        }
      ],
      "name": "balanceOf",
      "outputs": [
        {
          "internalType": "uint256",
          "name": "",
          "type": "uint256"
        }
      ],
      "stateMutability": "view",
      "type": "function"
    },
    {
      "inputs": [],
      "name": "baseLower",
      "outputs": [
        {
          "internalType": "int24",
          "name": "",
          "type": "int24"
        }
      ],
      "stateMutability": "view",
      "type": "function"
    },
    {
      "inputs": [],
      "name": "baseUpper",
      "outputs": [
        {
          "internalType": "int24",
          "name": "",
          "type": "int24"
        }
      ],
      "stateMutability": "view",
      "type": "function"
    },
    {
      "inputs": [
        {
          "internalType": "uint256",
          "name": "amount0",
          "type": "uint256"
        },
        {
          "internalType": "uint256",
          "name": "amount1",
          "type": "uint256"
        },
        {
          "internalType": "address",
          "name": "to",
          "type": "address"
        }
      ],
      "name": "collectProtocol",
      "outputs": [],
      "stateMutability": "nonpayable",
      "type": "function"
    },
    {
      "inputs": [],
      "name": "decimals",
      "outputs": [
        {
          "internalType": "uint8",
          "name": "",
          "type": "uint8"
        }
      ],
      "stateMutability": "view",
      "type": "function"
    },
    {
      "inputs": [
        {
          "internalType": "address",
          "name": "spender",
          "type": "address"
        },
        {
          "internalType": "uint256",
          "name": "subtractedValue",
          "type": "uint256"
        }
      ],
      "name": "decreaseAllowance",
      "outputs": [
        {
          "internalType": "bool",
          "name": "",
          "type": "bool"
        }
      ],
      "stateMutability": "nonpayable",
      "type": "function"
    },
    {
      "inputs": [
        {
          "internalType": "uint256",
          "name": "amount0Desired",
          "type": "uint256"
        },
        {
          "internalType": "uint256",
          "name": "amount1Desired",
          "type": "uint256"
        },
        {
          "internalType": "uint256",
          "name": "amount0Min",
          "type": "uint256"
        },
        {
          "internalType": "uint256",
          "name": "amount1Min",
          "type": "uint256"
        },
        {
          "internalType": "address",
          "name": "to",
          "type": "address"
        }
      ],
      "name": "deposit",
      "outputs": [
        {
          "internalType": "uint256",
          "name": "shares",
          "type": "uint256"
        },
        {
          "internalType": "uint256",
          "name": "amount0",
          "type": "uint256"
        },
        {
          "internalType": "uint256",
          "name": "amount1",
          "type": "uint256"
        }
      ],
      "stateMutability": "nonpayable",
      "type": "function"
    },
    {
      "inputs": [
        {
          "internalType": "int24",
          "name": "tickLower",
          "type": "int24"
        },
        {
          "internalType": "int24",
          "name": "tickUpper",
          "type": "int24"
        },
        {
          "internalType": "uint128",
          "name": "liquidity",
          "type": "uint128"
        }
      ],
      "name": "emergencyBurn",
      "outputs": [],
      "stateMutability": "nonpayable",
      "type": "function"
    },
    {
      "inputs": [],
      "name": "getBalance0",
      "outputs": [
        {
          "internalType": "uint256",
          "name": "",
          "type": "uint256"
        }
      ],
      "stateMutability": "view",
      "type": "function"
    },
    {
      "inputs": [],
      "name": "getBalance1",
      "outputs": [
        {
          "internalType": "uint256",
          "name": "",
          "type": "uint256"
        }
      ],
      "stateMutability": "view",
      "type": "function"
    },
    {
      "inputs": [
        {
          "internalType": "int24",
          "name": "tickLower",
          "type": "int24"
        },
        {
          "internalType": "int24",
          "name": "tickUpper",
          "type": "int24"
        }
      ],
      "name": "getPositionAmounts",
      "outputs": [
        {
          "internalType": "uint256",
          "name": "amount0",
          "type": "uint256"
        },
        {
          "internalType": "uint256",
          "name": "amount1",
          "type": "uint256"
        }
      ],
      "stateMutability": "view",
      "type": "function"
    },
    {
      "inputs": [],
      "name": "getTotalAmounts",
      "outputs": [
        {
          "internalType": "uint256",
          "name": "total0",
          "type": "uint256"
        },
        {
          "internalType": "uint256",
          "name": "total1",
          "type": "uint256"
        }
      ],
      "stateMutability": "view",
      "type": "function"
    },
    {
      "inputs": [],
      "name": "governance",
      "outputs": [
        {
          "internalType": "address",
          "name": "",
          "type": "address"
        }
      ],
      "stateMutability": "view",
      "type": "function"
    },
    {
      "inputs": [
        {
          "internalType": "address",
          "name": "spender",
          "type": "address"
        },
        {
          "internalType": "uint256",
          "name": "addedValue",
          "type": "uint256"
        }
      ],
      "name": "increaseAllowance",
      "outputs": [
        {
          "internalType": "bool",
          "name": "",
          "type": "bool"
        }
      ],
      "stateMutability": "nonpayable",
      "type": "function"
    },
    {
      "inputs": [],
      "name": "limitLower",
      "outputs": [
        {
          "internalType": "int24",
          "name": "",
          "type": "int24"
        }
      ],
      "stateMutability": "view",
      "type": "function"
    },
    {
      "inputs": [],
      "name": "limitUpper",
      "outputs": [
        {
          "internalType": "int24",
          "name": "",
          "type": "int24"
        }
      ],
      "stateMutability": "view",
      "type": "function"
    },
    {
      "inputs": [],
      "name": "maxTotalSupply",
      "outputs": [
        {
          "internalType": "uint256",
          "name": "",
          "type": "uint256"
        }
      ],
      "stateMutability": "view",
      "type": "function"
    },
    {
      "inputs": [],
      "name": "name",
      "outputs": [
        {
          "internalType": "string",
          "name": "",
          "type": "string"
        }
      ],
      "stateMutability": "view",
      "type": "function"
    },
    {
      "inputs": [],
      "name": "pendingGovernance",
      "outputs": [
        {
          "internalType": "address",
          "name": "",
          "type": "address"
        }
      ],
      "stateMutability": "view",
      "type": "function"
    },
    {
      "inputs": [],
      "name": "pool",
      "outputs": [
        {
          "internalType": "contract IUniswapV3Pool",
          "name": "",
          "type": "address"
        }
      ],
      "stateMutability": "view",
      "type": "function"
    },
    {
      "inputs": [],
      "name": "protocolFee",
      "outputs": [
        {
          "internalType": "uint256",
          "name": "",
          "type": "uint256"
        }
      ],
      "stateMutability": "view",
      "type": "function"
    },
    {
      "inputs": [
        {
          "internalType": "int256",
          "name": "swapAmount",
          "type": "int256"
        },
        {
          "internalType": "uint160",
          "name": "sqrtPriceLimitX96",
          "type": "uint160"
        },
        {
          "internalType": "int24",
          "name": "_baseLower",
          "type": "int24"
        },
        {
          "internalType": "int24",
          "name": "_baseUpper",
          "type": "int24"
        },
        {
          "internalType": "int24",
          "name": "_bidLower",
          "type": "int24"
        },
        {
          "internalType": "int24",
          "name": "_bidUpper",
          "type": "int24"
        },
        {
          "internalType": "int24",
          "name": "_askLower",
          "type": "int24"
        },
        {
          "internalType": "int24",
          "name": "_askUpper",
          "type": "int24"
        }
      ],
      "name": "rebalance",
      "outputs": [],
      "stateMutability": "nonpayable",
      "type": "function"
    },
    {
      "inputs": [
        {
          "internalType": "address",
          "name": "_governance",
          "type": "address"
        }
      ],
      "name": "setGovernance",
      "outputs": [],
      "stateMutability": "nonpayable",
      "type": "function"
    },
    {
      "inputs": [
        {
          "internalType": "uint256",
          "name": "_maxTotalSupply",
          "type": "uint256"
        }
      ],
      "name": "setMaxTotalSupply",
      "outputs": [],
      "stateMutability": "nonpayable",
      "type": "function"
    },
    {
      "inputs": [
        {
          "internalType": "uint256",
          "name": "_protocolFee",
          "type": "uint256"
        }
      ],
      "name": "setProtocolFee",
      "outputs": [],
      "stateMutability": "nonpayable",
      "type": "function"
    },
    {
      "inputs": [
        {
          "internalType": "address",
          "name": "_strategy",
          "type": "address"
        }
      ],
      "name": "setStrategy",
      "outputs": [],
      "stateMutability": "nonpayable",
      "type": "function"
    },
    {
      "inputs": [],
      "name": "strategy",
      "outputs": [
        {
          "internalType": "address",
          "name": "",
          "type": "address"
        }
      ],
      "stateMutability": "view",
      "type": "function"
    },
    {
      "inputs": [
        {
          "internalType": "contract IERC20",
          "name": "token",
          "type": "address"
        },
        {
          "internalType": "uint256",
          "name": "amount",
          "type": "uint256"
        },
        {
          "internalType": "address",
          "name": "to",
          "type": "address"
        }
      ],
      "name": "sweep",
      "outputs": [],
      "stateMutability": "nonpayable",
      "type": "function"
    },
    {
      "inputs": [],
      "name": "symbol",
      "outputs": [
        {
          "internalType": "string",
          "name": "",
          "type": "string"
        }
      ],
      "stateMutability": "view",
      "type": "function"
    },
    {
      "inputs": [],
      "name": "tickSpacing",
      "outputs": [
        {
          "internalType": "int24",
          "name": "",
          "type": "int24"
        }
      ],
      "stateMutability": "view",
      "type": "function"
    },
    {
      "inputs": [],
      "name": "token0",
      "outputs": [
        {
          "internalType": "contract IERC20",
          "name": "",
          "type": "address"
        }
      ],
      "stateMutability": "view",
      "type": "function"
    },
    {
      "inputs": [],
      "name": "token1",
      "outputs": [
        {
          "internalType": "contract IERC20",
          "name": "",
          "type": "address"
        }
      ],
      "stateMutability": "view",
      "type": "function"
    },
    {
      "inputs": [],
      "name": "totalSupply",
      "outputs": [
        {
          "internalType": "uint256",
          "name": "",
          "type": "uint256"
        }
      ],
      "stateMutability": "view",
      "type": "function"
    },
    {
      "inputs": [
        {
          "internalType": "address",
          "name": "recipient",
          "type": "address"
        },
        {
          "internalType": "uint256",
          "name": "amount",
          "type": "uint256"
        }
      ],
      "name": "transfer",
      "outputs": [
        {
          "internalType": "bool",
          "name": "",
          "type": "bool"
        }
      ],
      "stateMutability": "nonpayable",
      "type": "function"
    },
    {
      "inputs": [
        {
          "internalType": "address",
          "name": "sender",
          "type": "address"
        },
        {
          "internalType": "address",
          "name": "recipient",
          "type": "address"
        },
        {
          "internalType": "uint256",
          "name": "amount",
          "type": "uint256"
        }
      ],
      "name": "transferFrom",
      "outputs": [
        {
          "internalType": "bool",
          "name": "",
          "type": "bool"
        }
      ],
      "stateMutability": "nonpayable",
      "type": "function"
    },
    {
      "inputs": [
        {
          "internalType": "uint256",
          "name": "amount0",
          "type": "uint256"
        },
        {
          "internalType": "uint256",
          "name": "amount1",
          "type": "uint256"
        },
        {
          "internalType": "bytes",
          "name": "data",
          "type": "bytes"
        }
      ],
      "name": "uniswapV3MintCallback",
      "outputs": [],
      "stateMutability": "nonpayable",
      "type": "function"
    },
    {
      "inputs": [
        {
          "internalType": "int256",
          "name": "amount0Delta",
          "type": "int256"
        },
        {
          "internalType": "int256",
          "name": "amount1Delta",
          "type": "int256"
        },
        {
          "internalType": "bytes",
          "name": "data",
          "type": "bytes"
        }
      ],
      "name": "uniswapV3SwapCallback",
      "outputs": [],
      "stateMutability": "nonpayable",
      "type": "function"
    },
    {
      "inputs": [
        {
          "internalType": "uint256",
          "name": "shares",
          "type": "uint256"
        },
        {
          "internalType": "uint256",
          "name": "amount0Min",
          "type": "uint256"
        },
        {
          "internalType": "uint256",
          "name": "amount1Min",
          "type": "uint256"
        },
        {
          "internalType": "address",
          "name": "to",
          "type": "address"
        }
      ],
      "name": "withdraw",
      "outputs": [
        {
          "internalType": "uint256",
          "name": "amount0",
          "type": "uint256"
        },
        {
          "internalType": "uint256",
          "name": "amount1",
          "type": "uint256"
        }
      ],
      "stateMutability": "nonpayable",
      "type": "function"
    }
  ],
  "bytecode": "6101006040523480156200001257600080fd5b506040516200421a3803806200421a833981810160405260608110156200003857600080fd5b50805160208083015160409384015184518086018652600b81526a105b1c1a184815985d5b1d60aa1b8185019081528651808801909752600287526120ab60f11b9487019490945280519495929491939092916200009991600391620002bb565b508051620000af906004906020840190620002bb565b50506005805460ff191660121790555060016006556001600160601b0319606084901b1660805260408051630dfe168160e01b815290516001600160a01b03851691630dfe1681916004808301926020929190829003018186803b1580156200011757600080fd5b505afa1580156200012c573d6000803e3d6000fd5b505050506040513d60208110156200014357600080fd5b505160601b6001600160601b03191660a0526040805163d21220a760e01b815290516001600160a01b0385169163d21220a7916004808301926020929190829003018186803b1580156200019657600080fd5b505afa158015620001ab573d6000803e3d6000fd5b505050506040513d6020811015620001c257600080fd5b505160601b6001600160601b03191660c052604080516334324e9f60e21b815290516001600160a01b0385169163d0c93a7c916004808301926020929190829003018186803b1580156200021557600080fd5b505afa1580156200022a573d6000803e3d6000fd5b505050506040513d60208110156200024157600080fd5b5051600290810b900b60e81b60e05260078290556008819055600a80546001600160a01b03191633179055620f42408210620002b2576040805162461bcd60e51b815260206004820152600b60248201526a70726f746f636f6c46656560a81b604482015290519081900360640190fd5b50505062000367565b828054600181600116156101000203166002900490600052602060002090601f016020900481019282620002f357600085556200033e565b82601f106200030e57805160ff19168380011785556200033e565b828001600101855582156200033e579182015b828111156200033e57825182559160200191906001019062000321565b506200034c92915062000350565b5090565b5b808211156200034c576000815560010162000351565b60805160601c60a05160601c60c05160601c60e05160e81c613de56200043560003980611b8a528061289e5250806109565280610e7a52806110045280611bae5280611e545280611f62528061201a528061217452508061091c5280610a385280610e3f52806110cf5280611e1a5280611f285280611fdd5280612137525080610a6c52806112b852806114f652806119ca5280611a805280611eeb52806120f752806125525280612a945280612b9a5280612c625280612dcb5280612ed75280612f255250613de56000f3fe608060405234801561001057600080fd5b50600436106102695760003560e01c806387e5e08311610151578063c4a7761e116100c3578063dc2c256f11610087578063dc2c256f146107a5578063dd62ed3e146107db578063eae989a214610809578063f39c38a014610811578063fa08274314610819578063fa461e331461082157610269565b8063c4a7761e146106d9578063d0c93a7c146106e1578063d21220a7146106e9578063d331bef7146106f1578063d34879971461072957610269565b8063a8c62e7611610115578063a8c62e76146105fa578063a9059cbb14610602578063a91ef6eb1461062e578063ab033ea914610671578063abbffcb914610697578063b0e21e8a146106d157610269565b806387e5e08314610556578063888a9134146105b657806395d89b41146105be578063a00fa77f146105c6578063a457c2d7146105ce57610269565b8063313ce567116101ea57806341aec538116101ae57806341aec538146104f357806351e87af7146104fb5780635aa6e67514610503578063629d94051461050b57806370a0823114610513578063787dce3d1461053957610269565b8063313ce5671461040a57806333a100ca14610428578063365d0ed71461044e57806339509351146104aa5780633f3e4c11146104d657610269565b806316f0115b1161023157806316f0115b146103a257806318160ddd146103aa578063238efcbc146103c457806323b872dd146103cc5780632ab4d0521461040257610269565b80630430c1301461026e57806306fdde03146102a2578063095ea7b31461031f5780630dfe16811461035f5780630f35bcac14610383575b600080fd5b6102a06004803603606081101561028457600080fd5b50803590602081013590604001356001600160a01b031661089d565b005b6102aa610982565b6040805160208082528351818301528351919283929083019185019080838360005b838110156102e45781810151838201526020016102cc565b50505050905090810190601f1680156103115780820380516001836020036101000a031916815260200191505b509250505060405180910390f35b61034b6004803603604081101561033557600080fd5b506001600160a01b038135169060200135610a18565b604080519115158252519081900360200190f35b610367610a36565b604080516001600160a01b039092168252519081900360200190f35b61038b610a5a565b6040805160029290920b8252519081900360200190f35b610367610a6a565b6103b2610a8e565b60408051918252519081900360200190f35b6102a0610a94565b61034b600480360360608110156103e257600080fd5b506001600160a01b03813581169160208101359091169060400135610afb565b6103b2610b83565b610412610b89565b6040805160ff9092168252519081900360200190f35b6102a06004803603602081101561043e57600080fd5b50356001600160a01b0316610b92565b61048c600480360360a081101561046457600080fd5b50803590602081013590604081013590606081013590608001356001600160a01b0316610c00565b60408051938452602084019290925282820152519081900360600190f35b61034b600480360360408110156104c057600080fd5b506001600160a01b038135169060200135610f5b565b6102a0600480360360208110156104ec57600080fd5b5035610fa9565b6103b2610ffa565b61038b6110a6565b6103676110b6565b6103b26110c5565b6103b26004803603602081101561052957600080fd5b50356001600160a01b031661113a565b6102a06004803603602081101561054f57600080fd5b5035611159565b6102a0600480360361010081101561056d57600080fd5b508035906001600160a01b03602082013516906040810135600290810b916060810135820b916080820135810b9160a0810135820b9160c0820135810b9160e00135900b6111ef565b61038b611736565b6102aa611746565b6103b26117a7565b61034b600480360360408110156105e457600080fd5b506001600160a01b0381351690602001356117ad565b610367611815565b61034b6004803603604081101561061857600080fd5b506001600160a01b038135169060200135611824565b6106586004803603604081101561064457600080fd5b508035600290810b9160200135900b611838565b6040805192835260208301919091528051918290030190f35b6102a06004803603602081101561068757600080fd5b50356001600160a01b03166118d5565b6102a0600480360360608110156106ad57600080fd5b508035600290810b91602081013590910b90604001356001600160801b0316611943565b6103b2611af5565b610658611afb565b61038b611b88565b610367611bac565b6106586004803603608081101561070757600080fd5b50803590602081013590604081013590606001356001600160a01b0316611bd0565b6102a06004803603606081101561073f57600080fd5b81359160208101359181019060608101604082013564010000000081111561076657600080fd5b82018360208201111561077857600080fd5b8035906020019184600183028401116401000000008311171561079a57600080fd5b509092509050611ee0565b6102a0600480360360608110156107bb57600080fd5b506001600160a01b03813581169160208101359160409091013516611f8f565b6103b2600480360360408110156107f157600080fd5b506001600160a01b038135811691602001351661209c565b6103b26120c7565b6103676120cd565b61038b6120dc565b6102a06004803603606081101561083757600080fd5b81359160208101359181019060608101604082013564010000000081111561085e57600080fd5b82018360208201111561087057600080fd5b8035906020019184600183028401116401000000008311171561089257600080fd5b5090925090506120ec565b600a546001600160a01b031633146108e9576040805162461bcd60e51b815260206004820152600a602482015269676f7665726e616e636560b01b604482015290519081900360640190fd5b600c546108f6908461219b565b600c55600d54610906908361219b565b600d558215610943576109436001600160a01b037f00000000000000000000000000000000000000000000000000000000000000001682856121f8565b811561097d5761097d6001600160a01b037f00000000000000000000000000000000000000000000000000000000000000001682846121f8565b505050565b60038054604080516020601f6002600019610100600188161502019095169490940493840181900481028201810190925282815260609390929091830182828015610a0e5780601f106109e357610100808354040283529160200191610a0e565b820191906000526020600020905b8154815290600101906020018083116109f157829003601f168201915b5050505050905090565b6000610a2c610a2561224a565b848461224e565b5060015b92915050565b7f000000000000000000000000000000000000000000000000000000000000000081565b600b54600160e81b900460020b81565b7f000000000000000000000000000000000000000000000000000000000000000081565b60025490565b600b546001600160a01b03163314610ae7576040805162461bcd60e51b815260206004820152601160248201527070656e64696e67476f7665726e616e636560781b604482015290519081900360640190fd5b600a80546001600160a01b03191633179055565b6000610b0884848461233a565b610b7884610b1461224a565b610b7385604051806060016040528060288152602001613ccf602891396001600160a01b038a16600090815260016020526040812090610b5261224a565b6001600160a01b031681526020810191909152604001600020549190612495565b61224e565b5060015b9392505050565b60085481565b60055460ff1690565b600a546001600160a01b03163314610bde576040805162461bcd60e51b815260206004820152600a602482015269676f7665726e616e636560b01b604482015290519081900360640190fd5b600980546001600160a01b0319166001600160a01b0392909216919091179055565b600080600060026006541415610c5d576040805162461bcd60e51b815260206004820152601f60248201527f5265656e7472616e637947756172643a207265656e7472616e742063616c6c00604482015290519081900360640190fd5b600260065587151580610c705750600087115b610cc1576040805162461bcd60e51b815260206004820181905260248201527f616d6f756e743044657369726564206f7220616d6f756e743144657369726564604482015290519081900360640190fd5b6001600160a01b03841615801590610ce257506001600160a01b0384163014155b610d18576040805162461bcd60e51b8152602060048201526002602482015261746f60f01b604482015290519081900360640190fd5b600b54610d3a90600160a01b8104600290810b91600160b81b9004900b61252c565b600b54610d5c90600160d01b8104600290810b91600160e81b9004900b61252c565b610d6688886125cc565b9194509250905082610da8576040805162461bcd60e51b815260206004820152600660248201526573686172657360d01b604482015290519081900360640190fd5b85821015610dea576040805162461bcd60e51b815260206004820152600a60248201526930b6b7bab73a1826b4b760b11b604482015290519081900360640190fd5b84811015610e2c576040805162461bcd60e51b815260206004820152600a60248201526930b6b7bab73a18a6b4b760b11b604482015290519081900360640190fd5b8115610e6757610e676001600160a01b037f0000000000000000000000000000000000000000000000000000000000000000163330856126f8565b8015610ea257610ea26001600160a01b037f0000000000000000000000000000000000000000000000000000000000000000163330846126f8565b610eac8484612752565b604080518481526020810184905280820183905290516001600160a01b0386169133917f4e2ca0515ed1aef1395f66b5303bb5d6f1bf9d61a353fa53f73f8ac9973fa9f69181900360600190a3600854610f04610a8e565b1115610f48576040805162461bcd60e51b815260206004820152600e60248201526d6d6178546f74616c537570706c7960901b604482015290519081900360640190fd5b6001600681905550955095509592505050565b6000610a2c610f6861224a565b84610b738560016000610f7961224a565b6001600160a01b03908116825260208083019390935260409182016000908120918c168152925290205490612842565b600a546001600160a01b03163314610ff5576040805162461bcd60e51b815260206004820152600a602482015269676f7665726e616e636560b01b604482015290519081900360640190fd5b600855565b60006110a1600d547f00000000000000000000000000000000000000000000000000000000000000006001600160a01b03166370a08231306040518263ffffffff1660e01b815260040180826001600160a01b0316815260200191505060206040518083038186803b15801561106f57600080fd5b505afa158015611083573d6000803e3d6000fd5b505050506040513d602081101561109957600080fd5b50519061219b565b905090565b600b54600160d01b900460020b81565b600a546001600160a01b031681565b60006110a1600c547f00000000000000000000000000000000000000000000000000000000000000006001600160a01b03166370a08231306040518263ffffffff1660e01b815260040180826001600160a01b0316815260200191505060206040518083038186803b15801561106f57600080fd5b6001600160a01b0381166000908152602081905260409020545b919050565b600a546001600160a01b031633146111a5576040805162461bcd60e51b815260206004820152600a602482015269676f7665726e616e636560b01b604482015290519081900360640190fd5b620f424081106111ea576040805162461bcd60e51b815260206004820152600b60248201526a70726f746f636f6c46656560a81b604482015290519081900360640190fd5b600755565b60026006541415611247576040805162461bcd60e51b815260206004820152601f60248201527f5265656e7472616e637947756172643a207265656e7472616e742063616c6c00604482015290519081900360640190fd5b60026006556009546001600160a01b03163314611296576040805162461bcd60e51b8152602060048201526008602482015267737472617465677960c01b604482015290519081900360640190fd5b6112a0868661289c565b6112aa848461289c565b6112b4828261289c565b60007f00000000000000000000000000000000000000000000000000000000000000006001600160a01b0316633850c7bd6040518163ffffffff1660e01b815260040160e06040518083038186803b15801561130f57600080fd5b505afa158015611323573d6000803e3d6000fd5b505050506040513d60e081101561133957600080fd5b50602001519050600281810b9085900b1315611387576040805162461bcd60e51b81526020600482015260086024820152673134b22ab83832b960c11b604482015290519081900360640190fd5b8060020b8360020b136113cc576040805162461bcd60e51b815260206004820152600860248201526730b9b5a637bbb2b960c11b604482015290519081900360640190fd5b600b546000906113f190600160a01b8104600290810b91600160b81b9004900b612a7c565b5050600b5492935060009261141e9250600160d01b8104600290810b9250600160e81b909104900b612a7c565b5050600b5492935061144a92600160a01b8104600290810b9350600160b81b909104900b905084612b4b565b5050600b546114729250600160d01b8104600290810b9250600160e81b909104900b83612b4b565b50505050505060006114826110c5565b9050600061148e610ffa565b90507f210f60adf1db7a02e9db9a49ec7c2eb2060c516cbcfd01a0c05288144738ee5d8383836114bc610a8e565b6040805160029590950b85526020850193909352838301919091526060830152519081900360800190a18a156115e2576001600160a01b037f00000000000000000000000000000000000000000000000000000000000000001663128acb083060008e138061152e578e600003611530565b8e5b8e6040518563ffffffff1660e01b815260040180856001600160a01b031681526020018415158152602001838152602001826001600160a01b0316815260200180602001828103825260008152602001955050505050506040805180830381600087803b1580156115a057600080fd5b505af11580156115b4573d6000803e3d6000fd5b505050506040513d60408110156115ca57600080fd5b506115d590506110c5565b91506115df610ffa565b90505b60006115f08a8a8585612dc6565b90506115fd8a8a83612e77565b600b805460028c810b62ffffff908116600160a01b0262ffffff60a01b19928e900b909116600160b81b0262ffffff60b81b1990931692909217161790556116436110c5565b925061164d610ffa565b9150600061165d89898686612dc6565b9050600061166d88888787612dc6565b9050806001600160801b0316826001600160801b031611156116d7576116948a8a84612e77565b600b805460028c810b62ffffff908116600160d01b0262ffffff60d01b19928e900b909116600160e81b026001600160e81b039093169290921716179055611721565b6116e2888883612e77565b600b805460028a810b62ffffff908116600160d01b0262ffffff60d01b19928c900b909116600160e81b026001600160e81b0390931692909217161790555b50506001600655505050505050505050505050565b600b54600160b81b900460020b81565b60048054604080516020601f6002600019610100600188161502019095169490940493840181900481028201810190925282815260609390929091830182828015610a0e5780601f106109e357610100808354040283529160200191610a0e565b600d5481565b6000610a2c6117ba61224a565b84610b7385604051806060016040528060258152602001613d8b60259139600160006117e461224a565b6001600160a01b03908116825260208083019390935260409182016000908120918d16815292529020549190612495565b6009546001600160a01b031681565b6000610a2c61183161224a565b848461233a565b600080600080600061184a8787612a7c565b945094505050925061185d878785612f1e565b600754919650945060009061187690620f42409061219b565b90506118a261189b620f42406118956001600160801b03871685612fd3565b9061302c565b8790612842565b95506118c86118c1620f42406118956001600160801b03861685612fd3565b8690612842565b9450505050509250929050565b600a546001600160a01b03163314611921576040805162461bcd60e51b815260206004820152600a602482015269676f7665726e616e636560b01b604482015290519081900360640190fd5b600b80546001600160a01b0319166001600160a01b0392909216919091179055565b600a546001600160a01b0316331461198f576040805162461bcd60e51b815260206004820152600a602482015269676f7665726e616e636560b01b604482015290519081900360640190fd5b6040805163a34123a760e01b8152600285810b600483015284900b60248201526001600160801b038316604482015281516001600160a01b037f0000000000000000000000000000000000000000000000000000000000000000169263a34123a792606480820193918290030181600087803b158015611a0e57600080fd5b505af1158015611a22573d6000803e3d6000fd5b505050506040513d6040811015611a3857600080fd5b5050604080516309e3d67b60e31b8152306004820152600285810b602483015284900b60448201526001600160801b0360648201819052608482015281516001600160a01b037f00000000000000000000000000000000000000000000000000000000000000001692634f1eb3d89260a480820193918290030181600087803b158015611ac457600080fd5b505af1158015611ad8573d6000803e3d6000fd5b505050506040513d6040811015611aee57600080fd5b5050505050565b60075481565b600b54600090819081908190611b2690600160a01b8104600290810b91600160b81b9004900b611838565b600b5491935091506000908190611b5290600160d01b8104600290810b91600160e81b9004900b611838565b91509150611b6c82611b6686611b666110c5565b90612842565b9550611b7e81611b6685611b66610ffa565b9450505050509091565b7f000000000000000000000000000000000000000000000000000000000000000081565b7f000000000000000000000000000000000000000000000000000000000000000081565b60008060026006541415611c2b576040805162461bcd60e51b815260206004820152601f60248201527f5265656e7472616e637947756172643a207265656e7472616e742063616c6c00604482015290519081900360640190fd5b600260065585611c6b576040805162461bcd60e51b815260206004820152600660248201526573686172657360d01b604482015290519081900360640190fd5b6001600160a01b03831615801590611c8c57506001600160a01b0383163014155b611cc2576040805162461bcd60e51b8152602060048201526002602482015261746f60f01b604482015290519081900360640190fd5b6000611ccc610a8e565b9050611cd83388613093565b6000611cf0826118958a611cea6110c5565b90612fd3565b90506000611d04836118958b611cea610ffa565b600b549091506000908190611d3090600160a01b8104600290810b91600160b81b9004900b8d8861318f565b600b5491935091506000908190611d5e90600160d01b8104600290810b91600160e81b9004900b8f8a61318f565b9092509050611d7182611b668887612842565b9850611d8181611b668786612842565b97508b891015611dc5576040805162461bcd60e51b815260206004820152600a60248201526930b6b7bab73a1826b4b760b11b604482015290519081900360640190fd5b8a881015611e07576040805162461bcd60e51b815260206004820152600a60248201526930b6b7bab73a18a6b4b760b11b604482015290519081900360640190fd5b8815611e4157611e416001600160a01b037f0000000000000000000000000000000000000000000000000000000000000000168b8b6121f8565b8715611e7b57611e7b6001600160a01b037f0000000000000000000000000000000000000000000000000000000000000000168b8a6121f8565b604080518e8152602081018b90528082018a905290516001600160a01b038c169133917febff2602b3f468259e1e99f613fed6691f3a6526effe6ef3e768ba7ae7a36c4f9181900360600190a350505050505050600160068190555094509492505050565b336001600160a01b037f00000000000000000000000000000000000000000000000000000000000000001614611f1557600080fd5b8315611f4f57611f4f6001600160a01b037f00000000000000000000000000000000000000000000000000000000000000001633866121f8565b8215611f8957611f896001600160a01b037f00000000000000000000000000000000000000000000000000000000000000001633856121f8565b50505050565b600a546001600160a01b03163314611fdb576040805162461bcd60e51b815260206004820152600a602482015269676f7665726e616e636560b01b604482015290519081900360640190fd5b7f00000000000000000000000000000000000000000000000000000000000000006001600160a01b0316836001600160a01b03161415801561204f57507f00000000000000000000000000000000000000000000000000000000000000006001600160a01b0316836001600160a01b031614155b612088576040805162461bcd60e51b81526020600482015260056024820152643a37b5b2b760d91b604482015290519081900360640190fd5b61097d6001600160a01b03841682846121f8565b6001600160a01b03918216600090815260016020908152604080832093909416825291909152205490565b600c5481565b600b546001600160a01b031681565b600b54600160a01b900460020b81565b336001600160a01b037f0000000000000000000000000000000000000000000000000000000000000000161461212157600080fd5b600084131561215e5761215e6001600160a01b037f00000000000000000000000000000000000000000000000000000000000000001633866121f8565b6000831315611f8957611f896001600160a01b037f00000000000000000000000000000000000000000000000000000000000000001633856121f8565b6000828211156121f2576040805162461bcd60e51b815260206004820152601e60248201527f536166654d6174683a207375627472616374696f6e206f766572666c6f770000604482015290519081900360640190fd5b50900390565b604080516001600160a01b038416602482015260448082018490528251808303909101815260649091019091526020810180516001600160e01b031663a9059cbb60e01b17905261097d908490613235565b3390565b6001600160a01b0383166122935760405162461bcd60e51b8152600401808060200182810382526024815260200180613d3d6024913960400191505060405180910390fd5b6001600160a01b0382166122d85760405162461bcd60e51b8152600401808060200182810382526022815260200180613c406022913960400191505060405180910390fd5b6001600160a01b03808416600081815260016020908152604080832094871680845294825291829020859055815185815291517f8c5be1e5ebec7d5bd14f71427d1e84f3dd0314c0f7b2291e5b200ac8c7c3b9259281900390910190a3505050565b6001600160a01b03831661237f5760405162461bcd60e51b8152600401808060200182810382526025815260200180613d186025913960400191505060405180910390fd5b6001600160a01b0382166123c45760405162461bcd60e51b8152600401808060200182810382526023815260200180613bfb6023913960400191505060405180910390fd5b6123cf83838361097d565b61240c81604051806060016040528060268152602001613c62602691396001600160a01b0386166000908152602081905260409020549190612495565b6001600160a01b03808516600090815260208190526040808220939093559084168152205461243b9082612842565b6001600160a01b038084166000818152602081815260409182902094909455805185815290519193928716927fddf252ad1be2c89b69c2b068fc378daa952ba7f163c4a11628f55a4df523b3ef92918290030190a3505050565b600081848411156125245760405162461bcd60e51b81526004018080602001828103825283818151815260200191508051906020019080838360005b838110156124e95781810151838201526020016124d1565b50505050905090810190601f1680156125165780820380516001836020036101000a031916815260200191505b509250505060405180910390fd5b505050900390565b60006125388383612a7c565b5050505090506000816001600160801b0316111561097d577f00000000000000000000000000000000000000000000000000000000000000006001600160a01b031663a34123a7848460006040518463ffffffff1660e01b8152600401808460020b81526020018360020b815260200182815260200193505050506040805180830381600087803b158015611ac457600080fd5b6000806000806125da610a8e565b90506000806125e7611afb565b9150915082600014806125fa5750600082115b806126055750600081115b61260b57fe5b826126275787945086935061262085856132e6565b95506126ee565b8161263d57869350612620816118958686612fd3565b8061265357879450612620826118958786612fd3565b60006126716126628a84612fd3565b61266c8a86612fd3565b6132fd565b9050600081116126b0576040805162461bcd60e51b815260206004820152600560248201526463726f737360d81b604482015290519081900360640190fd5b6126c36001611b6684611895858461219b565b95506126d86001611b6685611895858461219b565b94506126ea8261189585818589612fd3565b9650505b5050509250925092565b604080516001600160a01b0380861660248301528416604482015260648082018490528251808303909101815260849091019091526020810180516001600160e01b03166323b872dd60e01b179052611f89908590613235565b6001600160a01b0382166127ad576040805162461bcd60e51b815260206004820152601f60248201527f45524332303a206d696e7420746f20746865207a65726f206164647265737300604482015290519081900360640190fd5b6127b96000838361097d565b6002546127c69082612842565b6002556001600160a01b0382166000908152602081905260409020546127ec9082612842565b6001600160a01b0383166000818152602081815260408083209490945583518581529351929391927fddf252ad1be2c89b69c2b068fc378daa952ba7f163c4a11628f55a4df523b3ef9281900390910190a35050565b600082820183811015610b7c576040805162461bcd60e51b815260206004820152601b60248201527f536166654d6174683a206164646974696f6e206f766572666c6f770000000000604482015290519081900360640190fd5b7f0000000000000000000000000000000000000000000000000000000000000000600282810b9084900b12612910576040805162461bcd60e51b81526020600482015260156024820152743a34b1b5a637bbb2b9101e103a34b1b5aab83832b960591b604482015290519081900360640190fd5b620d89e719600284900b1215612961576040805162461bcd60e51b81526020600482015260116024820152707469636b4c6f77657220746f6f206c6f7760781b604482015290519081900360640190fd5b620d89e8600283900b13156129b2576040805162461bcd60e51b81526020600482015260126024820152710e8d2c6d6aae0e0cae440e8dede40d0d2ced60731b604482015290519081900360640190fd5b8060020b8360020b816129c157fe5b0760020b15612a17576040805162461bcd60e51b815260206004820152601760248201527f7469636b4c6f7765722025207469636b53706163696e67000000000000000000604482015290519081900360640190fd5b8060020b8260020b81612a2657fe5b0760020b1561097d576040805162461bcd60e51b815260206004820152601760248201527f7469636b55707065722025207469636b53706163696e67000000000000000000604482015290519081900360640190fd5b600080600080600080612a9030898961330c565b90507f00000000000000000000000000000000000000000000000000000000000000006001600160a01b031663514ea4bf826040518263ffffffff1660e01b81526004018082815260200191505060a06040518083038186803b158015612af657600080fd5b505afa158015612b0a573d6000803e3d6000fd5b505050506040513d60a0811015612b2057600080fd5b508051602082015160408301516060840151608090940151929c919b50995091975095509350505050565b60008080806001600160801b03851615612c17576040805163a34123a760e01b8152600289810b600483015288900b60248201526001600160801b038716604482015281516001600160a01b037f0000000000000000000000000000000000000000000000000000000000000000169263a34123a792606480820193918290030181600087803b158015612bde57600080fd5b505af1158015612bf2573d6000803e3d6000fd5b505050506040513d6040811015612c0857600080fd5b50805160209091015190945092505b604080516309e3d67b60e31b8152306004820152600289810b602483015288900b60448201526001600160801b03606482018190526084820152815160009283926001600160a01b037f00000000000000000000000000000000000000000000000000000000000000001692634f1eb3d89260a48084019391929182900301818787803b158015612ca757600080fd5b505af1158015612cbb573d6000803e3d6000fd5b505050506040513d6040811015612cd157600080fd5b5080516020909101516001600160801b039182169350169050612cf4828761219b565b9350612d00818661219b565b60075490935060009081908015612d7157612d22620f42406118958984612fd3565b9250612d35620f42406118958884612fd3565b9150612d41878461219b565b9650612d4d868361219b565b600c54909650612d5d9084612842565b600c55600d54612d6d9083612842565b600d555b60408051888152602081018890528082018590526060810184905290517f1ac56d7e866e3f5ea9aa92aa11758ead39a0a5f013f3fefb0f47cb9d008edd279181900360800190a1505050505093509350935093565b6000807f00000000000000000000000000000000000000000000000000000000000000006001600160a01b0316633850c7bd6040518163ffffffff1660e01b815260040160e06040518083038186803b158015612e2257600080fd5b505afa158015612e36573d6000803e3d6000fd5b505050506040513d60e0811015612e4c57600080fd5b50519050612e6d81612e5d88613362565b612e6688613362565b8787613694565b9695505050505050565b6001600160801b0381161561097d5760408051633c8a7d8d60e01b8152306004820152600285810b602483015284900b60448201526001600160801b038316606482015260a06084820152600060a4820181905282516001600160a01b037f00000000000000000000000000000000000000000000000000000000000000001693633c8a7d8d9360c480820194929392918390030190829087803b158015611ac457600080fd5b60008060007f00000000000000000000000000000000000000000000000000000000000000006001600160a01b0316633850c7bd6040518163ffffffff1660e01b815260040160e06040518083038186803b158015612f7c57600080fd5b505afa158015612f90573d6000803e3d6000fd5b505050506040513d60e0811015612fa657600080fd5b50519050612fc681612fb788613362565b612fc088613362565b87613758565b9250925050935093915050565b600082612fe257506000610a30565b82820282848281612fef57fe5b0414610b7c5760405162461bcd60e51b8152600401808060200182810382526021815260200180613cae6021913960400191505060405180910390fd5b6000808211613082576040805162461bcd60e51b815260206004820152601a60248201527f536166654d6174683a206469766973696f6e206279207a65726f000000000000604482015290519081900360640190fd5b81838161308b57fe5b049392505050565b6001600160a01b0382166130d85760405162461bcd60e51b8152600401808060200182810382526021815260200180613cf76021913960400191505060405180910390fd5b6130e48260008361097d565b61312181604051806060016040528060228152602001613c1e602291396001600160a01b0385166000908152602081905260409020549190612495565b6001600160a01b038316600090815260208190526040902055600254613147908261219b565b6002556040805182815290516000916001600160a01b038516917fddf252ad1be2c89b69c2b068fc378daa952ba7f163c4a11628f55a4df523b3ef9181900360200190a35050565b600080600061319e8787612a7c565b50505050905060006131c68561189588856001600160801b0316612fd390919063ffffffff16565b9050801561322a576000806000806131e78c8c6131e2886137f4565b612b4b565b929650909450925090506132096132028a611895858e612fd3565b8590612842565b975061322361321c8a611895848e612fd3565b8490612842565b9650505050505b505094509492505050565b600061328a826040518060400160405280602081526020017f5361666545524332303a206c6f772d6c6576656c2063616c6c206661696c6564815250856001600160a01b031661380b9092919063ffffffff16565b80519091501561097d578080602001905160208110156132a957600080fd5b505161097d5760405162461bcd60e51b815260040180806020018281038252602a815260200180613d61602a913960400191505060405180910390fd5b6000818310156132f65781610b7c565b5090919050565b60008183106132f65781610b7c565b6040805160609490941b6bffffffffffffffffffffffff1916602080860191909152600293840b60e890811b60348701529290930b90911b60378401528051808403601a018152603a9093019052815191012090565b60008060008360020b12613379578260020b613381565b8260020b6000035b9050620d89e88111156133bf576040805162461bcd60e51b81526020600482015260016024820152601560fa1b604482015290519081900360640190fd5b6000600182166133d357600160801b6133e5565b6ffffcb933bd6fad37aa2d162d1a5940015b70ffffffffffffffffffffffffffffffffff1690506002821615613419576ffff97272373d413259a46990580e213a0260801c5b6004821615613438576ffff2e50f5f656932ef12357cf3c7fdcc0260801c5b6008821615613457576fffe5caca7e10e4e61c3624eaa0941cd00260801c5b6010821615613476576fffcb9843d60f6159c9db58835c9266440260801c5b6020821615613495576fff973b41fa98c081472e6896dfb254c00260801c5b60408216156134b4576fff2ea16466c96a3843ec78b326b528610260801c5b60808216156134d3576ffe5dee046a99a2a811c461f1969c30530260801c5b6101008216156134f3576ffcbe86c7900a88aedcffc83b479aa3a40260801c5b610200821615613513576ff987a7253ac413176f2b074cf7815e540260801c5b610400821615613533576ff3392b0822b70005940c7a398e4b70f30260801c5b610800821615613553576fe7159475a2c29b7443b29c7fa6e889d90260801c5b611000821615613573576fd097f3bdfd2022b8845ad8f792aa58250260801c5b612000821615613593576fa9f746462d870fdf8a65dc1f90e061e50260801c5b6140008216156135b3576f70d869a156d2a1b890bb3df62baf32f70260801c5b6180008216156135d3576f31be135f97d08fd981231505542fcfa60260801c5b620100008216156135f4576f09aa508b5b7a84e1c677de54f3e99bc90260801c5b62020000821615613614576e5d6af8dedb81196699c329225ee6040260801c5b62040000821615613633576d2216e584f5fa1ea926041bedfe980260801c5b62080000821615613650576b048a170391f7dc42444e8fa20260801c5b60008460020b131561366b57806000198161366757fe5b0490505b64010000000081061561367f576001613682565b60005b60ff16602082901c0192505050919050565b6000836001600160a01b0316856001600160a01b031611156136b4579293925b846001600160a01b0316866001600160a01b0316116136df576136d8858585613822565b905061374f565b836001600160a01b0316866001600160a01b03161015613741576000613706878686613822565b90506000613715878986613885565b9050806001600160801b0316826001600160801b0316106137365780613738565b815b9250505061374f565b61374c858584613885565b90505b95945050505050565b600080836001600160a01b0316856001600160a01b03161115613779579293925b846001600160a01b0316866001600160a01b0316116137a45761379d8585856138c2565b91506137eb565b836001600160a01b0316866001600160a01b031610156137dd576137c98685856138c2565b91506137d685878561392b565b90506137eb565b6137e885858561392b565b90505b94509492505050565b60006001600160801b0382111561380757fe5b5090565b606061381a848460008561396e565b949350505050565b6000826001600160a01b0316846001600160a01b03161115613842579192915b6000613865856001600160a01b0316856001600160a01b0316600160601b613ac9565b905061374f61388084838888036001600160a01b0316613ac9565b613b78565b6000826001600160a01b0316846001600160a01b031611156138a5579192915b61381a61388083600160601b8787036001600160a01b0316613ac9565b6000826001600160a01b0316846001600160a01b031611156138e2579192915b836001600160a01b031661391b606060ff16846001600160801b0316901b8686036001600160a01b0316866001600160a01b0316613ac9565b8161392257fe5b04949350505050565b6000826001600160a01b0316846001600160a01b0316111561394b579192915b61381a826001600160801b03168585036001600160a01b0316600160601b613ac9565b6060824710156139af5760405162461bcd60e51b8152600401808060200182810382526026815260200180613c886026913960400191505060405180910390fd5b6139b885613b8e565b613a09576040805162461bcd60e51b815260206004820152601d60248201527f416464726573733a2063616c6c20746f206e6f6e2d636f6e7472616374000000604482015290519081900360640190fd5b600080866001600160a01b031685876040518082805190602001908083835b60208310613a475780518252601f199092019160209182019101613a28565b6001836020036101000a03801982511681845116808217855250505050505090500191505060006040518083038185875af1925050503d8060008114613aa9576040519150601f19603f3d011682016040523d82523d6000602084013e613aae565b606091505b5091509150613abe828286613b94565b979650505050505050565b6000808060001985870986860292508281109083900303905080613aff5760008411613af457600080fd5b508290049050610b7c565b808411613b0b57600080fd5b6000848688096000868103871696879004966002600389028118808a02820302808a02820302808a02820302808a02820302808a02820302808a02909103029181900381900460010186841190950394909402919094039290920491909117919091029150509392505050565b806001600160801b038116811461115457600080fd5b3b151590565b60608315613ba3575081610b7c565b825115613bb35782518084602001fd5b60405162461bcd60e51b81526020600482018181528451602484015284518593919283926044019190850190808383600083156124e95781810151838201526020016124d156fe45524332303a207472616e7366657220746f20746865207a65726f206164647265737345524332303a206275726e20616d6f756e7420657863656564732062616c616e636545524332303a20617070726f766520746f20746865207a65726f206164647265737345524332303a207472616e7366657220616d6f756e7420657863656564732062616c616e6365416464726573733a20696e73756666696369656e742062616c616e636520666f722063616c6c536166654d6174683a206d756c7469706c69636174696f6e206f766572666c6f7745524332303a207472616e7366657220616d6f756e74206578636565647320616c6c6f77616e636545524332303a206275726e2066726f6d20746865207a65726f206164647265737345524332303a207472616e736665722066726f6d20746865207a65726f206164647265737345524332303a20617070726f76652066726f6d20746865207a65726f20616464726573735361666545524332303a204552433230206f7065726174696f6e20646964206e6f74207375636365656445524332303a2064656372656173656420616c6c6f77616e63652062656c6f77207a65726fa26469706673582212209fca69d377b75b18b467af91d7c2c7b29611c5de0aeb017dc4d12a44fb9547e564736f6c63430007060033",
  "bytecodeSha1": "59562fac8dbef5ddedd5f0eb43deeb5ef13e557b",
  "compiler": {
    "evm_version": "istanbul",
    "optimizer": {
      "enabled": true,
      "runs": 200
    },
    "version": "0.7.6+commit.7338295f"
  },
  "contractName": "AlphaVault",
  "language": "Solidity",
  "natspec": {
    "kind": "dev",
    "methods": {
      "acceptGovernance()": {
        "notice": "`setGovernance()` should be called by the existing governance address prior to calling this function."
      },
      "allowance(address,address)": {
        "details": "See {IERC20-allowance}."
      },
      "approve(address,uint256)": {
        "details": "See {IERC20-approve}. Requirements: - `spender` cannot be the zero address."
      },
      "balanceOf(address)": {
        "details": "See {IERC20-balanceOf}."
      },
      "collectProtocol(uint256,uint256,address)": {
        "notice": "Used to collect accumulated protocol fees."
      },
      "constructor": {
        "details": "After deploying, strategy needs to be set via `setStrategy()`",
        "params": {
          "_maxTotalSupply": "Cap on total supply",
          "_pool": "Underlying Uniswap V3 pool",
          "_protocolFee": "Protocol fee expressed as multiple of 1e-6"
        }
      },
      "decimals()": {
        "details": "Returns the number of decimals used to get its user representation. For example, if `decimals` equals `2`, a balance of `505` tokens should be displayed to a user as `5,05` (`505 / 10 ** 2`). Tokens usually opt for a value of 18, imitating the relationship between Ether and Wei. This is the value {ERC20} uses, unless {_setupDecimals} is called. NOTE: This information is only used for _display_ purposes: it in no way affects any of the arithmetic of the contract, including {IERC20-balanceOf} and {IERC20-transfer}."
      },
      "decreaseAllowance(address,uint256)": {
        "details": "Atomically decreases the allowance granted to `spender` by the caller. This is an alternative to {approve} that can be used as a mitigation for problems described in {IERC20-approve}. Emits an {Approval} event indicating the updated allowance. Requirements: - `spender` cannot be the zero address. - `spender` must have allowance for the caller of at least `subtractedValue`."
      },
      "deposit(uint256,uint256,uint256,uint256,address)": {
        "details": "These tokens sit in the vault and are not used for liquidity on Uniswap until the next rebalance. Also note it's not necessary to check if user manipulated price to deposit cheaper, as the value of range orders can only by manipulated higher.",
        "notice": "Deposits tokens in proportion to the vault's current holdings.",
        "params": {
          "amount0Desired": "Max amount of token0 to deposit",
          "amount0Min": "Revert if resulting `amount0` is less than this",
          "amount1Desired": "Max amount of token1 to deposit",
          "amount1Min": "Revert if resulting `amount1` is less than this",
          "to": "Recipient of shares"
        },
        "returns": {
          "amount0": "Amount of token0 deposited",
          "amount1": "Amount of token1 deposited",
          "shares": "Number of shares minted"
        }
      },
      "emergencyBurn(int24,int24,uint128)": {
        "notice": "Removes liquidity in case of emergency."
      },
      "getBalance0()": {
        "notice": "Balance of token0 in vault not used in any position."
      },
      "getBalance1()": {
        "notice": "Balance of token1 in vault not used in any position."
      },
      "getPositionAmounts(int24,int24)": {
        "notice": "Amounts of token0 and token1 held in vault's position. Includes owed fees but excludes the proportion of fees that will be paid to the protocol. Doesn't include fees accrued since last poke."
      },
      "getTotalAmounts()": {
        "notice": "Calculates the vault's total holdings of token0 and token1 - in other words, how much of each token the vault would hold if it withdrew all its liquidity from Uniswap."
      },
      "increaseAllowance(address,uint256)": {
        "details": "Atomically increases the allowance granted to `spender` by the caller. This is an alternative to {approve} that can be used as a mitigation for problems described in {IERC20-approve}. Emits an {Approval} event indicating the updated allowance. Requirements: - `spender` cannot be the zero address."
      },
      "name()": {
        "details": "Returns the name of the token."
      },
      "rebalance(int256,uint160,int24,int24,int24,int24,int24,int24)": {
        "details": "Two orders are placed - a base order and a limit order. The base order is placed first with as much liquidity as possible. This order should use up all of one token, leaving only the other one. This excess amount is then placed as a single-sided bid or ask order.",
        "notice": "Updates vault's positions. Can only be called by the strategy."
      },
      "setGovernance(address)": {
        "notice": "Governance address is not updated until the new governance address has called `acceptGovernance()` to accept this responsibility."
      },
      "setMaxTotalSupply(uint256)": {
        "notice": "Used to change deposit cap for a guarded launch or to ensure vault doesn't grow too large relative to the pool. Cap is on total supply rather than amounts of token0 and token1 as those amounts fluctuate naturally over time."
      },
      "setProtocolFee(uint256)": {
        "notice": "Used to change the protocol fee charged on pool fees earned from Uniswap, expressed as multiple of 1e-6."
      },
      "setStrategy(address)": {
        "notice": "Used to set the strategy contract that determines the position ranges and calls rebalance(). Must be called after this vault is deployed."
      },
      "sweep(address,uint256,address)": {
        "notice": "Removes tokens accidentally sent to this vault."
      },
      "symbol()": {
        "details": "Returns the symbol of the token, usually a shorter version of the name."
      },
      "totalSupply()": {
        "details": "See {IERC20-totalSupply}."
      },
      "transfer(address,uint256)": {
        "details": "See {IERC20-transfer}. Requirements: - `recipient` cannot be the zero address. - the caller must have a balance of at least `amount`."
      },
      "transferFrom(address,address,uint256)": {
        "details": "See {IERC20-transferFrom}. Emits an {Approval} event indicating the updated allowance. This is not required by the EIP. See the note at the beginning of {ERC20}. Requirements: - `sender` and `recipient` cannot be the zero address. - `sender` must have a balance of at least `amount`. - the caller must have allowance for ``sender``'s tokens of at least `amount`."
      },
      "uniswapV3MintCallback(uint256,uint256,bytes)": {
        "details": "Callback for Uniswap V3 pool."
      },
      "uniswapV3SwapCallback(int256,int256,bytes)": {
        "details": "Callback for Uniswap V3 pool."
      },
      "withdraw(uint256,uint256,uint256,address)": {
        "notice": "Withdraws tokens in proportion to the vault's holdings.",
        "params": {
          "amount0Min": "Revert if resulting `amount0` is smaller than this",
          "amount1Min": "Revert if resulting `amount1` is smaller than this",
          "shares": "Shares burned by sender",
          "to": "Recipient of tokens"
        },
        "returns": {
          "amount0": "Amount of token0 sent to recipient",
          "amount1": "Amount of token1 sent to recipient"
        }
      }
    },
    "notice": "A vault that provides liquidity on Uniswap V3.",
    "title": "Alpha Vault",
    "version": 1
  },
  "opcodes": "PUSH1 0x80 PUSH1 0x40 MSTORE CALLVALUE DUP1 ISZERO PUSH2 0x10 JUMPI PUSH1 0x0 DUP1 REVERT JUMPDEST POP PUSH1 0x4 CALLDATASIZE LT PUSH2 0x269 JUMPI PUSH1 0x0 CALLDATALOAD PUSH1 0xE0 SHR DUP1 PUSH4 0x87E5E083 GT PUSH2 0x151 JUMPI DUP1 PUSH4 0xC4A7761E GT PUSH2 0xC3 JUMPI DUP1 PUSH4 0xDC2C256F GT PUSH2 0x87 JUMPI DUP1 PUSH4 0xDC2C256F EQ PUSH2 0x7A5 JUMPI DUP1 PUSH4 0xDD62ED3E EQ PUSH2 0x7DB JUMPI DUP1 PUSH4 0xEAE989A2 EQ PUSH2 0x809 JUMPI DUP1 PUSH4 0xF39C38A0 EQ PUSH2 0x811 JUMPI DUP1 PUSH4 0xFA082743 EQ PUSH2 0x819 JUMPI DUP1 PUSH4 0xFA461E33 EQ PUSH2 0x821 JUMPI PUSH2 0x269 JUMP JUMPDEST DUP1 PUSH4 0xC4A7761E EQ PUSH2 0x6D9 JUMPI DUP1 PUSH4 0xD0C93A7C EQ PUSH2 0x6E1 JUMPI DUP1 PUSH4 0xD21220A7 EQ PUSH2 0x6E9 JUMPI DUP1 PUSH4 0xD331BEF7 EQ PUSH2 0x6F1 JUMPI DUP1 PUSH4 0xD3487997 EQ PUSH2 0x729 JUMPI PUSH2 0x269 JUMP JUMPDEST DUP1 PUSH4 0xA8C62E76 GT PUSH2 0x115 JUMPI DUP1 PUSH4 0xA8C62E76 EQ PUSH2 0x5FA JUMPI DUP1 PUSH4 0xA9059CBB EQ PUSH2 0x602 JUMPI DUP1 PUSH4 0xA91EF6EB EQ PUSH2 0x62E JUMPI DUP1 PUSH4 0xAB033EA9 EQ PUSH2 0x671 JUMPI DUP1 PUSH4 0xABBFFCB9 EQ PUSH2 0x697 JUMPI DUP1 PUSH4 0xB0E21E8A EQ PUSH2 0x6D1 JUMPI PUSH2 0x269 JUMP JUMPDEST DUP1 PUSH4 0x87E5E083 EQ PUSH2 0x556 JUMPI DUP1 PUSH4 0x888A9134 EQ PUSH2 0x5B6 JUMPI DUP1 PUSH4 0x95D89B41 EQ PUSH2 0x5BE JUMPI DUP1 PUSH4 0xA00FA77F EQ PUSH2 0x5C6 JUMPI DUP1 PUSH4 0xA457C2D7 EQ PUSH2 0x5CE JUMPI PUSH2 0x269 JUMP JUMPDEST DUP1 PUSH4 0x313CE567 GT PUSH2 0x1EA JUMPI DUP1 PUSH4 0x41AEC538 GT PUSH2 0x1AE JUMPI DUP1 PUSH4 0x41AEC538 EQ PUSH2 0x4F3 JUMPI DUP1 PUSH4 0x51E87AF7 EQ PUSH2 0x4FB JUMPI DUP1 PUSH4 0x5AA6E675 EQ PUSH2 0x503 JUMPI DUP1 PUSH4 0x629D9405 EQ PUSH2 0x50B JUMPI DUP1 PUSH4 0x70A08231 EQ PUSH2 0x513 JUMPI DUP1 PUSH4 0x787DCE3D EQ PUSH2 0x539 JUMPI PUSH2 0x269 JUMP JUMPDEST DUP1 PUSH4 0x313CE567 EQ PUSH2 0x40A JUMPI DUP1 PUSH4 0x33A100CA EQ PUSH2 0x428 JUMPI DUP1 PUSH4 0x365D0ED7 EQ PUSH2 0x44E JUMPI DUP1 PUSH4 0x39509351 EQ PUSH2 0x4AA JUMPI DUP1 PUSH4 0x3F3E4C11 EQ PUSH2 0x4D6 JUMPI PUSH2 0x269 JUMP JUMPDEST DUP1 PUSH4 0x16F0115B GT PUSH2 0x231 JUMPI DUP1 PUSH4 0x16F0115B EQ PUSH2 0x3A2 JUMPI DUP1 PUSH4 0x18160DDD EQ PUSH2 0x3AA JUMPI DUP1 PUSH4 0x238EFCBC EQ PUSH2 0x3C4 JUMPI DUP1 PUSH4 0x23B872DD EQ PUSH2 0x3CC JUMPI DUP1 PUSH4 0x2AB4D052 EQ PUSH2 0x402 JUMPI PUSH2 0x269 JUMP JUMPDEST DUP1 PUSH4 0x430C130 EQ PUSH2 0x26E JUMPI DUP1 PUSH4 0x6FDDE03 EQ PUSH2 0x2A2 JUMPI DUP1 PUSH4 0x95EA7B3 EQ PUSH2 0x31F JUMPI DUP1 PUSH4 0xDFE1681 EQ PUSH2 0x35F JUMPI DUP1 PUSH4 0xF35BCAC EQ PUSH2 0x383 JUMPI JUMPDEST PUSH1 0x0 DUP1 REVERT JUMPDEST PUSH2 0x2A0 PUSH1 0x4 DUP1 CALLDATASIZE SUB PUSH1 0x60 DUP2 LT ISZERO PUSH2 0x284 JUMPI PUSH1 0x0 DUP1 REVERT JUMPDEST POP DUP1 CALLDATALOAD SWAP1 PUSH1 0x20 DUP2 ADD CALLDATALOAD SWAP1 PUSH1 0x40 ADD CALLDATALOAD PUSH1 0x1 PUSH1 0x1 PUSH1 0xA0 SHL SUB AND PUSH2 0x89D JUMP JUMPDEST STOP JUMPDEST PUSH2 0x2AA PUSH2 0x982 JUMP JUMPDEST PUSH1 0x40 DUP1 MLOAD PUSH1 0x20 DUP1 DUP3 MSTORE DUP4 MLOAD DUP2 DUP4 ADD MSTORE DUP4 MLOAD SWAP2 SWAP3 DUP4 SWAP3 SWAP1 DUP4 ADD SWAP2 DUP6 ADD SWAP1 DUP1 DUP4 DUP4 PUSH1 0x0 JUMPDEST DUP4 DUP2 LT ISZERO PUSH2 0x2E4 JUMPI DUP2 DUP2 ADD MLOAD DUP4 DUP3 ADD MSTORE PUSH1 0x20 ADD PUSH2 0x2CC JUMP JUMPDEST POP POP POP POP SWAP1 POP SWAP1 DUP2 ADD SWAP1 PUSH1 0x1F AND DUP1 ISZERO PUSH2 0x311 JUMPI DUP1 DUP3 SUB DUP1 MLOAD PUSH1 0x1 DUP4 PUSH1 0x20 SUB PUSH2 0x100 EXP SUB NOT AND DUP2 MSTORE PUSH1 0x20 ADD SWAP2 POP JUMPDEST POP SWAP3 POP POP POP PUSH1 0x40 MLOAD DUP1 SWAP2 SUB SWAP1 RETURN JUMPDEST PUSH2 0x34B PUSH1 0x4 DUP1 CALLDATASIZE SUB PUSH1 0x40 DUP2 LT ISZERO PUSH2 0x335 JUMPI PUSH1 0x0 DUP1 REVERT JUMPDEST POP PUSH1 0x1 PUSH1 0x1 PUSH1 0xA0 SHL SUB DUP2 CALLDATALOAD AND SWAP1 PUSH1 0x20 ADD CALLDATALOAD PUSH2 0xA18 JUMP JUMPDEST PUSH1 0x40 DUP1 MLOAD SWAP2 ISZERO ISZERO DUP3 MSTORE MLOAD SWAP1 DUP2 SWAP1 SUB PUSH1 0x20 ADD SWAP1 RETURN JUMPDEST PUSH2 0x367 PUSH2 0xA36 JUMP JUMPDEST PUSH1 0x40 DUP1 MLOAD PUSH1 0x1 PUSH1 0x1 PUSH1 0xA0 SHL SUB SWAP1 SWAP3 AND DUP3 MSTORE MLOAD SWAP1 DUP2 SWAP1 SUB PUSH1 0x20 ADD SWAP1 RETURN JUMPDEST PUSH2 0x38B PUSH2 0xA5A JUMP JUMPDEST PUSH1 0x40 DUP1 MLOAD PUSH1 0x2 SWAP3 SWAP1 SWAP3 SIGNEXTEND DUP3 MSTORE MLOAD SWAP1 DUP2 SWAP1 SUB PUSH1 0x20 ADD SWAP1 RETURN JUMPDEST PUSH2 0x367 PUSH2 0xA6A JUMP JUMPDEST PUSH2 0x3B2 PUSH2 0xA8E JUMP JUMPDEST PUSH1 0x40 DUP1 MLOAD SWAP2 DUP3 MSTORE MLOAD SWAP1 DUP2 SWAP1 SUB PUSH1 0x20 ADD SWAP1 RETURN JUMPDEST PUSH2 0x2A0 PUSH2 0xA94 JUMP JUMPDEST PUSH2 0x34B PUSH1 0x4 DUP1 CALLDATASIZE SUB PUSH1 0x60 DUP2 LT ISZERO PUSH2 0x3E2 JUMPI PUSH1 0x0 DUP1 REVERT JUMPDEST POP PUSH1 0x1 PUSH1 0x1 PUSH1 0xA0 SHL SUB DUP2 CALLDATALOAD DUP2 AND SWAP2 PUSH1 0x20 DUP2 ADD CALLDATALOAD SWAP1 SWAP2 AND SWAP1 PUSH1 0x40 ADD CALLDATALOAD PUSH2 0xAFB JUMP JUMPDEST PUSH2 0x3B2 PUSH2 0xB83 JUMP JUMPDEST PUSH2 0x412 PUSH2 0xB89 JUMP JUMPDEST PUSH1 0x40 DUP1 MLOAD PUSH1 0xFF SWAP1 SWAP3 AND DUP3 MSTORE MLOAD SWAP1 DUP2 SWAP1 SUB PUSH1 0x20 ADD SWAP1 RETURN JUMPDEST PUSH2 0x2A0 PUSH1 0x4 DUP1 CALLDATASIZE SUB PUSH1 0x20 DUP2 LT ISZERO PUSH2 0x43E JUMPI PUSH1 0x0 DUP1 REVERT JUMPDEST POP CALLDATALOAD PUSH1 0x1 PUSH1 0x1 PUSH1 0xA0 SHL SUB AND PUSH2 0xB92 JUMP JUMPDEST PUSH2 0x48C PUSH1 0x4 DUP1 CALLDATASIZE SUB PUSH1 0xA0 DUP2 LT ISZERO PUSH2 0x464 JUMPI PUSH1 0x0 DUP1 REVERT JUMPDEST POP DUP1 CALLDATALOAD SWAP1 PUSH1 0x20 DUP2 ADD CALLDATALOAD SWAP1 PUSH1 0x40 DUP2 ADD CALLDATALOAD SWAP1 PUSH1 0x60 DUP2 ADD CALLDATALOAD SWAP1 PUSH1 0x80 ADD CALLDATALOAD PUSH1 0x1 PUSH1 0x1 PUSH1 0xA0 SHL SUB AND PUSH2 0xC00 JUMP JUMPDEST PUSH1 0x40 DUP1 MLOAD SWAP4 DUP5 MSTORE PUSH1 0x20 DUP5 ADD SWAP3 SWAP1 SWAP3 MSTORE DUP3 DUP3 ADD MSTORE MLOAD SWAP1 DUP2 SWAP1 SUB PUSH1 0x60 ADD SWAP1 RETURN JUMPDEST PUSH2 0x34B PUSH1 0x4 DUP1 CALLDATASIZE SUB PUSH1 0x40 DUP2 LT ISZERO PUSH2 0x4C0 JUMPI PUSH1 0x0 DUP1 REVERT JUMPDEST POP PUSH1 0x1 PUSH1 0x1 PUSH1 0xA0 SHL SUB DUP2 CALLDATALOAD AND SWAP1 PUSH1 0x20 ADD CALLDATALOAD PUSH2 0xF5B JUMP JUMPDEST PUSH2 0x2A0 PUSH1 0x4 DUP1 CALLDATASIZE SUB PUSH1 0x20 DUP2 LT ISZERO PUSH2 0x4EC JUMPI PUSH1 0x0 DUP1 REVERT JUMPDEST POP CALLDATALOAD PUSH2 0xFA9 JUMP JUMPDEST PUSH2 0x3B2 PUSH2 0xFFA JUMP JUMPDEST PUSH2 0x38B PUSH2 0x10A6 JUMP JUMPDEST PUSH2 0x367 PUSH2 0x10B6 JUMP JUMPDEST PUSH2 0x3B2 PUSH2 0x10C5 JUMP JUMPDEST PUSH2 0x3B2 PUSH1 0x4 DUP1 CALLDATASIZE SUB PUSH1 0x20 DUP2 LT ISZERO PUSH2 0x529 JUMPI PUSH1 0x0 DUP1 REVERT JUMPDEST POP CALLDATALOAD PUSH1 0x1 PUSH1 0x1 PUSH1 0xA0 SHL SUB AND PUSH2 0x113A JUMP JUMPDEST PUSH2 0x2A0 PUSH1 0x4 DUP1 CALLDATASIZE SUB PUSH1 0x20 DUP2 LT ISZERO PUSH2 0x54F JUMPI PUSH1 0x0 DUP1 REVERT JUMPDEST POP CALLDATALOAD PUSH2 0x1159 JUMP JUMPDEST PUSH2 0x2A0 PUSH1 0x4 DUP1 CALLDATASIZE SUB PUSH2 0x100 DUP2 LT ISZERO PUSH2 0x56D JUMPI PUSH1 0x0 DUP1 REVERT JUMPDEST POP DUP1 CALLDATALOAD SWAP1 PUSH1 0x1 PUSH1 0x1 PUSH1 0xA0 SHL SUB PUSH1 0x20 DUP3 ADD CALLDATALOAD AND SWAP1 PUSH1 0x40 DUP2 ADD CALLDATALOAD PUSH1 0x2 SWAP1 DUP2 SIGNEXTEND SWAP2 PUSH1 0x60 DUP2 ADD CALLDATALOAD DUP3 SIGNEXTEND SWAP2 PUSH1 0x80 DUP3 ADD CALLDATALOAD DUP2 SIGNEXTEND SWAP2 PUSH1 0xA0 DUP2 ADD CALLDATALOAD DUP3 SIGNEXTEND SWAP2 PUSH1 0xC0 DUP3 ADD CALLDATALOAD DUP2 SIGNEXTEND SWAP2 PUSH1 0xE0 ADD CALLDATALOAD SWAP1 SIGNEXTEND PUSH2 0x11EF JUMP JUMPDEST PUSH2 0x38B PUSH2 0x1736 JUMP JUMPDEST PUSH2 0x2AA PUSH2 0x1746 JUMP JUMPDEST PUSH2 0x3B2 PUSH2 0x17A7 JUMP JUMPDEST PUSH2 0x34B PUSH1 0x4 DUP1 CALLDATASIZE SUB PUSH1 0x40 DUP2 LT ISZERO PUSH2 0x5E4 JUMPI PUSH1 0x0 DUP1 REVERT JUMPDEST POP PUSH1 0x1 PUSH1 0x1 PUSH1 0xA0 SHL SUB DUP2 CALLDATALOAD AND SWAP1 PUSH1 0x20 ADD CALLDATALOAD PUSH2 0x17AD JUMP JUMPDEST PUSH2 0x367 PUSH2 0x1815 JUMP JUMPDEST PUSH2 0x34B PUSH1 0x4 DUP1 CALLDATASIZE SUB PUSH1 0x40 DUP2 LT ISZERO PUSH2 0x618 JUMPI PUSH1 0x0 DUP1 REVERT JUMPDEST POP PUSH1 0x1 PUSH1 0x1 PUSH1 0xA0 SHL SUB DUP2 CALLDATALOAD AND SWAP1 PUSH1 0x20 ADD CALLDATALOAD PUSH2 0x1824 JUMP JUMPDEST PUSH2 0x658 PUSH1 0x4 DUP1 CALLDATASIZE SUB PUSH1 0x40 DUP2 LT ISZERO PUSH2 0x644 JUMPI PUSH1 0x0 DUP1 REVERT JUMPDEST POP DUP1 CALLDATALOAD PUSH1 0x2 SWAP1 DUP2 SIGNEXTEND SWAP2 PUSH1 0x20 ADD CALLDATALOAD SWAP1 SIGNEXTEND PUSH2 0x1838 JUMP JUMPDEST PUSH1 0x40 DUP1 MLOAD SWAP3 DUP4 MSTORE PUSH1 0x20 DUP4 ADD SWAP2 SWAP1 SWAP2 MSTORE DUP1 MLOAD SWAP2 DUP3 SWAP1 SUB ADD SWAP1 RETURN JUMPDEST PUSH2 0x2A0 PUSH1 0x4 DUP1 CALLDATASIZE SUB PUSH1 0x20 DUP2 LT ISZERO PUSH2 0x687 JUMPI PUSH1 0x0 DUP1 REVERT JUMPDEST POP CALLDATALOAD PUSH1 0x1 PUSH1 0x1 PUSH1 0xA0 SHL SUB AND PUSH2 0x18D5 JUMP JUMPDEST PUSH2 0x2A0 PUSH1 0x4 DUP1 CALLDATASIZE SUB PUSH1 0x60 DUP2 LT ISZERO PUSH2 0x6AD JUMPI PUSH1 0x0 DUP1 REVERT JUMPDEST POP DUP1 CALLDATALOAD PUSH1 0x2 SWAP1 DUP2 SIGNEXTEND SWAP2 PUSH1 0x20 DUP2 ADD CALLDATALOAD SWAP1 SWAP2 SIGNEXTEND SWAP1 PUSH1 0x40 ADD CALLDATALOAD PUSH1 0x1 PUSH1 0x1 PUSH1 0x80 SHL SUB AND PUSH2 0x1943 JUMP JUMPDEST PUSH2 0x3B2 PUSH2 0x1AF5 JUMP JUMPDEST PUSH2 0x658 PUSH2 0x1AFB JUMP JUMPDEST PUSH2 0x38B PUSH2 0x1B88 JUMP JUMPDEST PUSH2 0x367 PUSH2 0x1BAC JUMP JUMPDEST PUSH2 0x658 PUSH1 0x4 DUP1 CALLDATASIZE SUB PUSH1 0x80 DUP2 LT ISZERO PUSH2 0x707 JUMPI PUSH1 0x0 DUP1 REVERT JUMPDEST POP DUP1 CALLDATALOAD SWAP1 PUSH1 0x20 DUP2 ADD CALLDATALOAD SWAP1 PUSH1 0x40 DUP2 ADD CALLDATALOAD SWAP1 PUSH1 0x60 ADD CALLDATALOAD PUSH1 0x1 PUSH1 0x1 PUSH1 0xA0 SHL SUB AND PUSH2 0x1BD0 JUMP JUMPDEST PUSH2 0x2A0 PUSH1 0x4 DUP1 CALLDATASIZE SUB PUSH1 0x60 DUP2 LT ISZERO PUSH2 0x73F JUMPI PUSH1 0x0 DUP1 REVERT JUMPDEST DUP2 CALLDATALOAD SWAP2 PUSH1 0x20 DUP2 ADD CALLDATALOAD SWAP2 DUP2 ADD SWAP1 PUSH1 0x60 DUP2 ADD PUSH1 0x40 DUP3 ADD CALLDATALOAD PUSH5 0x100000000 DUP2 GT ISZERO PUSH2 0x766 JUMPI PUSH1 0x0 DUP1 REVERT JUMPDEST DUP3 ADD DUP4 PUSH1 0x20 DUP3 ADD GT ISZERO PUSH2 0x778 JUMPI PUSH1 0x0 DUP1 REVERT JUMPDEST DUP1 CALLDATALOAD SWAP1 PUSH1 0x20 ADD SWAP2 DUP5 PUSH1 0x1 DUP4 MUL DUP5 ADD GT PUSH5 0x100000000 DUP4 GT OR ISZERO PUSH2 0x79A JUMPI PUSH1 0x0 DUP1 REVERT JUMPDEST POP SWAP1 SWAP3 POP SWAP1 POP PUSH2 0x1EE0 JUMP JUMPDEST PUSH2 0x2A0 PUSH1 0x4 DUP1 CALLDATASIZE SUB PUSH1 0x60 DUP2 LT ISZERO PUSH2 0x7BB JUMPI PUSH1 0x0 DUP1 REVERT JUMPDEST POP PUSH1 0x1 PUSH1 0x1 PUSH1 0xA0 SHL SUB DUP2 CALLDATALOAD DUP2 AND SWAP2 PUSH1 0x20 DUP2 ADD CALLDATALOAD SWAP2 PUSH1 0x40 SWAP1 SWAP2 ADD CALLDATALOAD AND PUSH2 0x1F8F JUMP JUMPDEST PUSH2 0x3B2 PUSH1 0x4 DUP1 CALLDATASIZE SUB PUSH1 0x40 DUP2 LT ISZERO PUSH2 0x7F1 JUMPI PUSH1 0x0 DUP1 REVERT JUMPDEST POP PUSH1 0x1 PUSH1 0x1 PUSH1 0xA0 SHL SUB DUP2 CALLDATALOAD DUP2 AND SWAP2 PUSH1 0x20 ADD CALLDATALOAD AND PUSH2 0x209C JUMP JUMPDEST PUSH2 0x3B2 PUSH2 0x20C7 JUMP JUMPDEST PUSH2 0x367 PUSH2 0x20CD JUMP JUMPDEST PUSH2 0x38B PUSH2 0x20DC JUMP JUMPDEST PUSH2 0x2A0 PUSH1 0x4 DUP1 CALLDATASIZE SUB PUSH1 0x60 DUP2 LT ISZERO PUSH2 0x837 JUMPI PUSH1 0x0 DUP1 REVERT JUMPDEST DUP2 CALLDATALOAD SWAP2 PUSH1 0x20 DUP2 ADD CALLDATALOAD SWAP2 DUP2 ADD SWAP1 PUSH1 0x60 DUP2 ADD PUSH1 0x40 DUP3 ADD CALLDATALOAD PUSH5 0x100000000 DUP2 GT ISZERO PUSH2 0x85E JUMPI PUSH1 0x0 DUP1 REVERT JUMPDEST DUP3 ADD DUP4 PUSH1 0x20 DUP3 ADD GT ISZERO PUSH2 0x870 JUMPI PUSH1 0x0 DUP1 REVERT JUMPDEST DUP1 CALLDATALOAD SWAP1 PUSH1 0x20 ADD SWAP2 DUP5 PUSH1 0x1 DUP4 MUL DUP5 ADD GT PUSH5 0x100000000 DUP4 GT OR ISZERO PUSH2 0x892 JUMPI PUSH1 0x0 DUP1 REVERT JUMPDEST POP SWAP1 SWAP3 POP SWAP1 POP PUSH2 0x20EC JUMP JUMPDEST PUSH1 0xA SLOAD PUSH1 0x1 PUSH1 0x1 PUSH1 0xA0 SHL SUB AND CALLER EQ PUSH2 0x8E9 JUMPI PUSH1 0x40 DUP1 MLOAD PUSH3 0x461BCD PUSH1 0xE5 SHL DUP2 MSTORE PUSH1 0x20 PUSH1 0x4 DUP3 ADD MSTORE PUSH1 0xA PUSH1 0x24 DUP3 ADD MSTORE PUSH10 0x676F7665726E616E6365 PUSH1 0xB0 SHL PUSH1 0x44 DUP3 ADD MSTORE SWAP1 MLOAD SWAP1 DUP2 SWAP1 SUB PUSH1 0x64 ADD SWAP1 REVERT JUMPDEST PUSH1 0xC SLOAD PUSH2 0x8F6 SWAP1 DUP5 PUSH2 0x219B JUMP JUMPDEST PUSH1 0xC SSTORE PUSH1 0xD SLOAD PUSH2 0x906 SWAP1 DUP4 PUSH2 0x219B JUMP JUMPDEST PUSH1 0xD SSTORE DUP3 ISZERO PUSH2 0x943 JUMPI PUSH2 0x943 PUSH1 0x1 PUSH1 0x1 PUSH1 0xA0 SHL SUB PUSH32 0x0 AND DUP3 DUP6 PUSH2 0x21F8 JUMP JUMPDEST DUP2 ISZERO PUSH2 0x97D JUMPI PUSH2 0x97D PUSH1 0x1 PUSH1 0x1 PUSH1 0xA0 SHL SUB PUSH32 0x0 AND DUP3 DUP5 PUSH2 0x21F8 JUMP JUMPDEST POP POP POP JUMP JUMPDEST PUSH1 0x3 DUP1 SLOAD PUSH1 0x40 DUP1 MLOAD PUSH1 0x20 PUSH1 0x1F PUSH1 0x2 PUSH1 0x0 NOT PUSH2 0x100 PUSH1 0x1 DUP9 AND ISZERO MUL ADD SWAP1 SWAP6 AND SWAP5 SWAP1 SWAP5 DIV SWAP4 DUP5 ADD DUP2 SWAP1 DIV DUP2 MUL DUP3 ADD DUP2 ADD SWAP1 SWAP3 MSTORE DUP3 DUP2 MSTORE PUSH1 0x60 SWAP4 SWAP1 SWAP3 SWAP1 SWAP2 DUP4 ADD DUP3 DUP3 DUP1 ISZERO PUSH2 0xA0E JUMPI DUP1 PUSH1 0x1F LT PUSH2 0x9E3 JUMPI PUSH2 0x100 DUP1 DUP4 SLOAD DIV MUL DUP4 MSTORE SWAP2 PUSH1 0x20 ADD SWAP2 PUSH2 0xA0E JUMP JUMPDEST DUP3 ADD SWAP2 SWAP1 PUSH1 0x0 MSTORE PUSH1 0x20 PUSH1 0x0 KECCAK256 SWAP1 JUMPDEST DUP2 SLOAD DUP2 MSTORE SWAP1 PUSH1 0x1 ADD SWAP1 PUSH1 0x20 ADD DUP1 DUP4 GT PUSH2 0x9F1 JUMPI DUP3 SWAP1 SUB PUSH1 0x1F AND DUP3 ADD SWAP2 JUMPDEST POP POP POP POP POP SWAP1 POP SWAP1 JUMP JUMPDEST PUSH1 0x0 PUSH2 0xA2C PUSH2 0xA25 PUSH2 0x224A JUMP JUMPDEST DUP5 DUP5 PUSH2 0x224E JUMP JUMPDEST POP PUSH1 0x1 JUMPDEST SWAP3 SWAP2 POP POP JUMP JUMPDEST PUSH32 0x0 DUP2 JUMP JUMPDEST PUSH1 0xB SLOAD PUSH1 0x1 PUSH1 0xE8 SHL SWAP1 DIV PUSH1 0x2 SIGNEXTEND DUP2 JUMP JUMPDEST PUSH32 0x0 DUP2 JUMP JUMPDEST PUSH1 0x2 SLOAD SWAP1 JUMP JUMPDEST PUSH1 0xB SLOAD PUSH1 0x1 PUSH1 0x1 PUSH1 0xA0 SHL SUB AND CALLER EQ PUSH2 0xAE7 JUMPI PUSH1 0x40 DUP1 MLOAD PUSH3 0x461BCD PUSH1 0xE5 SHL DUP2 MSTORE PUSH1 0x20 PUSH1 0x4 DUP3 ADD MSTORE PUSH1 0x11 PUSH1 0x24 DUP3 ADD MSTORE PUSH17 0x70656E64696E67476F7665726E616E6365 PUSH1 0x78 SHL PUSH1 0x44 DUP3 ADD MSTORE SWAP1 MLOAD SWAP1 DUP2 SWAP1 SUB PUSH1 0x64 ADD SWAP1 REVERT JUMPDEST PUSH1 0xA DUP1 SLOAD PUSH1 0x1 PUSH1 0x1 PUSH1 0xA0 SHL SUB NOT AND CALLER OR SWAP1 SSTORE JUMP JUMPDEST PUSH1 0x0 PUSH2 0xB08 DUP5 DUP5 DUP5 PUSH2 0x233A JUMP JUMPDEST PUSH2 0xB78 DUP5 PUSH2 0xB14 PUSH2 0x224A JUMP JUMPDEST PUSH2 0xB73 DUP6 PUSH1 0x40 MLOAD DUP1 PUSH1 0x60 ADD PUSH1 0x40 MSTORE DUP1 PUSH1 0x28 DUP2 MSTORE PUSH1 0x20 ADD PUSH2 0x3CCF PUSH1 0x28 SWAP2 CODECOPY PUSH1 0x1 PUSH1 0x1 PUSH1 0xA0 SHL SUB DUP11 AND PUSH1 0x0 SWAP1 DUP2 MSTORE PUSH1 0x1 PUSH1 0x20 MSTORE PUSH1 0x40 DUP2 KECCAK256 SWAP1 PUSH2 0xB52 PUSH2 0x224A JUMP JUMPDEST PUSH1 0x1 PUSH1 0x1 PUSH1 0xA0 SHL SUB AND DUP2 MSTORE PUSH1 0x20 DUP2 ADD SWAP2 SWAP1 SWAP2 MSTORE PUSH1 0x40 ADD PUSH1 0x0 KECCAK256 SLOAD SWAP2 SWAP1 PUSH2 0x2495 JUMP JUMPDEST PUSH2 0x224E JUMP JUMPDEST POP PUSH1 0x1 JUMPDEST SWAP4 SWAP3 POP POP POP JUMP JUMPDEST PUSH1 0x8 SLOAD DUP2 JUMP JUMPDEST PUSH1 0x5 SLOAD PUSH1 0xFF AND SWAP1 JUMP JUMPDEST PUSH1 0xA SLOAD PUSH1 0x1 PUSH1 0x1 PUSH1 0xA0 SHL SUB AND CALLER EQ PUSH2 0xBDE JUMPI PUSH1 0x40 DUP1 MLOAD PUSH3 0x461BCD PUSH1 0xE5 SHL DUP2 MSTORE PUSH1 0x20 PUSH1 0x4 DUP3 ADD MSTORE PUSH1 0xA PUSH1 0x24 DUP3 ADD MSTORE PUSH10 0x676F7665726E616E6365 PUSH1 0xB0 SHL PUSH1 0x44 DUP3 ADD MSTORE SWAP1 MLOAD SWAP1 DUP2 SWAP1 SUB PUSH1 0x64 ADD SWAP1 REVERT JUMPDEST PUSH1 0x9 DUP1 SLOAD PUSH1 0x1 PUSH1 0x1 PUSH1 0xA0 SHL SUB NOT AND PUSH1 0x1 PUSH1 0x1 PUSH1 0xA0 SHL SUB SWAP3 SWAP1 SWAP3 AND SWAP2 SWAP1 SWAP2 OR SWAP1 SSTORE JUMP JUMPDEST PUSH1 0x0 DUP1 PUSH1 0x0 PUSH1 0x2 PUSH1 0x6 SLOAD EQ ISZERO PUSH2 0xC5D JUMPI PUSH1 0x40 DUP1 MLOAD PUSH3 0x461BCD PUSH1 0xE5 SHL DUP2 MSTORE PUSH1 0x20 PUSH1 0x4 DUP3 ADD MSTORE PUSH1 0x1F PUSH1 0x24 DUP3 ADD MSTORE PUSH32 0x5265656E7472616E637947756172643A207265656E7472616E742063616C6C00 PUSH1 0x44 DUP3 ADD MSTORE SWAP1 MLOAD SWAP1 DUP2 SWAP1 SUB PUSH1 0x64 ADD SWAP1 REVERT JUMPDEST PUSH1 0x2 PUSH1 0x6 SSTORE DUP8 ISZERO ISZERO DUP1 PUSH2 0xC70 JUMPI POP PUSH1 0x0 DUP8 GT JUMPDEST PUSH2 0xCC1 JUMPI PUSH1 0x40 DUP1 MLOAD PUSH3 0x461BCD PUSH1 0xE5 SHL DUP2 MSTORE PUSH1 0x20 PUSH1 0x4 DUP3 ADD DUP2 SWAP1 MSTORE PUSH1 0x24 DUP3 ADD MSTORE PUSH32 0x616D6F756E743044657369726564206F7220616D6F756E743144657369726564 PUSH1 0x44 DUP3 ADD MSTORE SWAP1 MLOAD SWAP1 DUP2 SWAP1 SUB PUSH1 0x64 ADD SWAP1 REVERT JUMPDEST PUSH1 0x1 PUSH1 0x1 PUSH1 0xA0 SHL SUB DUP5 AND ISZERO DUP1 ISZERO SWAP1 PUSH2 0xCE2 JUMPI POP PUSH1 0x1 PUSH1 0x1 PUSH1 0xA0 SHL SUB DUP5 AND ADDRESS EQ ISZERO JUMPDEST PUSH2 0xD18 JUMPI PUSH1 0x40 DUP1 MLOAD PUSH3 0x461BCD PUSH1 0xE5 SHL DUP2 MSTORE PUSH1 0x20 PUSH1 0x4 DUP3 ADD MSTORE PUSH1 0x2 PUSH1 0x24 DUP3 ADD MSTORE PUSH2 0x746F PUSH1 0xF0 SHL PUSH1 0x44 DUP3 ADD MSTORE SWAP1 MLOAD SWAP1 DUP2 SWAP1 SUB PUSH1 0x64 ADD SWAP1 REVERT JUMPDEST PUSH1 0xB SLOAD PUSH2 0xD3A SWAP1 PUSH1 0x1 PUSH1 0xA0 SHL DUP2 DIV PUSH1 0x2 SWAP1 DUP2 SIGNEXTEND SWAP2 PUSH1 0x1 PUSH1 0xB8 SHL SWAP1 DIV SWAP1 SIGNEXTEND PUSH2 0x252C JUMP JUMPDEST PUSH1 0xB SLOAD PUSH2 0xD5C SWAP1 PUSH1 0x1 PUSH1 0xD0 SHL DUP2 DIV PUSH1 0x2 SWAP1 DUP2 SIGNEXTEND SWAP2 PUSH1 0x1 PUSH1 0xE8 SHL SWAP1 DIV SWAP1 SIGNEXTEND PUSH2 0x252C JUMP JUMPDEST PUSH2 0xD66 DUP9 DUP9 PUSH2 0x25CC JUMP JUMPDEST SWAP2 SWAP5 POP SWAP3 POP SWAP1 POP DUP3 PUSH2 0xDA8 JUMPI PUSH1 0x40 DUP1 MLOAD PUSH3 0x461BCD PUSH1 0xE5 SHL DUP2 MSTORE PUSH1 0x20 PUSH1 0x4 DUP3 ADD MSTORE PUSH1 0x6 PUSH1 0x24 DUP3 ADD MSTORE PUSH6 0x736861726573 PUSH1 0xD0 SHL PUSH1 0x44 DUP3 ADD MSTORE SWAP1 MLOAD SWAP1 DUP2 SWAP1 SUB PUSH1 0x64 ADD SWAP1 REVERT JUMPDEST DUP6 DUP3 LT ISZERO PUSH2 0xDEA JUMPI PUSH1 0x40 DUP1 MLOAD PUSH3 0x461BCD PUSH1 0xE5 SHL DUP2 MSTORE PUSH1 0x20 PUSH1 0x4 DUP3 ADD MSTORE PUSH1 0xA PUSH1 0x24 DUP3 ADD MSTORE PUSH10 0x30B6B7BAB73A1826B4B7 PUSH1 0xB1 SHL PUSH1 0x44 DUP3 ADD MSTORE SWAP1 MLOAD SWAP1 DUP2 SWAP1 SUB PUSH1 0x64 ADD SWAP1 REVERT JUMPDEST DUP5 DUP2 LT ISZERO PUSH2 0xE2C JUMPI PUSH1 0x40 DUP1 MLOAD PUSH3 0x461BCD PUSH1 0xE5 SHL DUP2 MSTORE PUSH1 0x20 PUSH1 0x4 DUP3 ADD MSTORE PUSH1 0xA PUSH1 0x24 DUP3 ADD MSTORE PUSH10 0x30B6B7BAB73A18A6B4B7 PUSH1 0xB1 SHL PUSH1 0x44 DUP3 ADD MSTORE SWAP1 MLOAD SWAP1 DUP2 SWAP1 SUB PUSH1 0x64 ADD SWAP1 REVERT JUMPDEST DUP2 ISZERO PUSH2 0xE67 JUMPI PUSH2 0xE67 PUSH1 0x1 PUSH1 0x1 PUSH1 0xA0 SHL SUB PUSH32 0x0 AND CALLER ADDRESS DUP6 PUSH2 0x26F8 JUMP JUMPDEST DUP1 ISZERO PUSH2 0xEA2 JUMPI PUSH2 0xEA2 PUSH1 0x1 PUSH1 0x1 PUSH1 0xA0 SHL SUB PUSH32 0x0 AND CALLER ADDRESS DUP5 PUSH2 0x26F8 JUMP JUMPDEST PUSH2 0xEAC DUP5 DUP5 PUSH2 0x2752 JUMP JUMPDEST PUSH1 0x40 DUP1 MLOAD DUP5 DUP2 MSTORE PUSH1 0x20 DUP2 ADD DUP5 SWAP1 MSTORE DUP1 DUP3 ADD DUP4 SWAP1 MSTORE SWAP1 MLOAD PUSH1 0x1 PUSH1 0x1 PUSH1 0xA0 SHL SUB DUP7 AND SWAP2 CALLER SWAP2 PUSH32 0x4E2CA0515ED1AEF1395F66B5303BB5D6F1BF9D61A353FA53F73F8AC9973FA9F6 SWAP2 DUP2 SWAP1 SUB PUSH1 0x60 ADD SWAP1 LOG3 PUSH1 0x8 SLOAD PUSH2 0xF04 PUSH2 0xA8E JUMP JUMPDEST GT ISZERO PUSH2 0xF48 JUMPI PUSH1 0x40 DUP1 MLOAD PUSH3 0x461BCD PUSH1 0xE5 SHL DUP2 MSTORE PUSH1 0x20 PUSH1 0x4 DUP3 ADD MSTORE PUSH1 0xE PUSH1 0x24 DUP3 ADD MSTORE PUSH14 0x6D6178546F74616C537570706C79 PUSH1 0x90 SHL PUSH1 0x44 DUP3 ADD MSTORE SWAP1 MLOAD SWAP1 DUP2 SWAP1 SUB PUSH1 0x64 ADD SWAP1 REVERT JUMPDEST PUSH1 0x1 PUSH1 0x6 DUP2 SWAP1 SSTORE POP SWAP6 POP SWAP6 POP SWAP6 SWAP3 POP POP POP JUMP JUMPDEST PUSH1 0x0 PUSH2 0xA2C PUSH2 0xF68 PUSH2 0x224A JUMP JUMPDEST DUP5 PUSH2 0xB73 DUP6 PUSH1 0x1 PUSH1 0x0 PUSH2 0xF79 PUSH2 0x224A JUMP JUMPDEST PUSH1 0x1 PUSH1 0x1 PUSH1 0xA0 SHL SUB SWAP1 DUP2 AND DUP3 MSTORE PUSH1 0x20 DUP1 DUP4 ADD SWAP4 SWAP1 SWAP4 MSTORE PUSH1 0x40 SWAP2 DUP3 ADD PUSH1 0x0 SWAP1 DUP2 KECCAK256 SWAP2 DUP13 AND DUP2 MSTORE SWAP3 MSTORE SWAP1 KECCAK256 SLOAD SWAP1 PUSH2 0x2842 JUMP JUMPDEST PUSH1 0xA SLOAD PUSH1 0x1 PUSH1 0x1 PUSH1 0xA0 SHL SUB AND CALLER EQ PUSH2 0xFF5 JUMPI PUSH1 0x40 DUP1 MLOAD PUSH3 0x461BCD PUSH1 0xE5 SHL DUP2 MSTORE PUSH1 0x20 PUSH1 0x4 DUP3 ADD MSTORE PUSH1 0xA PUSH1 0x24 DUP3 ADD MSTORE PUSH10 0x676F7665726E616E6365 PUSH1 0xB0 SHL PUSH1 0x44 DUP3 ADD MSTORE SWAP1 MLOAD SWAP1 DUP2 SWAP1 SUB PUSH1 0x64 ADD SWAP1 REVERT JUMPDEST PUSH1 0x8 SSTORE JUMP JUMPDEST PUSH1 0x0 PUSH2 0x10A1 PUSH1 0xD SLOAD PUSH32 0x0 PUSH1 0x1 PUSH1 0x1 PUSH1 0xA0 SHL SUB AND PUSH4 0x70A08231 ADDRESS PUSH1 0x40 MLOAD DUP3 PUSH4 0xFFFFFFFF AND PUSH1 0xE0 SHL DUP2 MSTORE PUSH1 0x4 ADD DUP1 DUP3 PUSH1 0x1 PUSH1 0x1 PUSH1 0xA0 SHL SUB AND DUP2 MSTORE PUSH1 0x20 ADD SWAP2 POP POP PUSH1 0x20 PUSH1 0x40 MLOAD DUP1 DUP4 SUB DUP2 DUP7 DUP1 EXTCODESIZE ISZERO DUP1 ISZERO PUSH2 0x106F JUMPI PUSH1 0x0 DUP1 REVERT JUMPDEST POP GAS STATICCALL ISZERO DUP1 ISZERO PUSH2 0x1083 JUMPI RETURNDATASIZE PUSH1 0x0 DUP1 RETURNDATACOPY RETURNDATASIZE PUSH1 0x0 REVERT JUMPDEST POP POP POP POP PUSH1 0x40 MLOAD RETURNDATASIZE PUSH1 0x20 DUP2 LT ISZERO PUSH2 0x1099 JUMPI PUSH1 0x0 DUP1 REVERT JUMPDEST POP MLOAD SWAP1 PUSH2 0x219B JUMP JUMPDEST SWAP1 POP SWAP1 JUMP JUMPDEST PUSH1 0xB SLOAD PUSH1 0x1 PUSH1 0xD0 SHL SWAP1 DIV PUSH1 0x2 SIGNEXTEND DUP2 JUMP JUMPDEST PUSH1 0xA SLOAD PUSH1 0x1 PUSH1 0x1 PUSH1 0xA0 SHL SUB AND DUP2 JUMP JUMPDEST PUSH1 0x0 PUSH2 0x10A1 PUSH1 0xC SLOAD PUSH32 0x0 PUSH1 0x1 PUSH1 0x1 PUSH1 0xA0 SHL SUB AND PUSH4 0x70A08231 ADDRESS PUSH1 0x40 MLOAD DUP3 PUSH4 0xFFFFFFFF AND PUSH1 0xE0 SHL DUP2 MSTORE PUSH1 0x4 ADD DUP1 DUP3 PUSH1 0x1 PUSH1 0x1 PUSH1 0xA0 SHL SUB AND DUP2 MSTORE PUSH1 0x20 ADD SWAP2 POP POP PUSH1 0x20 PUSH1 0x40 MLOAD DUP1 DUP4 SUB DUP2 DUP7 DUP1 EXTCODESIZE ISZERO DUP1 ISZERO PUSH2 0x106F JUMPI PUSH1 0x0 DUP1 REVERT JUMPDEST PUSH1 0x1 PUSH1 0x1 PUSH1 0xA0 SHL SUB DUP2 AND PUSH1 0x0 SWAP1 DUP2 MSTORE PUSH1 0x20 DUP2 SWAP1 MSTORE PUSH1 0x40 SWAP1 KECCAK256 SLOAD JUMPDEST SWAP2 SWAP1 POP JUMP JUMPDEST PUSH1 0xA SLOAD PUSH1 0x1 PUSH1 0x1 PUSH1 0xA0 SHL SUB AND CALLER EQ PUSH2 0x11A5 JUMPI PUSH1 0x40 DUP1 MLOAD PUSH3 0x461BCD PUSH1 0xE5 SHL DUP2 MSTORE PUSH1 0x20 PUSH1 0x4 DUP3 ADD MSTORE PUSH1 0xA PUSH1 0x24 DUP3 ADD MSTORE PUSH10 0x676F7665726E616E6365 PUSH1 0xB0 SHL PUSH1 0x44 DUP3 ADD MSTORE SWAP1 MLOAD SWAP1 DUP2 SWAP1 SUB PUSH1 0x64 ADD SWAP1 REVERT JUMPDEST PUSH3 0xF4240 DUP2 LT PUSH2 0x11EA JUMPI PUSH1 0x40 DUP1 MLOAD PUSH3 0x461BCD PUSH1 0xE5 SHL DUP2 MSTORE PUSH1 0x20 PUSH1 0x4 DUP3 ADD MSTORE PUSH1 0xB PUSH1 0x24 DUP3 ADD MSTORE PUSH11 0x70726F746F636F6C466565 PUSH1 0xA8 SHL PUSH1 0x44 DUP3 ADD MSTORE SWAP1 MLOAD SWAP1 DUP2 SWAP1 SUB PUSH1 0x64 ADD SWAP1 REVERT JUMPDEST PUSH1 0x7 SSTORE JUMP JUMPDEST PUSH1 0x2 PUSH1 0x6 SLOAD EQ ISZERO PUSH2 0x1247 JUMPI PUSH1 0x40 DUP1 MLOAD PUSH3 0x461BCD PUSH1 0xE5 SHL DUP2 MSTORE PUSH1 0x20 PUSH1 0x4 DUP3 ADD MSTORE PUSH1 0x1F PUSH1 0x24 DUP3 ADD MSTORE PUSH32 0x5265656E7472616E637947756172643A207265656E7472616E742063616C6C00 PUSH1 0x44 DUP3 ADD MSTORE SWAP1 MLOAD SWAP1 DUP2 SWAP1 SUB PUSH1 0x64 ADD SWAP1 REVERT JUMPDEST PUSH1 0x2 PUSH1 0x6 SSTORE PUSH1 0x9 SLOAD PUSH1 0x1 PUSH1 0x1 PUSH1 0xA0 SHL SUB AND CALLER EQ PUSH2 0x1296 JUMPI PUSH1 0x40 DUP1 MLOAD PUSH3 0x461BCD PUSH1 0xE5 SHL DUP2 MSTORE PUSH1 0x20 PUSH1 0x4 DUP3 ADD MSTORE PUSH1 0x8 PUSH1 0x24 DUP3 ADD MSTORE PUSH8 0x7374726174656779 PUSH1 0xC0 SHL PUSH1 0x44 DUP3 ADD MSTORE SWAP1 MLOAD SWAP1 DUP2 SWAP1 SUB PUSH1 0x64 ADD SWAP1 REVERT JUMPDEST PUSH2 0x12A0 DUP7 DUP7 PUSH2 0x289C JUMP JUMPDEST PUSH2 0x12AA DUP5 DUP5 PUSH2 0x289C JUMP JUMPDEST PUSH2 0x12B4 DUP3 DUP3 PUSH2 0x289C JUMP JUMPDEST PUSH1 0x0 PUSH32 0x0 PUSH1 0x1 PUSH1 0x1 PUSH1 0xA0 SHL SUB AND PUSH4 0x3850C7BD PUSH1 0x40 MLOAD DUP2 PUSH4 0xFFFFFFFF AND PUSH1 0xE0 SHL DUP2 MSTORE PUSH1 0x4 ADD PUSH1 0xE0 PUSH1 0x40 MLOAD DUP1 DUP4 SUB DUP2 DUP7 DUP1 EXTCODESIZE ISZERO DUP1 ISZERO PUSH2 0x130F JUMPI PUSH1 0x0 DUP1 REVERT JUMPDEST POP GAS STATICCALL ISZERO DUP1 ISZERO PUSH2 0x1323 JUMPI RETURNDATASIZE PUSH1 0x0 DUP1 RETURNDATACOPY RETURNDATASIZE PUSH1 0x0 REVERT JUMPDEST POP POP POP POP PUSH1 0x40 MLOAD RETURNDATASIZE PUSH1 0xE0 DUP2 LT ISZERO PUSH2 0x1339 JUMPI PUSH1 0x0 DUP1 REVERT JUMPDEST POP PUSH1 0x20 ADD MLOAD SWAP1 POP PUSH1 0x2 DUP2 DUP2 SIGNEXTEND SWAP1 DUP6 SWAP1 SIGNEXTEND SGT ISZERO PUSH2 0x1387 JUMPI PUSH1 0x40 DUP1 MLOAD PUSH3 0x461BCD PUSH1 0xE5 SHL DUP2 MSTORE PUSH1 0x20 PUSH1 0x4 DUP3 ADD MSTORE PUSH1 0x8 PUSH1 0x24 DUP3 ADD MSTORE PUSH8 0x3134B22AB83832B9 PUSH1 0xC1 SHL PUSH1 0x44 DUP3 ADD MSTORE SWAP1 MLOAD SWAP1 DUP2 SWAP1 SUB PUSH1 0x64 ADD SWAP1 REVERT JUMPDEST DUP1 PUSH1 0x2 SIGNEXTEND DUP4 PUSH1 0x2 SIGNEXTEND SGT PUSH2 0x13CC JUMPI PUSH1 0x40 DUP1 MLOAD PUSH3 0x461BCD PUSH1 0xE5 SHL DUP2 MSTORE PUSH1 0x20 PUSH1 0x4 DUP3 ADD MSTORE PUSH1 0x8 PUSH1 0x24 DUP3 ADD MSTORE PUSH8 0x30B9B5A637BBB2B9 PUSH1 0xC1 SHL PUSH1 0x44 DUP3 ADD MSTORE SWAP1 MLOAD SWAP1 DUP2 SWAP1 SUB PUSH1 0x64 ADD SWAP1 REVERT JUMPDEST PUSH1 0xB SLOAD PUSH1 0x0 SWAP1 PUSH2 0x13F1 SWAP1 PUSH1 0x1 PUSH1 0xA0 SHL DUP2 DIV PUSH1 0x2 SWAP1 DUP2 SIGNEXTEND SWAP2 PUSH1 0x1 PUSH1 0xB8 SHL SWAP1 DIV SWAP1 SIGNEXTEND PUSH2 0x2A7C JUMP JUMPDEST POP POP PUSH1 0xB SLOAD SWAP3 SWAP4 POP PUSH1 0x0 SWAP3 PUSH2 0x141E SWAP3 POP PUSH1 0x1 PUSH1 0xD0 SHL DUP2 DIV PUSH1 0x2 SWAP1 DUP2 SIGNEXTEND SWAP3 POP PUSH1 0x1 PUSH1 0xE8 SHL SWAP1 SWAP2 DIV SWAP1 SIGNEXTEND PUSH2 0x2A7C JUMP JUMPDEST POP POP PUSH1 0xB SLOAD SWAP3 SWAP4 POP PUSH2 0x144A SWAP3 PUSH1 0x1 PUSH1 0xA0 SHL DUP2 DIV PUSH1 0x2 SWAP1 DUP2 SIGNEXTEND SWAP4 POP PUSH1 0x1 PUSH1 0xB8 SHL SWAP1 SWAP2 DIV SWAP1 SIGNEXTEND SWAP1 POP DUP5 PUSH2 0x2B4B JUMP JUMPDEST POP POP PUSH1 0xB SLOAD PUSH2 0x1472 SWAP3 POP PUSH1 0x1 PUSH1 0xD0 SHL DUP2 DIV PUSH1 0x2 SWAP1 DUP2 SIGNEXTEND SWAP3 POP PUSH1 0x1 PUSH1 0xE8 SHL SWAP1 SWAP2 DIV SWAP1 SIGNEXTEND DUP4 PUSH2 0x2B4B JUMP JUMPDEST POP POP POP POP POP POP PUSH1 0x0 PUSH2 0x1482 PUSH2 0x10C5 JUMP JUMPDEST SWAP1 POP PUSH1 0x0 PUSH2 0x148E PUSH2 0xFFA JUMP JUMPDEST SWAP1 POP PUSH32 0x210F60ADF1DB7A02E9DB9A49EC7C2EB2060C516CBCFD01A0C05288144738EE5D DUP4 DUP4 DUP4 PUSH2 0x14BC PUSH2 0xA8E JUMP JUMPDEST PUSH1 0x40 DUP1 MLOAD PUSH1 0x2 SWAP6 SWAP1 SWAP6 SIGNEXTEND DUP6 MSTORE PUSH1 0x20 DUP6 ADD SWAP4 SWAP1 SWAP4 MSTORE DUP4 DUP4 ADD SWAP2 SWAP1 SWAP2 MSTORE PUSH1 0x60 DUP4 ADD MSTORE MLOAD SWAP1 DUP2 SWAP1 SUB PUSH1 0x80 ADD SWAP1 LOG1 DUP11 ISZERO PUSH2 0x15E2 JUMPI PUSH1 0x1 PUSH1 0x1 PUSH1 0xA0 SHL SUB PUSH32 0x0 AND PUSH4 0x128ACB08 ADDRESS PUSH1 0x0 DUP15 SGT DUP1 PUSH2 0x152E JUMPI DUP15 PUSH1 0x0 SUB PUSH2 0x1530 JUMP JUMPDEST DUP15 JUMPDEST DUP15 PUSH1 0x40 MLOAD DUP6 PUSH4 0xFFFFFFFF AND PUSH1 0xE0 SHL DUP2 MSTORE PUSH1 0x4 ADD DUP1 DUP6 PUSH1 0x1 PUSH1 0x1 PUSH1 0xA0 SHL SUB AND DUP2 MSTORE PUSH1 0x20 ADD DUP5 ISZERO ISZERO DUP2 MSTORE PUSH1 0x20 ADD DUP4 DUP2 MSTORE PUSH1 0x20 ADD DUP3 PUSH1 0x1 PUSH1 0x1 PUSH1 0xA0 SHL SUB AND DUP2 MSTORE PUSH1 0x20 ADD DUP1 PUSH1 0x20 ADD DUP3 DUP2 SUB DUP3 MSTORE PUSH1 0x0 DUP2 MSTORE PUSH1 0x20 ADD SWAP6 POP POP POP POP POP POP PUSH1 0x40 DUP1 MLOAD DUP1 DUP4 SUB DUP2 PUSH1 0x0 DUP8 DUP1 EXTCODESIZE ISZERO DUP1 ISZERO PUSH2 0x15A0 JUMPI PUSH1 0x0 DUP1 REVERT JUMPDEST POP GAS CALL ISZERO DUP1 ISZERO PUSH2 0x15B4 JUMPI RETURNDATASIZE PUSH1 0x0 DUP1 RETURNDATACOPY RETURNDATASIZE PUSH1 0x0 REVERT JUMPDEST POP POP POP POP PUSH1 0x40 MLOAD RETURNDATASIZE PUSH1 0x40 DUP2 LT ISZERO PUSH2 0x15CA JUMPI PUSH1 0x0 DUP1 REVERT JUMPDEST POP PUSH2 0x15D5 SWAP1 POP PUSH2 0x10C5 JUMP JUMPDEST SWAP2 POP PUSH2 0x15DF PUSH2 0xFFA JUMP JUMPDEST SWAP1 POP JUMPDEST PUSH1 0x0 PUSH2 0x15F0 DUP11 DUP11 DUP6 DUP6 PUSH2 0x2DC6 JUMP JUMPDEST SWAP1 POP PUSH2 0x15FD DUP11 DUP11 DUP4 PUSH2 0x2E77 JUMP JUMPDEST PUSH1 0xB DUP1 SLOAD PUSH1 0x2 DUP13 DUP2 SIGNEXTEND PUSH3 0xFFFFFF SWAP1 DUP2 AND PUSH1 0x1 PUSH1 0xA0 SHL MUL PUSH3 0xFFFFFF PUSH1 0xA0 SHL NOT SWAP3 DUP15 SWAP1 SIGNEXTEND SWAP1 SWAP2 AND PUSH1 0x1 PUSH1 0xB8 SHL MUL PUSH3 0xFFFFFF PUSH1 0xB8 SHL NOT SWAP1 SWAP4 AND SWAP3 SWAP1 SWAP3 OR AND OR SWAP1 SSTORE PUSH2 0x1643 PUSH2 0x10C5 JUMP JUMPDEST SWAP3 POP PUSH2 0x164D PUSH2 0xFFA JUMP JUMPDEST SWAP2 POP PUSH1 0x0 PUSH2 0x165D DUP10 DUP10 DUP7 DUP7 PUSH2 0x2DC6 JUMP JUMPDEST SWAP1 POP PUSH1 0x0 PUSH2 0x166D DUP9 DUP9 DUP8 DUP8 PUSH2 0x2DC6 JUMP JUMPDEST SWAP1 POP DUP1 PUSH1 0x1 PUSH1 0x1 PUSH1 0x80 SHL SUB AND DUP3 PUSH1 0x1 PUSH1 0x1 PUSH1 0x80 SHL SUB AND GT ISZERO PUSH2 0x16D7 JUMPI PUSH2 0x1694 DUP11 DUP11 DUP5 PUSH2 0x2E77 JUMP JUMPDEST PUSH1 0xB DUP1 SLOAD PUSH1 0x2 DUP13 DUP2 SIGNEXTEND PUSH3 0xFFFFFF SWAP1 DUP2 AND PUSH1 0x1 PUSH1 0xD0 SHL MUL PUSH3 0xFFFFFF PUSH1 0xD0 SHL NOT SWAP3 DUP15 SWAP1 SIGNEXTEND SWAP1 SWAP2 AND PUSH1 0x1 PUSH1 0xE8 SHL MUL PUSH1 0x1 PUSH1 0x1 PUSH1 0xE8 SHL SUB SWAP1 SWAP4 AND SWAP3 SWAP1 SWAP3 OR AND OR SWAP1 SSTORE PUSH2 0x1721 JUMP JUMPDEST PUSH2 0x16E2 DUP9 DUP9 DUP4 PUSH2 0x2E77 JUMP JUMPDEST PUSH1 0xB DUP1 SLOAD PUSH1 0x2 DUP11 DUP2 SIGNEXTEND PUSH3 0xFFFFFF SWAP1 DUP2 AND PUSH1 0x1 PUSH1 0xD0 SHL MUL PUSH3 0xFFFFFF PUSH1 0xD0 SHL NOT SWAP3 DUP13 SWAP1 SIGNEXTEND SWAP1 SWAP2 AND PUSH1 0x1 PUSH1 0xE8 SHL MUL PUSH1 0x1 PUSH1 0x1 PUSH1 0xE8 SHL SUB SWAP1 SWAP4 AND SWAP3 SWAP1 SWAP3 OR AND OR SWAP1 SSTORE JUMPDEST POP POP PUSH1 0x1 PUSH1 0x6 SSTORE POP POP POP POP POP POP POP POP POP POP POP POP JUMP JUMPDEST PUSH1 0xB SLOAD PUSH1 0x1 PUSH1 0xB8 SHL SWAP1 DIV PUSH1 0x2 SIGNEXTEND DUP2 JUMP JUMPDEST PUSH1 0x4 DUP1 SLOAD PUSH1 0x40 DUP1 MLOAD PUSH1 0x20 PUSH1 0x1F PUSH1 0x2 PUSH1 0x0 NOT PUSH2 0x100 PUSH1 0x1 DUP9 AND ISZERO MUL ADD SWAP1 SWAP6 AND SWAP5 SWAP1 SWAP5 DIV SWAP4 DUP5 ADD DUP2 SWAP1 DIV DUP2 MUL DUP3 ADD DUP2 ADD SWAP1 SWAP3 MSTORE DUP3 DUP2 MSTORE PUSH1 0x60 SWAP4 SWAP1 SWAP3 SWAP1 SWAP2 DUP4 ADD DUP3 DUP3 DUP1 ISZERO PUSH2 0xA0E JUMPI DUP1 PUSH1 0x1F LT PUSH2 0x9E3 JUMPI PUSH2 0x100 DUP1 DUP4 SLOAD DIV MUL DUP4 MSTORE SWAP2 PUSH1 0x20 ADD SWAP2 PUSH2 0xA0E JUMP JUMPDEST PUSH1 0xD SLOAD DUP2 JUMP JUMPDEST PUSH1 0x0 PUSH2 0xA2C PUSH2 0x17BA PUSH2 0x224A JUMP JUMPDEST DUP5 PUSH2 0xB73 DUP6 PUSH1 0x40 MLOAD DUP1 PUSH1 0x60 ADD PUSH1 0x40 MSTORE DUP1 PUSH1 0x25 DUP2 MSTORE PUSH1 0x20 ADD PUSH2 0x3D8B PUSH1 0x25 SWAP2 CODECOPY PUSH1 0x1 PUSH1 0x0 PUSH2 0x17E4 PUSH2 0x224A JUMP JUMPDEST PUSH1 0x1 PUSH1 0x1 PUSH1 0xA0 SHL SUB SWAP1 DUP2 AND DUP3 MSTORE PUSH1 0x20 DUP1 DUP4 ADD SWAP4 SWAP1 SWAP4 MSTORE PUSH1 0x40 SWAP2 DUP3 ADD PUSH1 0x0 SWAP1 DUP2 KECCAK256 SWAP2 DUP14 AND DUP2 MSTORE SWAP3 MSTORE SWAP1 KECCAK256 SLOAD SWAP2 SWAP1 PUSH2 0x2495 JUMP JUMPDEST PUSH1 0x9 SLOAD PUSH1 0x1 PUSH1 0x1 PUSH1 0xA0 SHL SUB AND DUP2 JUMP JUMPDEST PUSH1 0x0 PUSH2 0xA2C PUSH2 0x1831 PUSH2 0x224A JUMP JUMPDEST DUP5 DUP5 PUSH2 0x233A JUMP JUMPDEST PUSH1 0x0 DUP1 PUSH1 0x0 DUP1 PUSH1 0x0 PUSH2 0x184A DUP8 DUP8 PUSH2 0x2A7C JUMP JUMPDEST SWAP5 POP SWAP5 POP POP POP SWAP3 POP PUSH2 0x185D DUP8 DUP8 DUP6 PUSH2 0x2F1E JUMP JUMPDEST PUSH1 0x7 SLOAD SWAP2 SWAP7 POP SWAP5 POP PUSH1 0x0 SWAP1 PUSH2 0x1876 SWAP1 PUSH3 0xF4240 SWAP1 PUSH2 0x219B JUMP JUMPDEST SWAP1 POP PUSH2 0x18A2 PUSH2 0x189B PUSH3 0xF4240 PUSH2 0x1895 PUSH1 0x1 PUSH1 0x1 PUSH1 0x80 SHL SUB DUP8 AND DUP6 PUSH2 0x2FD3 JUMP JUMPDEST SWAP1 PUSH2 0x302C JUMP JUMPDEST DUP8 SWAP1 PUSH2 0x2842 JUMP JUMPDEST SWAP6 POP PUSH2 0x18C8 PUSH2 0x18C1 PUSH3 0xF4240 PUSH2 0x1895 PUSH1 0x1 PUSH1 0x1 PUSH1 0x80 SHL SUB DUP7 AND DUP6 PUSH2 0x2FD3 JUMP JUMPDEST DUP7 SWAP1 PUSH2 0x2842 JUMP JUMPDEST SWAP5 POP POP POP POP POP SWAP3 POP SWAP3 SWAP1 POP JUMP JUMPDEST PUSH1 0xA SLOAD PUSH1 0x1 PUSH1 0x1 PUSH1 0xA0 SHL SUB AND CALLER EQ PUSH2 0x1921 JUMPI PUSH1 0x40 DUP1 MLOAD PUSH3 0x461BCD PUSH1 0xE5 SHL DUP2 MSTORE PUSH1 0x20 PUSH1 0x4 DUP3 ADD MSTORE PUSH1 0xA PUSH1 0x24 DUP3 ADD MSTORE PUSH10 0x676F7665726E616E6365 PUSH1 0xB0 SHL PUSH1 0x44 DUP3 ADD MSTORE SWAP1 MLOAD SWAP1 DUP2 SWAP1 SUB PUSH1 0x64 ADD SWAP1 REVERT JUMPDEST PUSH1 0xB DUP1 SLOAD PUSH1 0x1 PUSH1 0x1 PUSH1 0xA0 SHL SUB NOT AND PUSH1 0x1 PUSH1 0x1 PUSH1 0xA0 SHL SUB SWAP3 SWAP1 SWAP3 AND SWAP2 SWAP1 SWAP2 OR SWAP1 SSTORE JUMP JUMPDEST PUSH1 0xA SLOAD PUSH1 0x1 PUSH1 0x1 PUSH1 0xA0 SHL SUB AND CALLER EQ PUSH2 0x198F JUMPI PUSH1 0x40 DUP1 MLOAD PUSH3 0x461BCD PUSH1 0xE5 SHL DUP2 MSTORE PUSH1 0x20 PUSH1 0x4 DUP3 ADD MSTORE PUSH1 0xA PUSH1 0x24 DUP3 ADD MSTORE PUSH10 0x676F7665726E616E6365 PUSH1 0xB0 SHL PUSH1 0x44 DUP3 ADD MSTORE SWAP1 MLOAD SWAP1 DUP2 SWAP1 SUB PUSH1 0x64 ADD SWAP1 REVERT JUMPDEST PUSH1 0x40 DUP1 MLOAD PUSH4 0xA34123A7 PUSH1 0xE0 SHL DUP2 MSTORE PUSH1 0x2 DUP6 DUP2 SIGNEXTEND PUSH1 0x4 DUP4 ADD MSTORE DUP5 SWAP1 SIGNEXTEND PUSH1 0x24 DUP3 ADD MSTORE PUSH1 0x1 PUSH1 0x1 PUSH1 0x80 SHL SUB DUP4 AND PUSH1 0x44 DUP3 ADD MSTORE DUP2 MLOAD PUSH1 0x1 PUSH1 0x1 PUSH1 0xA0 SHL SUB PUSH32 0x0 AND SWAP3 PUSH4 0xA34123A7 SWAP3 PUSH1 0x64 DUP1 DUP3 ADD SWAP4 SWAP2 DUP3 SWAP1 SUB ADD DUP2 PUSH1 0x0 DUP8 DUP1 EXTCODESIZE ISZERO DUP1 ISZERO PUSH2 0x1A0E JUMPI PUSH1 0x0 DUP1 REVERT JUMPDEST POP GAS CALL ISZERO DUP1 ISZERO PUSH2 0x1A22 JUMPI RETURNDATASIZE PUSH1 0x0 DUP1 RETURNDATACOPY RETURNDATASIZE PUSH1 0x0 REVERT JUMPDEST POP POP POP POP PUSH1 0x40 MLOAD RETURNDATASIZE PUSH1 0x40 DUP2 LT ISZERO PUSH2 0x1A38 JUMPI PUSH1 0x0 DUP1 REVERT JUMPDEST POP POP PUSH1 0x40 DUP1 MLOAD PUSH4 0x9E3D67B PUSH1 0xE3 SHL DUP2 MSTORE ADDRESS PUSH1 0x4 DUP3 ADD MSTORE PUSH1 0x2 DUP6 DUP2 SIGNEXTEND PUSH1 0x24 DUP4 ADD MSTORE DUP5 SWAP1 SIGNEXTEND PUSH1 0x44 DUP3 ADD MSTORE PUSH1 0x1 PUSH1 0x1 PUSH1 0x80 SHL SUB PUSH1 0x64 DUP3 ADD DUP2 SWAP1 MSTORE PUSH1 0x84 DUP3 ADD MSTORE DUP2 MLOAD PUSH1 0x1 PUSH1 0x1 PUSH1 0xA0 SHL SUB PUSH32 0x0 AND SWAP3 PUSH4 0x4F1EB3D8 SWAP3 PUSH1 0xA4 DUP1 DUP3 ADD SWAP4 SWAP2 DUP3 SWAP1 SUB ADD DUP2 PUSH1 0x0 DUP8 DUP1 EXTCODESIZE ISZERO DUP1 ISZERO PUSH2 0x1AC4 JUMPI PUSH1 0x0 DUP1 REVERT JUMPDEST POP GAS CALL ISZERO DUP1 ISZERO PUSH2 0x1AD8 JUMPI RETURNDATASIZE PUSH1 0x0 DUP1 RETURNDATACOPY RETURNDATASIZE PUSH1 0x0 REVERT JUMPDEST POP POP POP POP PUSH1 0x40 MLOAD RETURNDATASIZE PUSH1 0x40 DUP2 LT ISZERO PUSH2 0x1AEE JUMPI PUSH1 0x0 DUP1 REVERT JUMPDEST POP POP POP POP POP JUMP JUMPDEST PUSH1 0x7 SLOAD DUP2 JUMP JUMPDEST PUSH1 0xB SLOAD PUSH1 0x0 SWAP1 DUP2 SWAP1 DUP2 SWAP1 DUP2 SWAP1 PUSH2 0x1B26 SWAP1 PUSH1 0x1 PUSH1 0xA0 SHL DUP2 DIV PUSH1 0x2 SWAP1 DUP2 SIGNEXTEND SWAP2 PUSH1 0x1 PUSH1 0xB8 SHL SWAP1 DIV SWAP1 SIGNEXTEND PUSH2 0x1838 JUMP JUMPDEST PUSH1 0xB SLOAD SWAP2 SWAP4 POP SWAP2 POP PUSH1 0x0 SWAP1 DUP2 SWAP1 PUSH2 0x1B52 SWAP1 PUSH1 0x1 PUSH1 0xD0 SHL DUP2 DIV PUSH1 0x2 SWAP1 DUP2 SIGNEXTEND SWAP2 PUSH1 0x1 PUSH1 0xE8 SHL SWAP1 DIV SWAP1 SIGNEXTEND PUSH2 0x1838 JUMP JUMPDEST SWAP2 POP SWAP2 POP PUSH2 0x1B6C DUP3 PUSH2 0x1B66 DUP7 PUSH2 0x1B66 PUSH2 0x10C5 JUMP JUMPDEST SWAP1 PUSH2 0x2842 JUMP JUMPDEST SWAP6 POP PUSH2 0x1B7E DUP2 PUSH2 0x1B66 DUP6 PUSH2 0x1B66 PUSH2 0xFFA JUMP JUMPDEST SWAP5 POP POP POP POP POP SWAP1 SWAP2 JUMP JUMPDEST PUSH32 0x0 DUP2 JUMP JUMPDEST PUSH32 0x0 DUP2 JUMP JUMPDEST PUSH1 0x0 DUP1 PUSH1 0x2 PUSH1 0x6 SLOAD EQ ISZERO PUSH2 0x1C2B JUMPI PUSH1 0x40 DUP1 MLOAD PUSH3 0x461BCD PUSH1 0xE5 SHL DUP2 MSTORE PUSH1 0x20 PUSH1 0x4 DUP3 ADD MSTORE PUSH1 0x1F PUSH1 0x24 DUP3 ADD MSTORE PUSH32 0x5265656E7472616E637947756172643A207265656E7472616E742063616C6C00 PUSH1 0x44 DUP3 ADD MSTORE SWAP1 MLOAD SWAP1 DUP2 SWAP1 SUB PUSH1 0x64 ADD SWAP1 REVERT JUMPDEST PUSH1 0x2 PUSH1 0x6 SSTORE DUP6 PUSH2 0x1C6B JUMPI PUSH1 0x40 DUP1 MLOAD PUSH3 0x461BCD PUSH1 0xE5 SHL DUP2 MSTORE PUSH1 0x20 PUSH1 0x4 DUP3 ADD MSTORE PUSH1 0x6 PUSH1 0x24 DUP3 ADD MSTORE PUSH6 0x736861726573 PUSH1 0xD0 SHL PUSH1 0x44 DUP3 ADD MSTORE SWAP1 MLOAD SWAP1 DUP2 SWAP1 SUB PUSH1 0x64 ADD SWAP1 REVERT JUMPDEST PUSH1 0x1 PUSH1 0x1 PUSH1 0xA0 SHL SUB DUP4 AND ISZERO DUP1 ISZERO SWAP1 PUSH2 0x1C8C JUMPI POP PUSH1 0x1 PUSH1 0x1 PUSH1 0xA0 SHL SUB DUP4 AND ADDRESS EQ ISZERO JUMPDEST PUSH2 0x1CC2 JUMPI PUSH1 0x40 DUP1 MLOAD PUSH3 0x461BCD PUSH1 0xE5 SHL DUP2 MSTORE PUSH1 0x20 PUSH1 0x4 DUP3 ADD MSTORE PUSH1 0x2 PUSH1 0x24 DUP3 ADD MSTORE PUSH2 0x746F PUSH1 0xF0 SHL PUSH1 0x44 DUP3 ADD MSTORE SWAP1 MLOAD SWAP1 DUP2 SWAP1 SUB PUSH1 0x64 ADD SWAP1 REVERT JUMPDEST PUSH1 0x0 PUSH2 0x1CCC PUSH2 0xA8E JUMP JUMPDEST SWAP1 POP PUSH2 0x1CD8 CALLER DUP9 PUSH2 0x3093 JUMP JUMPDEST PUSH1 0x0 PUSH2 0x1CF0 DUP3 PUSH2 0x1895 DUP11 PUSH2 0x1CEA PUSH2 0x10C5 JUMP JUMPDEST SWAP1 PUSH2 0x2FD3 JUMP JUMPDEST SWAP1 POP PUSH1 0x0 PUSH2 0x1D04 DUP4 PUSH2 0x1895 DUP12 PUSH2 0x1CEA PUSH2 0xFFA JUMP JUMPDEST PUSH1 0xB SLOAD SWAP1 SWAP2 POP PUSH1 0x0 SWAP1 DUP2 SWAP1 PUSH2 0x1D30 SWAP1 PUSH1 0x1 PUSH1 0xA0 SHL DUP2 DIV PUSH1 0x2 SWAP1 DUP2 SIGNEXTEND SWAP2 PUSH1 0x1 PUSH1 0xB8 SHL SWAP1 DIV SWAP1 SIGNEXTEND DUP14 DUP9 PUSH2 0x318F JUMP JUMPDEST PUSH1 0xB SLOAD SWAP2 SWAP4 POP SWAP2 POP PUSH1 0x0 SWAP1 DUP2 SWAP1 PUSH2 0x1D5E SWAP1 PUSH1 0x1 PUSH1 0xD0 SHL DUP2 DIV PUSH1 0x2 SWAP1 DUP2 SIGNEXTEND SWAP2 PUSH1 0x1 PUSH1 0xE8 SHL SWAP1 DIV SWAP1 SIGNEXTEND DUP16 DUP11 PUSH2 0x318F JUMP JUMPDEST SWAP1 SWAP3 POP SWAP1 POP PUSH2 0x1D71 DUP3 PUSH2 0x1B66 DUP9 DUP8 PUSH2 0x2842 JUMP JUMPDEST SWAP9 POP PUSH2 0x1D81 DUP2 PUSH2 0x1B66 DUP8 DUP7 PUSH2 0x2842 JUMP JUMPDEST SWAP8 POP DUP12 DUP10 LT ISZERO PUSH2 0x1DC5 JUMPI PUSH1 0x40 DUP1 MLOAD PUSH3 0x461BCD PUSH1 0xE5 SHL DUP2 MSTORE PUSH1 0x20 PUSH1 0x4 DUP3 ADD MSTORE PUSH1 0xA PUSH1 0x24 DUP3 ADD MSTORE PUSH10 0x30B6B7BAB73A1826B4B7 PUSH1 0xB1 SHL PUSH1 0x44 DUP3 ADD MSTORE SWAP1 MLOAD SWAP1 DUP2 SWAP1 SUB PUSH1 0x64 ADD SWAP1 REVERT JUMPDEST DUP11 DUP9 LT ISZERO PUSH2 0x1E07 JUMPI PUSH1 0x40 DUP1 MLOAD PUSH3 0x461BCD PUSH1 0xE5 SHL DUP2 MSTORE PUSH1 0x20 PUSH1 0x4 DUP3 ADD MSTORE PUSH1 0xA PUSH1 0x24 DUP3 ADD MSTORE PUSH10 0x30B6B7BAB73A18A6B4B7 PUSH1 0xB1 SHL PUSH1 0x44 DUP3 ADD MSTORE SWAP1 MLOAD SWAP1 DUP2 SWAP1 SUB PUSH1 0x64 ADD SWAP1 REVERT JUMPDEST DUP9 ISZERO PUSH2 0x1E41 JUMPI PUSH2 0x1E41 PUSH1 0x1 PUSH1 0x1 PUSH1 0xA0 SHL SUB PUSH32 0x0 AND DUP12 DUP12 PUSH2 0x21F8 JUMP JUMPDEST DUP8 ISZERO PUSH2 0x1E7B JUMPI PUSH2 0x1E7B PUSH1 0x1 PUSH1 0x1 PUSH1 0xA0 SHL SUB PUSH32 0x0 AND DUP12 DUP11 PUSH2 0x21F8 JUMP JUMPDEST PUSH1 0x40 DUP1 MLOAD DUP15 DUP2 MSTORE PUSH1 0x20 DUP2 ADD DUP12 SWAP1 MSTORE DUP1 DUP3 ADD DUP11 SWAP1 MSTORE SWAP1 MLOAD PUSH1 0x1 PUSH1 0x1 PUSH1 0xA0 SHL SUB DUP13 AND SWAP2 CALLER SWAP2 PUSH32 0xEBFF2602B3F468259E1E99F613FED6691F3A6526EFFE6EF3E768BA7AE7A36C4F SWAP2 DUP2 SWAP1 SUB PUSH1 0x60 ADD SWAP1 LOG3 POP POP POP POP POP POP POP PUSH1 0x1 PUSH1 0x6 DUP2 SWAP1 SSTORE POP SWAP5 POP SWAP5 SWAP3 POP POP POP JUMP JUMPDEST CALLER PUSH1 0x1 PUSH1 0x1 PUSH1 0xA0 SHL SUB PUSH32 0x0 AND EQ PUSH2 0x1F15 JUMPI PUSH1 0x0 DUP1 REVERT JUMPDEST DUP4 ISZERO PUSH2 0x1F4F JUMPI PUSH2 0x1F4F PUSH1 0x1 PUSH1 0x1 PUSH1 0xA0 SHL SUB PUSH32 0x0 AND CALLER DUP7 PUSH2 0x21F8 JUMP JUMPDEST DUP3 ISZERO PUSH2 0x1F89 JUMPI PUSH2 0x1F89 PUSH1 0x1 PUSH1 0x1 PUSH1 0xA0 SHL SUB PUSH32 0x0 AND CALLER DUP6 PUSH2 0x21F8 JUMP JUMPDEST POP POP POP POP JUMP JUMPDEST PUSH1 0xA SLOAD PUSH1 0x1 PUSH1 0x1 PUSH1 0xA0 SHL SUB AND CALLER EQ PUSH2 0x1FDB JUMPI PUSH1 0x40 DUP1 MLOAD PUSH3 0x461BCD PUSH1 0xE5 SHL DUP2 MSTORE PUSH1 0x20 PUSH1 0x4 DUP3 ADD MSTORE PUSH1 0xA PUSH1 0x24 DUP3 ADD MSTORE PUSH10 0x676F7665726E616E6365 PUSH1 0xB0 SHL PUSH1 0x44 DUP3 ADD MSTORE SWAP1 MLOAD SWAP1 DUP2 SWAP1 SUB PUSH1 0x64 ADD SWAP1 REVERT JUMPDEST PUSH32 0x0 PUSH1 0x1 PUSH1 0x1 PUSH1 0xA0 SHL SUB AND DUP4 PUSH1 0x1 PUSH1 0x1 PUSH1 0xA0 SHL SUB AND EQ ISZERO DUP1 ISZERO PUSH2 0x204F JUMPI POP PUSH32 0x0 PUSH1 0x1 PUSH1 0x1 PUSH1 0xA0 SHL SUB AND DUP4 PUSH1 0x1 PUSH1 0x1 PUSH1 0xA0 SHL SUB AND EQ ISZERO JUMPDEST PUSH2 0x2088 JUMPI PUSH1 0x40 DUP1 MLOAD PUSH3 0x461BCD PUSH1 0xE5 SHL DUP2 MSTORE PUSH1 0x20 PUSH1 0x4 DUP3 ADD MSTORE PUSH1 0x5 PUSH1 0x24 DUP3 ADD MSTORE PUSH5 0x3A37B5B2B7 PUSH1 0xD9 SHL PUSH1 0x44 DUP3 ADD MSTORE SWAP1 MLOAD SWAP1 DUP2 SWAP1 SUB PUSH1 0x64 ADD SWAP1 REVERT JUMPDEST PUSH2 0x97D PUSH1 0x1 PUSH1 0x1 PUSH1 0xA0 SHL SUB DUP5 AND DUP3 DUP5 PUSH2 0x21F8 JUMP JUMPDEST PUSH1 0x1 PUSH1 0x1 PUSH1 0xA0 SHL SUB SWAP2 DUP3 AND PUSH1 0x0 SWAP1 DUP2 MSTORE PUSH1 0x1 PUSH1 0x20 SWAP1 DUP2 MSTORE PUSH1 0x40 DUP1 DUP4 KECCAK256 SWAP4 SWAP1 SWAP5 AND DUP3 MSTORE SWAP2 SWAP1 SWAP2 MSTORE KECCAK256 SLOAD SWAP1 JUMP JUMPDEST PUSH1 0xC SLOAD DUP2 JUMP JUMPDEST PUSH1 0xB SLOAD PUSH1 0x1 PUSH1 0x1 PUSH1 0xA0 SHL SUB AND DUP2 JUMP JUMPDEST PUSH1 0xB SLOAD PUSH1 0x1 PUSH1 0xA0 SHL SWAP1 DIV PUSH1 0x2 SIGNEXTEND DUP2 JUMP JUMPDEST CALLER PUSH1 0x1 PUSH1 0x1 PUSH1 0xA0 SHL SUB PUSH32 0x0 AND EQ PUSH2 0x2121 JUMPI PUSH1 0x0 DUP1 REVERT JUMPDEST PUSH1 0x0 DUP5 SGT ISZERO PUSH2 0x215E JUMPI PUSH2 0x215E PUSH1 0x1 PUSH1 0x1 PUSH1 0xA0 SHL SUB PUSH32 0x0 AND CALLER DUP7 PUSH2 0x21F8 JUMP JUMPDEST PUSH1 0x0 DUP4 SGT ISZERO PUSH2 0x1F89 JUMPI PUSH2 0x1F89 PUSH1 0x1 PUSH1 0x1 PUSH1 0xA0 SHL SUB PUSH32 0x0 AND CALLER DUP6 PUSH2 0x21F8 JUMP JUMPDEST PUSH1 0x0 DUP3 DUP3 GT ISZERO PUSH2 0x21F2 JUMPI PUSH1 0x40 DUP1 MLOAD PUSH3 0x461BCD PUSH1 0xE5 SHL DUP2 MSTORE PUSH1 0x20 PUSH1 0x4 DUP3 ADD MSTORE PUSH1 0x1E PUSH1 0x24 DUP3 ADD MSTORE PUSH32 0x536166654D6174683A207375627472616374696F6E206F766572666C6F770000 PUSH1 0x44 DUP3 ADD MSTORE SWAP1 MLOAD SWAP1 DUP2 SWAP1 SUB PUSH1 0x64 ADD SWAP1 REVERT JUMPDEST POP SWAP1 SUB SWAP1 JUMP JUMPDEST PUSH1 0x40 DUP1 MLOAD PUSH1 0x1 PUSH1 0x1 PUSH1 0xA0 SHL SUB DUP5 AND PUSH1 0x24 DUP3 ADD MSTORE PUSH1 0x44 DUP1 DUP3 ADD DUP5 SWAP1 MSTORE DUP3 MLOAD DUP1 DUP4 SUB SWAP1 SWAP2 ADD DUP2 MSTORE PUSH1 0x64 SWAP1 SWAP2 ADD SWAP1 SWAP2 MSTORE PUSH1 0x20 DUP2 ADD DUP1 MLOAD PUSH1 0x1 PUSH1 0x1 PUSH1 0xE0 SHL SUB AND PUSH4 0xA9059CBB PUSH1 0xE0 SHL OR SWAP1 MSTORE PUSH2 0x97D SWAP1 DUP5 SWAP1 PUSH2 0x3235 JUMP JUMPDEST CALLER SWAP1 JUMP JUMPDEST PUSH1 0x1 PUSH1 0x1 PUSH1 0xA0 SHL SUB DUP4 AND PUSH2 0x2293 JUMPI PUSH1 0x40 MLOAD PUSH3 0x461BCD PUSH1 0xE5 SHL DUP2 MSTORE PUSH1 0x4 ADD DUP1 DUP1 PUSH1 0x20 ADD DUP3 DUP2 SUB DUP3 MSTORE PUSH1 0x24 DUP2 MSTORE PUSH1 0x20 ADD DUP1 PUSH2 0x3D3D PUSH1 0x24 SWAP2 CODECOPY PUSH1 0x40 ADD SWAP2 POP POP PUSH1 0x40 MLOAD DUP1 SWAP2 SUB SWAP1 REVERT JUMPDEST PUSH1 0x1 PUSH1 0x1 PUSH1 0xA0 SHL SUB DUP3 AND PUSH2 0x22D8 JUMPI PUSH1 0x40 MLOAD PUSH3 0x461BCD PUSH1 0xE5 SHL DUP2 MSTORE PUSH1 0x4 ADD DUP1 DUP1 PUSH1 0x20 ADD DUP3 DUP2 SUB DUP3 MSTORE PUSH1 0x22 DUP2 MSTORE PUSH1 0x20 ADD DUP1 PUSH2 0x3C40 PUSH1 0x22 SWAP2 CODECOPY PUSH1 0x40 ADD SWAP2 POP POP PUSH1 0x40 MLOAD DUP1 SWAP2 SUB SWAP1 REVERT JUMPDEST PUSH1 0x1 PUSH1 0x1 PUSH1 0xA0 SHL SUB DUP1 DUP5 AND PUSH1 0x0 DUP2 DUP2 MSTORE PUSH1 0x1 PUSH1 0x20 SWAP1 DUP2 MSTORE PUSH1 0x40 DUP1 DUP4 KECCAK256 SWAP5 DUP8 AND DUP1 DUP5 MSTORE SWAP5 DUP3 MSTORE SWAP2 DUP3 SWAP1 KECCAK256 DUP6 SWAP1 SSTORE DUP2 MLOAD DUP6 DUP2 MSTORE SWAP2 MLOAD PUSH32 0x8C5BE1E5EBEC7D5BD14F71427D1E84F3DD0314C0F7B2291E5B200AC8C7C3B925 SWAP3 DUP2 SWAP1 SUB SWAP1 SWAP2 ADD SWAP1 LOG3 POP POP POP JUMP JUMPDEST PUSH1 0x1 PUSH1 0x1 PUSH1 0xA0 SHL SUB DUP4 AND PUSH2 0x237F JUMPI PUSH1 0x40 MLOAD PUSH3 0x461BCD PUSH1 0xE5 SHL DUP2 MSTORE PUSH1 0x4 ADD DUP1 DUP1 PUSH1 0x20 ADD DUP3 DUP2 SUB DUP3 MSTORE PUSH1 0x25 DUP2 MSTORE PUSH1 0x20 ADD DUP1 PUSH2 0x3D18 PUSH1 0x25 SWAP2 CODECOPY PUSH1 0x40 ADD SWAP2 POP POP PUSH1 0x40 MLOAD DUP1 SWAP2 SUB SWAP1 REVERT JUMPDEST PUSH1 0x1 PUSH1 0x1 PUSH1 0xA0 SHL SUB DUP3 AND PUSH2 0x23C4 JUMPI PUSH1 0x40 MLOAD PUSH3 0x461BCD PUSH1 0xE5 SHL DUP2 MSTORE PUSH1 0x4 ADD DUP1 DUP1 PUSH1 0x20 ADD DUP3 DUP2 SUB DUP3 MSTORE PUSH1 0x23 DUP2 MSTORE PUSH1 0x20 ADD DUP1 PUSH2 0x3BFB PUSH1 0x23 SWAP2 CODECOPY PUSH1 0x40 ADD SWAP2 POP POP PUSH1 0x40 MLOAD DUP1 SWAP2 SUB SWAP1 REVERT JUMPDEST PUSH2 0x23CF DUP4 DUP4 DUP4 PUSH2 0x97D JUMP JUMPDEST PUSH2 0x240C DUP2 PUSH1 0x40 MLOAD DUP1 PUSH1 0x60 ADD PUSH1 0x40 MSTORE DUP1 PUSH1 0x26 DUP2 MSTORE PUSH1 0x20 ADD PUSH2 0x3C62 PUSH1 0x26 SWAP2 CODECOPY PUSH1 0x1 PUSH1 0x1 PUSH1 0xA0 SHL SUB DUP7 AND PUSH1 0x0 SWAP1 DUP2 MSTORE PUSH1 0x20 DUP2 SWAP1 MSTORE PUSH1 0x40 SWAP1 KECCAK256 SLOAD SWAP2 SWAP1 PUSH2 0x2495 JUMP JUMPDEST PUSH1 0x1 PUSH1 0x1 PUSH1 0xA0 SHL SUB DUP1 DUP6 AND PUSH1 0x0 SWAP1 DUP2 MSTORE PUSH1 0x20 DUP2 SWAP1 MSTORE PUSH1 0x40 DUP1 DUP3 KECCAK256 SWAP4 SWAP1 SWAP4 SSTORE SWAP1 DUP5 AND DUP2 MSTORE KECCAK256 SLOAD PUSH2 0x243B SWAP1 DUP3 PUSH2 0x2842 JUMP JUMPDEST PUSH1 0x1 PUSH1 0x1 PUSH1 0xA0 SHL SUB DUP1 DUP5 AND PUSH1 0x0 DUP2 DUP2 MSTORE PUSH1 0x20 DUP2 DUP2 MSTORE PUSH1 0x40 SWAP2 DUP3 SWAP1 KECCAK256 SWAP5 SWAP1 SWAP5 SSTORE DUP1 MLOAD DUP6 DUP2 MSTORE SWAP1 MLOAD SWAP2 SWAP4 SWAP3 DUP8 AND SWAP3 PUSH32 0xDDF252AD1BE2C89B69C2B068FC378DAA952BA7F163C4A11628F55A4DF523B3EF SWAP3 SWAP2 DUP3 SWAP1 SUB ADD SWAP1 LOG3 POP POP POP JUMP JUMPDEST PUSH1 0x0 DUP2 DUP5 DUP5 GT ISZERO PUSH2 0x2524 JUMPI PUSH1 0x40 MLOAD PUSH3 0x461BCD PUSH1 0xE5 SHL DUP2 MSTORE PUSH1 0x4 ADD DUP1 DUP1 PUSH1 0x20 ADD DUP3 DUP2 SUB DUP3 MSTORE DUP4 DUP2 DUP2 MLOAD DUP2 MSTORE PUSH1 0x20 ADD SWAP2 POP DUP1 MLOAD SWAP1 PUSH1 0x20 ADD SWAP1 DUP1 DUP4 DUP4 PUSH1 0x0 JUMPDEST DUP4 DUP2 LT ISZERO PUSH2 0x24E9 JUMPI DUP2 DUP2 ADD MLOAD DUP4 DUP3 ADD MSTORE PUSH1 0x20 ADD PUSH2 0x24D1 JUMP JUMPDEST POP POP POP POP SWAP1 POP SWAP1 DUP2 ADD SWAP1 PUSH1 0x1F AND DUP1 ISZERO PUSH2 0x2516 JUMPI DUP1 DUP3 SUB DUP1 MLOAD PUSH1 0x1 DUP4 PUSH1 0x20 SUB PUSH2 0x100 EXP SUB NOT AND DUP2 MSTORE PUSH1 0x20 ADD SWAP2 POP JUMPDEST POP SWAP3 POP POP POP PUSH1 0x40 MLOAD DUP1 SWAP2 SUB SWAP1 REVERT JUMPDEST POP POP POP SWAP1 SUB SWAP1 JUMP JUMPDEST PUSH1 0x0 PUSH2 0x2538 DUP4 DUP4 PUSH2 0x2A7C JUMP JUMPDEST POP POP POP POP SWAP1 POP PUSH1 0x0 DUP2 PUSH1 0x1 PUSH1 0x1 PUSH1 0x80 SHL SUB AND GT ISZERO PUSH2 0x97D JUMPI PUSH32 0x0 PUSH1 0x1 PUSH1 0x1 PUSH1 0xA0 SHL SUB AND PUSH4 0xA34123A7 DUP5 DUP5 PUSH1 0x0 PUSH1 0x40 MLOAD DUP5 PUSH4 0xFFFFFFFF AND PUSH1 0xE0 SHL DUP2 MSTORE PUSH1 0x4 ADD DUP1 DUP5 PUSH1 0x2 SIGNEXTEND DUP2 MSTORE PUSH1 0x20 ADD DUP4 PUSH1 0x2 SIGNEXTEND DUP2 MSTORE PUSH1 0x20 ADD DUP3 DUP2 MSTORE PUSH1 0x20 ADD SWAP4 POP POP POP POP PUSH1 0x40 DUP1 MLOAD DUP1 DUP4 SUB DUP2 PUSH1 0x0 DUP8 DUP1 EXTCODESIZE ISZERO DUP1 ISZERO PUSH2 0x1AC4 JUMPI PUSH1 0x0 DUP1 REVERT JUMPDEST PUSH1 0x0 DUP1 PUSH1 0x0 DUP1 PUSH2 0x25DA PUSH2 0xA8E JUMP JUMPDEST SWAP1 POP PUSH1 0x0 DUP1 PUSH2 0x25E7 PUSH2 0x1AFB JUMP JUMPDEST SWAP2 POP SWAP2 POP DUP3 PUSH1 0x0 EQ DUP1 PUSH2 0x25FA JUMPI POP PUSH1 0x0 DUP3 GT JUMPDEST DUP1 PUSH2 0x2605 JUMPI POP PUSH1 0x0 DUP2 GT JUMPDEST PUSH2 0x260B JUMPI INVALID JUMPDEST DUP3 PUSH2 0x2627 JUMPI DUP8 SWAP5 POP DUP7 SWAP4 POP PUSH2 0x2620 DUP6 DUP6 PUSH2 0x32E6 JUMP JUMPDEST SWAP6 POP PUSH2 0x26EE JUMP JUMPDEST DUP2 PUSH2 0x263D JUMPI DUP7 SWAP4 POP PUSH2 0x2620 DUP2 PUSH2 0x1895 DUP7 DUP7 PUSH2 0x2FD3 JUMP JUMPDEST DUP1 PUSH2 0x2653 JUMPI DUP8 SWAP5 POP PUSH2 0x2620 DUP3 PUSH2 0x1895 DUP8 DUP7 PUSH2 0x2FD3 JUMP JUMPDEST PUSH1 0x0 PUSH2 0x2671 PUSH2 0x2662 DUP11 DUP5 PUSH2 0x2FD3 JUMP JUMPDEST PUSH2 0x266C DUP11 DUP7 PUSH2 0x2FD3 JUMP JUMPDEST PUSH2 0x32FD JUMP JUMPDEST SWAP1 POP PUSH1 0x0 DUP2 GT PUSH2 0x26B0 JUMPI PUSH1 0x40 DUP1 MLOAD PUSH3 0x461BCD PUSH1 0xE5 SHL DUP2 MSTORE PUSH1 0x20 PUSH1 0x4 DUP3 ADD MSTORE PUSH1 0x5 PUSH1 0x24 DUP3 ADD MSTORE PUSH5 0x63726F7373 PUSH1 0xD8 SHL PUSH1 0x44 DUP3 ADD MSTORE SWAP1 MLOAD SWAP1 DUP2 SWAP1 SUB PUSH1 0x64 ADD SWAP1 REVERT JUMPDEST PUSH2 0x26C3 PUSH1 0x1 PUSH2 0x1B66 DUP5 PUSH2 0x1895 DUP6 DUP5 PUSH2 0x219B JUMP JUMPDEST SWAP6 POP PUSH2 0x26D8 PUSH1 0x1 PUSH2 0x1B66 DUP6 PUSH2 0x1895 DUP6 DUP5 PUSH2 0x219B JUMP JUMPDEST SWAP5 POP PUSH2 0x26EA DUP3 PUSH2 0x1895 DUP6 DUP2 DUP6 DUP10 PUSH2 0x2FD3 JUMP JUMPDEST SWAP7 POP POP JUMPDEST POP POP POP SWAP3 POP SWAP3 POP SWAP3 JUMP JUMPDEST PUSH1 0x40 DUP1 MLOAD PUSH1 0x1 PUSH1 0x1 PUSH1 0xA0 SHL SUB DUP1 DUP7 AND PUSH1 0x24 DUP4 ADD MSTORE DUP5 AND PUSH1 0x44 DUP3 ADD MSTORE PUSH1 0x64 DUP1 DUP3 ADD DUP5 SWAP1 MSTORE DUP3 MLOAD DUP1 DUP4 SUB SWAP1 SWAP2 ADD DUP2 MSTORE PUSH1 0x84 SWAP1 SWAP2 ADD SWAP1 SWAP2 MSTORE PUSH1 0x20 DUP2 ADD DUP1 MLOAD PUSH1 0x1 PUSH1 0x1 PUSH1 0xE0 SHL SUB AND PUSH4 0x23B872DD PUSH1 0xE0 SHL OR SWAP1 MSTORE PUSH2 0x1F89 SWAP1 DUP6 SWAP1 PUSH2 0x3235 JUMP JUMPDEST PUSH1 0x1 PUSH1 0x1 PUSH1 0xA0 SHL SUB DUP3 AND PUSH2 0x27AD JUMPI PUSH1 0x40 DUP1 MLOAD PUSH3 0x461BCD PUSH1 0xE5 SHL DUP2 MSTORE PUSH1 0x20 PUSH1 0x4 DUP3 ADD MSTORE PUSH1 0x1F PUSH1 0x24 DUP3 ADD MSTORE PUSH32 0x45524332303A206D696E7420746F20746865207A65726F206164647265737300 PUSH1 0x44 DUP3 ADD MSTORE SWAP1 MLOAD SWAP1 DUP2 SWAP1 SUB PUSH1 0x64 ADD SWAP1 REVERT JUMPDEST PUSH2 0x27B9 PUSH1 0x0 DUP4 DUP4 PUSH2 0x97D JUMP JUMPDEST PUSH1 0x2 SLOAD PUSH2 0x27C6 SWAP1 DUP3 PUSH2 0x2842 JUMP JUMPDEST PUSH1 0x2 SSTORE PUSH1 0x1 PUSH1 0x1 PUSH1 0xA0 SHL SUB DUP3 AND PUSH1 0x0 SWAP1 DUP2 MSTORE PUSH1 0x20 DUP2 SWAP1 MSTORE PUSH1 0x40 SWAP1 KECCAK256 SLOAD PUSH2 0x27EC SWAP1 DUP3 PUSH2 0x2842 JUMP JUMPDEST PUSH1 0x1 PUSH1 0x1 PUSH1 0xA0 SHL SUB DUP4 AND PUSH1 0x0 DUP2 DUP2 MSTORE PUSH1 0x20 DUP2 DUP2 MSTORE PUSH1 0x40 DUP1 DUP4 KECCAK256 SWAP5 SWAP1 SWAP5 SSTORE DUP4 MLOAD DUP6 DUP2 MSTORE SWAP4 MLOAD SWAP3 SWAP4 SWAP2 SWAP3 PUSH32 0xDDF252AD1BE2C89B69C2B068FC378DAA952BA7F163C4A11628F55A4DF523B3EF SWAP3 DUP2 SWAP1 SUB SWAP1 SWAP2 ADD SWAP1 LOG3 POP POP JUMP JUMPDEST PUSH1 0x0 DUP3 DUP3 ADD DUP4 DUP2 LT ISZERO PUSH2 0xB7C JUMPI PUSH1 0x40 DUP1 MLOAD PUSH3 0x461BCD PUSH1 0xE5 SHL DUP2 MSTORE PUSH1 0x20 PUSH1 0x4 DUP3 ADD MSTORE PUSH1 0x1B PUSH1 0x24 DUP3 ADD MSTORE PUSH32 0x536166654D6174683A206164646974696F6E206F766572666C6F770000000000 PUSH1 0x44 DUP3 ADD MSTORE SWAP1 MLOAD SWAP1 DUP2 SWAP1 SUB PUSH1 0x64 ADD SWAP1 REVERT JUMPDEST PUSH32 0x0 PUSH1 0x2 DUP3 DUP2 SIGNEXTEND SWAP1 DUP5 SWAP1 SIGNEXTEND SLT PUSH2 0x2910 JUMPI PUSH1 0x40 DUP1 MLOAD PUSH3 0x461BCD PUSH1 0xE5 SHL DUP2 MSTORE PUSH1 0x20 PUSH1 0x4 DUP3 ADD MSTORE PUSH1 0x15 PUSH1 0x24 DUP3 ADD MSTORE PUSH21 0x3A34B1B5A637BBB2B9101E103A34B1B5AAB83832B9 PUSH1 0x59 SHL PUSH1 0x44 DUP3 ADD MSTORE SWAP1 MLOAD SWAP1 DUP2 SWAP1 SUB PUSH1 0x64 ADD SWAP1 REVERT JUMPDEST PUSH3 0xD89E7 NOT PUSH1 0x2 DUP5 SWAP1 SIGNEXTEND SLT ISZERO PUSH2 0x2961 JUMPI PUSH1 0x40 DUP1 MLOAD PUSH3 0x461BCD PUSH1 0xE5 SHL DUP2 MSTORE PUSH1 0x20 PUSH1 0x4 DUP3 ADD MSTORE PUSH1 0x11 PUSH1 0x24 DUP3 ADD MSTORE PUSH17 0x7469636B4C6F77657220746F6F206C6F77 PUSH1 0x78 SHL PUSH1 0x44 DUP3 ADD MSTORE SWAP1 MLOAD SWAP1 DUP2 SWAP1 SUB PUSH1 0x64 ADD SWAP1 REVERT JUMPDEST PUSH3 0xD89E8 PUSH1 0x2 DUP4 SWAP1 SIGNEXTEND SGT ISZERO PUSH2 0x29B2 JUMPI PUSH1 0x40 DUP1 MLOAD PUSH3 0x461BCD PUSH1 0xE5 SHL DUP2 MSTORE PUSH1 0x20 PUSH1 0x4 DUP3 ADD MSTORE PUSH1 0x12 PUSH1 0x24 DUP3 ADD MSTORE PUSH18 0xE8D2C6D6AAE0E0CAE440E8DEDE40D0D2CED PUSH1 0x73 SHL PUSH1 0x44 DUP3 ADD MSTORE SWAP1 MLOAD SWAP1 DUP2 SWAP1 SUB PUSH1 0x64 ADD SWAP1 REVERT JUMPDEST DUP1 PUSH1 0x2 SIGNEXTEND DUP4 PUSH1 0x2 SIGNEXTEND DUP2 PUSH2 0x29C1 JUMPI INVALID JUMPDEST SMOD PUSH1 0x2 SIGNEXTEND ISZERO PUSH2 0x2A17 JUMPI PUSH1 0x40 DUP1 MLOAD PUSH3 0x461BCD PUSH1 0xE5 SHL DUP2 MSTORE PUSH1 0x20 PUSH1 0x4 DUP3 ADD MSTORE PUSH1 0x17 PUSH1 0x24 DUP3 ADD MSTORE PUSH32 0x7469636B4C6F7765722025207469636B53706163696E67000000000000000000 PUSH1 0x44 DUP3 ADD MSTORE SWAP1 MLOAD SWAP1 DUP2 SWAP1 SUB PUSH1 0x64 ADD SWAP1 REVERT JUMPDEST DUP1 PUSH1 0x2 SIGNEXTEND DUP3 PUSH1 0x2 SIGNEXTEND DUP2 PUSH2 0x2A26 JUMPI INVALID JUMPDEST SMOD PUSH1 0x2 SIGNEXTEND ISZERO PUSH2 0x97D JUMPI PUSH1 0x40 DUP1 MLOAD PUSH3 0x461BCD PUSH1 0xE5 SHL DUP2 MSTORE PUSH1 0x20 PUSH1 0x4 DUP3 ADD MSTORE PUSH1 0x17 PUSH1 0x24 DUP3 ADD MSTORE PUSH32 0x7469636B55707065722025207469636B53706163696E67000000000000000000 PUSH1 0x44 DUP3 ADD MSTORE SWAP1 MLOAD SWAP1 DUP2 SWAP1 SUB PUSH1 0x64 ADD SWAP1 REVERT JUMPDEST PUSH1 0x0 DUP1 PUSH1 0x0 DUP1 PUSH1 0x0 DUP1 PUSH2 0x2A90 ADDRESS DUP10 DUP10 PUSH2 0x330C JUMP JUMPDEST SWAP1 POP PUSH32 0x0 PUSH1 0x1 PUSH1 0x1 PUSH1 0xA0 SHL SUB AND PUSH4 0x514EA4BF DUP3 PUSH1 0x40 MLOAD DUP3 PUSH4 0xFFFFFFFF AND PUSH1 0xE0 SHL DUP2 MSTORE PUSH1 0x4 ADD DUP1 DUP3 DUP2 MSTORE PUSH1 0x20 ADD SWAP2 POP POP PUSH1 0xA0 PUSH1 0x40 MLOAD DUP1 DUP4 SUB DUP2 DUP7 DUP1 EXTCODESIZE ISZERO DUP1 ISZERO PUSH2 0x2AF6 JUMPI PUSH1 0x0 DUP1 REVERT JUMPDEST POP GAS STATICCALL ISZERO DUP1 ISZERO PUSH2 0x2B0A JUMPI RETURNDATASIZE PUSH1 0x0 DUP1 RETURNDATACOPY RETURNDATASIZE PUSH1 0x0 REVERT JUMPDEST POP POP POP POP PUSH1 0x40 MLOAD RETURNDATASIZE PUSH1 0xA0 DUP2 LT ISZERO PUSH2 0x2B20 JUMPI PUSH1 0x0 DUP1 REVERT JUMPDEST POP DUP1 MLOAD PUSH1 0x20 DUP3 ADD MLOAD PUSH1 0x40 DUP4 ADD MLOAD PUSH1 0x60 DUP5 ADD MLOAD PUSH1 0x80 SWAP1 SWAP5 ADD MLOAD SWAP3 SWAP13 SWAP2 SWAP12 POP SWAP10 POP SWAP2 SWAP8 POP SWAP6 POP SWAP4 POP POP POP POP JUMP JUMPDEST PUSH1 0x0 DUP1 DUP1 DUP1 PUSH1 0x1 PUSH1 0x1 PUSH1 0x80 SHL SUB DUP6 AND ISZERO PUSH2 0x2C17 JUMPI PUSH1 0x40 DUP1 MLOAD PUSH4 0xA34123A7 PUSH1 0xE0 SHL DUP2 MSTORE PUSH1 0x2 DUP10 DUP2 SIGNEXTEND PUSH1 0x4 DUP4 ADD MSTORE DUP9 SWAP1 SIGNEXTEND PUSH1 0x24 DUP3 ADD MSTORE PUSH1 0x1 PUSH1 0x1 PUSH1 0x80 SHL SUB DUP8 AND PUSH1 0x44 DUP3 ADD MSTORE DUP2 MLOAD PUSH1 0x1 PUSH1 0x1 PUSH1 0xA0 SHL SUB PUSH32 0x0 AND SWAP3 PUSH4 0xA34123A7 SWAP3 PUSH1 0x64 DUP1 DUP3 ADD SWAP4 SWAP2 DUP3 SWAP1 SUB ADD DUP2 PUSH1 0x0 DUP8 DUP1 EXTCODESIZE ISZERO DUP1 ISZERO PUSH2 0x2BDE JUMPI PUSH1 0x0 DUP1 REVERT JUMPDEST POP GAS CALL ISZERO DUP1 ISZERO PUSH2 0x2BF2 JUMPI RETURNDATASIZE PUSH1 0x0 DUP1 RETURNDATACOPY RETURNDATASIZE PUSH1 0x0 REVERT JUMPDEST POP POP POP POP PUSH1 0x40 MLOAD RETURNDATASIZE PUSH1 0x40 DUP2 LT ISZERO PUSH2 0x2C08 JUMPI PUSH1 0x0 DUP1 REVERT JUMPDEST POP DUP1 MLOAD PUSH1 0x20 SWAP1 SWAP2 ADD MLOAD SWAP1 SWAP5 POP SWAP3 POP JUMPDEST PUSH1 0x40 DUP1 MLOAD PUSH4 0x9E3D67B PUSH1 0xE3 SHL DUP2 MSTORE ADDRESS PUSH1 0x4 DUP3 ADD MSTORE PUSH1 0x2 DUP10 DUP2 SIGNEXTEND PUSH1 0x24 DUP4 ADD MSTORE DUP9 SWAP1 SIGNEXTEND PUSH1 0x44 DUP3 ADD MSTORE PUSH1 0x1 PUSH1 0x1 PUSH1 0x80 SHL SUB PUSH1 0x64 DUP3 ADD DUP2 SWAP1 MSTORE PUSH1 0x84 DUP3 ADD MSTORE DUP2 MLOAD PUSH1 0x0 SWAP3 DUP4 SWAP3 PUSH1 0x1 PUSH1 0x1 PUSH1 0xA0 SHL SUB PUSH32 0x0 AND SWAP3 PUSH4 0x4F1EB3D8 SWAP3 PUSH1 0xA4 DUP1 DUP5 ADD SWAP4 SWAP2 SWAP3 SWAP2 DUP3 SWAP1 SUB ADD DUP2 DUP8 DUP8 DUP1 EXTCODESIZE ISZERO DUP1 ISZERO PUSH2 0x2CA7 JUMPI PUSH1 0x0 DUP1 REVERT JUMPDEST POP GAS CALL ISZERO DUP1 ISZERO PUSH2 0x2CBB JUMPI RETURNDATASIZE PUSH1 0x0 DUP1 RETURNDATACOPY RETURNDATASIZE PUSH1 0x0 REVERT JUMPDEST POP POP POP POP PUSH1 0x40 MLOAD RETURNDATASIZE PUSH1 0x40 DUP2 LT ISZERO PUSH2 0x2CD1 JUMPI PUSH1 0x0 DUP1 REVERT JUMPDEST POP DUP1 MLOAD PUSH1 0x20 SWAP1 SWAP2 ADD MLOAD PUSH1 0x1 PUSH1 0x1 PUSH1 0x80 SHL SUB SWAP2 DUP3 AND SWAP4 POP AND SWAP1 POP PUSH2 0x2CF4 DUP3 DUP8 PUSH2 0x219B JUMP JUMPDEST SWAP4 POP PUSH2 0x2D00 DUP2 DUP7 PUSH2 0x219B JUMP JUMPDEST PUSH1 0x7 SLOAD SWAP1 SWAP4 POP PUSH1 0x0 SWAP1 DUP2 SWAP1 DUP1 ISZERO PUSH2 0x2D71 JUMPI PUSH2 0x2D22 PUSH3 0xF4240 PUSH2 0x1895 DUP10 DUP5 PUSH2 0x2FD3 JUMP JUMPDEST SWAP3 POP PUSH2 0x2D35 PUSH3 0xF4240 PUSH2 0x1895 DUP9 DUP5 PUSH2 0x2FD3 JUMP JUMPDEST SWAP2 POP PUSH2 0x2D41 DUP8 DUP5 PUSH2 0x219B JUMP JUMPDEST SWAP7 POP PUSH2 0x2D4D DUP7 DUP4 PUSH2 0x219B JUMP JUMPDEST PUSH1 0xC SLOAD SWAP1 SWAP7 POP PUSH2 0x2D5D SWAP1 DUP5 PUSH2 0x2842 JUMP JUMPDEST PUSH1 0xC SSTORE PUSH1 0xD SLOAD PUSH2 0x2D6D SWAP1 DUP4 PUSH2 0x2842 JUMP JUMPDEST PUSH1 0xD SSTORE JUMPDEST PUSH1 0x40 DUP1 MLOAD DUP9 DUP2 MSTORE PUSH1 0x20 DUP2 ADD DUP9 SWAP1 MSTORE DUP1 DUP3 ADD DUP6 SWAP1 MSTORE PUSH1 0x60 DUP2 ADD DUP5 SWAP1 MSTORE SWAP1 MLOAD PUSH32 0x1AC56D7E866E3F5EA9AA92AA11758EAD39A0A5F013F3FEFB0F47CB9D008EDD27 SWAP2 DUP2 SWAP1 SUB PUSH1 0x80 ADD SWAP1 LOG1 POP POP POP POP POP SWAP4 POP SWAP4 POP SWAP4 POP SWAP4 JUMP JUMPDEST PUSH1 0x0 DUP1 PUSH32 0x0 PUSH1 0x1 PUSH1 0x1 PUSH1 0xA0 SHL SUB AND PUSH4 0x3850C7BD PUSH1 0x40 MLOAD DUP2 PUSH4 0xFFFFFFFF AND PUSH1 0xE0 SHL DUP2 MSTORE PUSH1 0x4 ADD PUSH1 0xE0 PUSH1 0x40 MLOAD DUP1 DUP4 SUB DUP2 DUP7 DUP1 EXTCODESIZE ISZERO DUP1 ISZERO PUSH2 0x2E22 JUMPI PUSH1 0x0 DUP1 REVERT JUMPDEST POP GAS STATICCALL ISZERO DUP1 ISZERO PUSH2 0x2E36 JUMPI RETURNDATASIZE PUSH1 0x0 DUP1 RETURNDATACOPY RETURNDATASIZE PUSH1 0x0 REVERT JUMPDEST POP POP POP POP PUSH1 0x40 MLOAD RETURNDATASIZE PUSH1 0xE0 DUP2 LT ISZERO PUSH2 0x2E4C JUMPI PUSH1 0x0 DUP1 REVERT JUMPDEST POP MLOAD SWAP1 POP PUSH2 0x2E6D DUP2 PUSH2 0x2E5D DUP9 PUSH2 0x3362 JUMP JUMPDEST PUSH2 0x2E66 DUP9 PUSH2 0x3362 JUMP JUMPDEST DUP8 DUP8 PUSH2 0x3694 JUMP JUMPDEST SWAP7 SWAP6 POP POP POP POP POP POP JUMP JUMPDEST PUSH1 0x1 PUSH1 0x1 PUSH1 0x80 SHL SUB DUP2 AND ISZERO PUSH2 0x97D JUMPI PUSH1 0x40 DUP1 MLOAD PUSH4 0x3C8A7D8D PUSH1 0xE0 SHL DUP2 MSTORE ADDRESS PUSH1 0x4 DUP3 ADD MSTORE PUSH1 0x2 DUP6 DUP2 SIGNEXTEND PUSH1 0x24 DUP4 ADD MSTORE DUP5 SWAP1 SIGNEXTEND PUSH1 0x44 DUP3 ADD MSTORE PUSH1 0x1 PUSH1 0x1 PUSH1 0x80 SHL SUB DUP4 AND PUSH1 0x64 DUP3 ADD MSTORE PUSH1 0xA0 PUSH1 0x84 DUP3 ADD MSTORE PUSH1 0x0 PUSH1 0xA4 DUP3 ADD DUP2 SWAP1 MSTORE DUP3 MLOAD PUSH1 0x1 PUSH1 0x1 PUSH1 0xA0 SHL SUB PUSH32 0x0 AND SWAP4 PUSH4 0x3C8A7D8D SWAP4 PUSH1 0xC4 DUP1 DUP3 ADD SWAP5 SWAP3 SWAP4 SWAP3 SWAP2 DUP4 SWAP1 SUB ADD SWAP1 DUP3 SWAP1 DUP8 DUP1 EXTCODESIZE ISZERO DUP1 ISZERO PUSH2 0x1AC4 JUMPI PUSH1 0x0 DUP1 REVERT JUMPDEST PUSH1 0x0 DUP1 PUSH1 0x0 PUSH32 0x0 PUSH1 0x1 PUSH1 0x1 PUSH1 0xA0 SHL SUB AND PUSH4 0x3850C7BD PUSH1 0x40 MLOAD DUP2 PUSH4 0xFFFFFFFF AND PUSH1 0xE0 SHL DUP2 MSTORE PUSH1 0x4 ADD PUSH1 0xE0 PUSH1 0x40 MLOAD DUP1 DUP4 SUB DUP2 DUP7 DUP1 EXTCODESIZE ISZERO DUP1 ISZERO PUSH2 0x2F7C JUMPI PUSH1 0x0 DUP1 REVERT JUMPDEST POP GAS STATICCALL ISZERO DUP1 ISZERO PUSH2 0x2F90 JUMPI RETURNDATASIZE PUSH1 0x0 DUP1 RETURNDATACOPY RETURNDATASIZE PUSH1 0x0 REVERT JUMPDEST POP POP POP POP PUSH1 0x40 MLOAD RETURNDATASIZE PUSH1 0xE0 DUP2 LT ISZERO PUSH2 0x2FA6 JUMPI PUSH1 0x0 DUP1 REVERT JUMPDEST POP MLOAD SWAP1 POP PUSH2 0x2FC6 DUP2 PUSH2 0x2FB7 DUP9 PUSH2 0x3362 JUMP JUMPDEST PUSH2 0x2FC0 DUP9 PUSH2 0x3362 JUMP JUMPDEST DUP8 PUSH2 0x3758 JUMP JUMPDEST SWAP3 POP SWAP3 POP POP SWAP4 POP SWAP4 SWAP2 POP POP JUMP JUMPDEST PUSH1 0x0 DUP3 PUSH2 0x2FE2 JUMPI POP PUSH1 0x0 PUSH2 0xA30 JUMP JUMPDEST DUP3 DUP3 MUL DUP3 DUP5 DUP3 DUP2 PUSH2 0x2FEF JUMPI INVALID JUMPDEST DIV EQ PUSH2 0xB7C JUMPI PUSH1 0x40 MLOAD PUSH3 0x461BCD PUSH1 0xE5 SHL DUP2 MSTORE PUSH1 0x4 ADD DUP1 DUP1 PUSH1 0x20 ADD DUP3 DUP2 SUB DUP3 MSTORE PUSH1 0x21 DUP2 MSTORE PUSH1 0x20 ADD DUP1 PUSH2 0x3CAE PUSH1 0x21 SWAP2 CODECOPY PUSH1 0x40 ADD SWAP2 POP POP PUSH1 0x40 MLOAD DUP1 SWAP2 SUB SWAP1 REVERT JUMPDEST PUSH1 0x0 DUP1 DUP3 GT PUSH2 0x3082 JUMPI PUSH1 0x40 DUP1 MLOAD PUSH3 0x461BCD PUSH1 0xE5 SHL DUP2 MSTORE PUSH1 0x20 PUSH1 0x4 DUP3 ADD MSTORE PUSH1 0x1A PUSH1 0x24 DUP3 ADD MSTORE PUSH32 0x536166654D6174683A206469766973696F6E206279207A65726F000000000000 PUSH1 0x44 DUP3 ADD MSTORE SWAP1 MLOAD SWAP1 DUP2 SWAP1 SUB PUSH1 0x64 ADD SWAP1 REVERT JUMPDEST DUP2 DUP4 DUP2 PUSH2 0x308B JUMPI INVALID JUMPDEST DIV SWAP4 SWAP3 POP POP POP JUMP JUMPDEST PUSH1 0x1 PUSH1 0x1 PUSH1 0xA0 SHL SUB DUP3 AND PUSH2 0x30D8 JUMPI PUSH1 0x40 MLOAD PUSH3 0x461BCD PUSH1 0xE5 SHL DUP2 MSTORE PUSH1 0x4 ADD DUP1 DUP1 PUSH1 0x20 ADD DUP3 DUP2 SUB DUP3 MSTORE PUSH1 0x21 DUP2 MSTORE PUSH1 0x20 ADD DUP1 PUSH2 0x3CF7 PUSH1 0x21 SWAP2 CODECOPY PUSH1 0x40 ADD SWAP2 POP POP PUSH1 0x40 MLOAD DUP1 SWAP2 SUB SWAP1 REVERT JUMPDEST PUSH2 0x30E4 DUP3 PUSH1 0x0 DUP4 PUSH2 0x97D JUMP JUMPDEST PUSH2 0x3121 DUP2 PUSH1 0x40 MLOAD DUP1 PUSH1 0x60 ADD PUSH1 0x40 MSTORE DUP1 PUSH1 0x22 DUP2 MSTORE PUSH1 0x20 ADD PUSH2 0x3C1E PUSH1 0x22 SWAP2 CODECOPY PUSH1 0x1 PUSH1 0x1 PUSH1 0xA0 SHL SUB DUP6 AND PUSH1 0x0 SWAP1 DUP2 MSTORE PUSH1 0x20 DUP2 SWAP1 MSTORE PUSH1 0x40 SWAP1 KECCAK256 SLOAD SWAP2 SWAP1 PUSH2 0x2495 JUMP JUMPDEST PUSH1 0x1 PUSH1 0x1 PUSH1 0xA0 SHL SUB DUP4 AND PUSH1 0x0 SWAP1 DUP2 MSTORE PUSH1 0x20 DUP2 SWAP1 MSTORE PUSH1 0x40 SWAP1 KECCAK256 SSTORE PUSH1 0x2 SLOAD PUSH2 0x3147 SWAP1 DUP3 PUSH2 0x219B JUMP JUMPDEST PUSH1 0x2 SSTORE PUSH1 0x40 DUP1 MLOAD DUP3 DUP2 MSTORE SWAP1 MLOAD PUSH1 0x0 SWAP2 PUSH1 0x1 PUSH1 0x1 PUSH1 0xA0 SHL SUB DUP6 AND SWAP2 PUSH32 0xDDF252AD1BE2C89B69C2B068FC378DAA952BA7F163C4A11628F55A4DF523B3EF SWAP2 DUP2 SWAP1 SUB PUSH1 0x20 ADD SWAP1 LOG3 POP POP JUMP JUMPDEST PUSH1 0x0 DUP1 PUSH1 0x0 PUSH2 0x319E DUP8 DUP8 PUSH2 0x2A7C JUMP JUMPDEST POP POP POP POP SWAP1 POP PUSH1 0x0 PUSH2 0x31C6 DUP6 PUSH2 0x1895 DUP9 DUP6 PUSH1 0x1 PUSH1 0x1 PUSH1 0x80 SHL SUB AND PUSH2 0x2FD3 SWAP1 SWAP2 SWAP1 PUSH4 0xFFFFFFFF AND JUMP JUMPDEST SWAP1 POP DUP1 ISZERO PUSH2 0x322A JUMPI PUSH1 0x0 DUP1 PUSH1 0x0 DUP1 PUSH2 0x31E7 DUP13 DUP13 PUSH2 0x31E2 DUP9 PUSH2 0x37F4 JUMP JUMPDEST PUSH2 0x2B4B JUMP JUMPDEST SWAP3 SWAP7 POP SWAP1 SWAP5 POP SWAP3 POP SWAP1 POP PUSH2 0x3209 PUSH2 0x3202 DUP11 PUSH2 0x1895 DUP6 DUP15 PUSH2 0x2FD3 JUMP JUMPDEST DUP6 SWAP1 PUSH2 0x2842 JUMP JUMPDEST SWAP8 POP PUSH2 0x3223 PUSH2 0x321C DUP11 PUSH2 0x1895 DUP5 DUP15 PUSH2 0x2FD3 JUMP JUMPDEST DUP5 SWAP1 PUSH2 0x2842 JUMP JUMPDEST SWAP7 POP POP POP POP POP JUMPDEST POP POP SWAP5 POP SWAP5 SWAP3 POP POP POP JUMP JUMPDEST PUSH1 0x0 PUSH2 0x328A DUP3 PUSH1 0x40 MLOAD DUP1 PUSH1 0x40 ADD PUSH1 0x40 MSTORE DUP1 PUSH1 0x20 DUP2 MSTORE PUSH1 0x20 ADD PUSH32 0x5361666545524332303A206C6F772D6C6576656C2063616C6C206661696C6564 DUP2 MSTORE POP DUP6 PUSH1 0x1 PUSH1 0x1 PUSH1 0xA0 SHL SUB AND PUSH2 0x380B SWAP1 SWAP3 SWAP2 SWAP1 PUSH4 0xFFFFFFFF AND JUMP JUMPDEST DUP1 MLOAD SWAP1 SWAP2 POP ISZERO PUSH2 0x97D JUMPI DUP1 DUP1 PUSH1 0x20 ADD SWAP1 MLOAD PUSH1 0x20 DUP2 LT ISZERO PUSH2 0x32A9 JUMPI PUSH1 0x0 DUP1 REVERT JUMPDEST POP MLOAD PUSH2 0x97D JUMPI PUSH1 0x40 MLOAD PUSH3 0x461BCD PUSH1 0xE5 SHL DUP2 MSTORE PUSH1 0x4 ADD DUP1 DUP1 PUSH1 0x20 ADD DUP3 DUP2 SUB DUP3 MSTORE PUSH1 0x2A DUP2 MSTORE PUSH1 0x20 ADD DUP1 PUSH2 0x3D61 PUSH1 0x2A SWAP2 CODECOPY PUSH1 0x40 ADD SWAP2 POP POP PUSH1 0x40 MLOAD DUP1 SWAP2 SUB SWAP1 REVERT JUMPDEST PUSH1 0x0 DUP2 DUP4 LT ISZERO PUSH2 0x32F6 JUMPI DUP2 PUSH2 0xB7C JUMP JUMPDEST POP SWAP1 SWAP2 SWAP1 POP JUMP JUMPDEST PUSH1 0x0 DUP2 DUP4 LT PUSH2 0x32F6 JUMPI DUP2 PUSH2 0xB7C JUMP JUMPDEST PUSH1 0x40 DUP1 MLOAD PUSH1 0x60 SWAP5 SWAP1 SWAP5 SHL PUSH12 0xFFFFFFFFFFFFFFFFFFFFFFFF NOT AND PUSH1 0x20 DUP1 DUP7 ADD SWAP2 SWAP1 SWAP2 MSTORE PUSH1 0x2 SWAP4 DUP5 SIGNEXTEND PUSH1 0xE8 SWAP1 DUP2 SHL PUSH1 0x34 DUP8 ADD MSTORE SWAP3 SWAP1 SWAP4 SIGNEXTEND SWAP1 SWAP2 SHL PUSH1 0x37 DUP5 ADD MSTORE DUP1 MLOAD DUP1 DUP5 SUB PUSH1 0x1A ADD DUP2 MSTORE PUSH1 0x3A SWAP1 SWAP4 ADD SWAP1 MSTORE DUP2 MLOAD SWAP2 ADD KECCAK256 SWAP1 JUMP JUMPDEST PUSH1 0x0 DUP1 PUSH1 0x0 DUP4 PUSH1 0x2 SIGNEXTEND SLT PUSH2 0x3379 JUMPI DUP3 PUSH1 0x2 SIGNEXTEND PUSH2 0x3381 JUMP JUMPDEST DUP3 PUSH1 0x2 SIGNEXTEND PUSH1 0x0 SUB JUMPDEST SWAP1 POP PUSH3 0xD89E8 DUP2 GT ISZERO PUSH2 0x33BF JUMPI PUSH1 0x40 DUP1 MLOAD PUSH3 0x461BCD PUSH1 0xE5 SHL DUP2 MSTORE PUSH1 0x20 PUSH1 0x4 DUP3 ADD MSTORE PUSH1 0x1 PUSH1 0x24 DUP3 ADD MSTORE PUSH1 0x15 PUSH1 0xFA SHL PUSH1 0x44 DUP3 ADD MSTORE SWAP1 MLOAD SWAP1 DUP2 SWAP1 SUB PUSH1 0x64 ADD SWAP1 REVERT JUMPDEST PUSH1 0x0 PUSH1 0x1 DUP3 AND PUSH2 0x33D3 JUMPI PUSH1 0x1 PUSH1 0x80 SHL PUSH2 0x33E5 JUMP JUMPDEST PUSH16 0xFFFCB933BD6FAD37AA2D162D1A594001 JUMPDEST PUSH17 0xFFFFFFFFFFFFFFFFFFFFFFFFFFFFFFFFFF AND SWAP1 POP PUSH1 0x2 DUP3 AND ISZERO PUSH2 0x3419 JUMPI PUSH16 0xFFF97272373D413259A46990580E213A MUL PUSH1 0x80 SHR JUMPDEST PUSH1 0x4 DUP3 AND ISZERO PUSH2 0x3438 JUMPI PUSH16 0xFFF2E50F5F656932EF12357CF3C7FDCC MUL PUSH1 0x80 SHR JUMPDEST PUSH1 0x8 DUP3 AND ISZERO PUSH2 0x3457 JUMPI PUSH16 0xFFE5CACA7E10E4E61C3624EAA0941CD0 MUL PUSH1 0x80 SHR JUMPDEST PUSH1 0x10 DUP3 AND ISZERO PUSH2 0x3476 JUMPI PUSH16 0xFFCB9843D60F6159C9DB58835C926644 MUL PUSH1 0x80 SHR JUMPDEST PUSH1 0x20 DUP3 AND ISZERO PUSH2 0x3495 JUMPI PUSH16 0xFF973B41FA98C081472E6896DFB254C0 MUL PUSH1 0x80 SHR JUMPDEST PUSH1 0x40 DUP3 AND ISZERO PUSH2 0x34B4 JUMPI PUSH16 0xFF2EA16466C96A3843EC78B326B52861 MUL PUSH1 0x80 SHR JUMPDEST PUSH1 0x80 DUP3 AND ISZERO PUSH2 0x34D3 JUMPI PUSH16 0xFE5DEE046A99A2A811C461F1969C3053 MUL PUSH1 0x80 SHR JUMPDEST PUSH2 0x100 DUP3 AND ISZERO PUSH2 0x34F3 JUMPI PUSH16 0xFCBE86C7900A88AEDCFFC83B479AA3A4 MUL PUSH1 0x80 SHR JUMPDEST PUSH2 0x200 DUP3 AND ISZERO PUSH2 0x3513 JUMPI PUSH16 0xF987A7253AC413176F2B074CF7815E54 MUL PUSH1 0x80 SHR JUMPDEST PUSH2 0x400 DUP3 AND ISZERO PUSH2 0x3533 JUMPI PUSH16 0xF3392B0822B70005940C7A398E4B70F3 MUL PUSH1 0x80 SHR JUMPDEST PUSH2 0x800 DUP3 AND ISZERO PUSH2 0x3553 JUMPI PUSH16 0xE7159475A2C29B7443B29C7FA6E889D9 MUL PUSH1 0x80 SHR JUMPDEST PUSH2 0x1000 DUP3 AND ISZERO PUSH2 0x3573 JUMPI PUSH16 0xD097F3BDFD2022B8845AD8F792AA5825 MUL PUSH1 0x80 SHR JUMPDEST PUSH2 0x2000 DUP3 AND ISZERO PUSH2 0x3593 JUMPI PUSH16 0xA9F746462D870FDF8A65DC1F90E061E5 MUL PUSH1 0x80 SHR JUMPDEST PUSH2 0x4000 DUP3 AND ISZERO PUSH2 0x35B3 JUMPI PUSH16 0x70D869A156D2A1B890BB3DF62BAF32F7 MUL PUSH1 0x80 SHR JUMPDEST PUSH2 0x8000 DUP3 AND ISZERO PUSH2 0x35D3 JUMPI PUSH16 0x31BE135F97D08FD981231505542FCFA6 MUL PUSH1 0x80 SHR JUMPDEST PUSH3 0x10000 DUP3 AND ISZERO PUSH2 0x35F4 JUMPI PUSH16 0x9AA508B5B7A84E1C677DE54F3E99BC9 MUL PUSH1 0x80 SHR JUMPDEST PUSH3 0x20000 DUP3 AND ISZERO PUSH2 0x3614 JUMPI PUSH15 0x5D6AF8DEDB81196699C329225EE604 MUL PUSH1 0x80 SHR JUMPDEST PUSH3 0x40000 DUP3 AND ISZERO PUSH2 0x3633 JUMPI PUSH14 0x2216E584F5FA1EA926041BEDFE98 MUL PUSH1 0x80 SHR JUMPDEST PUSH3 0x80000 DUP3 AND ISZERO PUSH2 0x3650 JUMPI PUSH12 0x48A170391F7DC42444E8FA2 MUL PUSH1 0x80 SHR JUMPDEST PUSH1 0x0 DUP5 PUSH1 0x2 SIGNEXTEND SGT ISZERO PUSH2 0x366B JUMPI DUP1 PUSH1 0x0 NOT DUP2 PUSH2 0x3667 JUMPI INVALID JUMPDEST DIV SWAP1 POP JUMPDEST PUSH5 0x100000000 DUP2 MOD ISZERO PUSH2 0x367F JUMPI PUSH1 0x1 PUSH2 0x3682 JUMP JUMPDEST PUSH1 0x0 JUMPDEST PUSH1 0xFF AND PUSH1 0x20 DUP3 SWAP1 SHR ADD SWAP3 POP POP POP SWAP2 SWAP1 POP JUMP JUMPDEST PUSH1 0x0 DUP4 PUSH1 0x1 PUSH1 0x1 PUSH1 0xA0 SHL SUB AND DUP6 PUSH1 0x1 PUSH1 0x1 PUSH1 0xA0 SHL SUB AND GT ISZERO PUSH2 0x36B4 JUMPI SWAP3 SWAP4 SWAP3 JUMPDEST DUP5 PUSH1 0x1 PUSH1 0x1 PUSH1 0xA0 SHL SUB AND DUP7 PUSH1 0x1 PUSH1 0x1 PUSH1 0xA0 SHL SUB AND GT PUSH2 0x36DF JUMPI PUSH2 0x36D8 DUP6 DUP6 DUP6 PUSH2 0x3822 JUMP JUMPDEST SWAP1 POP PUSH2 0x374F JUMP JUMPDEST DUP4 PUSH1 0x1 PUSH1 0x1 PUSH1 0xA0 SHL SUB AND DUP7 PUSH1 0x1 PUSH1 0x1 PUSH1 0xA0 SHL SUB AND LT ISZERO PUSH2 0x3741 JUMPI PUSH1 0x0 PUSH2 0x3706 DUP8 DUP7 DUP7 PUSH2 0x3822 JUMP JUMPDEST SWAP1 POP PUSH1 0x0 PUSH2 0x3715 DUP8 DUP10 DUP7 PUSH2 0x3885 JUMP JUMPDEST SWAP1 POP DUP1 PUSH1 0x1 PUSH1 0x1 PUSH1 0x80 SHL SUB AND DUP3 PUSH1 0x1 PUSH1 0x1 PUSH1 0x80 SHL SUB AND LT PUSH2 0x3736 JUMPI DUP1 PUSH2 0x3738 JUMP JUMPDEST DUP2 JUMPDEST SWAP3 POP POP POP PUSH2 0x374F JUMP JUMPDEST PUSH2 0x374C DUP6 DUP6 DUP5 PUSH2 0x3885 JUMP JUMPDEST SWAP1 POP JUMPDEST SWAP6 SWAP5 POP POP POP POP POP JUMP JUMPDEST PUSH1 0x0 DUP1 DUP4 PUSH1 0x1 PUSH1 0x1 PUSH1 0xA0 SHL SUB AND DUP6 PUSH1 0x1 PUSH1 0x1 PUSH1 0xA0 SHL SUB AND GT ISZERO PUSH2 0x3779 JUMPI SWAP3 SWAP4 SWAP3 JUMPDEST DUP5 PUSH1 0x1 PUSH1 0x1 PUSH1 0xA0 SHL SUB AND DUP7 PUSH1 0x1 PUSH1 0x1 PUSH1 0xA0 SHL SUB AND GT PUSH2 0x37A4 JUMPI PUSH2 0x379D DUP6 DUP6 DUP6 PUSH2 0x38C2 JUMP JUMPDEST SWAP2 POP PUSH2 0x37EB JUMP JUMPDEST DUP4 PUSH1 0x1 PUSH1 0x1 PUSH1 0xA0 SHL SUB AND DUP7 PUSH1 0x1 PUSH1 0x1 PUSH1 0xA0 SHL SUB AND LT ISZERO PUSH2 0x37DD JUMPI PUSH2 0x37C9 DUP7 DUP6 DUP6 PUSH2 0x38C2 JUMP JUMPDEST SWAP2 POP PUSH2 0x37D6 DUP6 DUP8 DUP6 PUSH2 0x392B JUMP JUMPDEST SWAP1 POP PUSH2 0x37EB JUMP JUMPDEST PUSH2 0x37E8 DUP6 DUP6 DUP6 PUSH2 0x392B JUMP JUMPDEST SWAP1 POP JUMPDEST SWAP5 POP SWAP5 SWAP3 POP POP POP JUMP JUMPDEST PUSH1 0x0 PUSH1 0x1 PUSH1 0x1 PUSH1 0x80 SHL SUB DUP3 GT ISZERO PUSH2 0x3807 JUMPI INVALID JUMPDEST POP SWAP1 JUMP JUMPDEST PUSH1 0x60 PUSH2 0x381A DUP5 DUP5 PUSH1 0x0 DUP6 PUSH2 0x396E JUMP JUMPDEST SWAP5 SWAP4 POP POP POP POP JUMP JUMPDEST PUSH1 0x0 DUP3 PUSH1 0x1 PUSH1 0x1 PUSH1 0xA0 SHL SUB AND DUP5 PUSH1 0x1 PUSH1 0x1 PUSH1 0xA0 SHL SUB AND GT ISZERO PUSH2 0x3842 JUMPI SWAP2 SWAP3 SWAP2 JUMPDEST PUSH1 0x0 PUSH2 0x3865 DUP6 PUSH1 0x1 PUSH1 0x1 PUSH1 0xA0 SHL SUB AND DUP6 PUSH1 0x1 PUSH1 0x1 PUSH1 0xA0 SHL SUB AND PUSH1 0x1 PUSH1 0x60 SHL PUSH2 0x3AC9 JUMP JUMPDEST SWAP1 POP PUSH2 0x374F PUSH2 0x3880 DUP5 DUP4 DUP9 DUP9 SUB PUSH1 0x1 PUSH1 0x1 PUSH1 0xA0 SHL SUB AND PUSH2 0x3AC9 JUMP JUMPDEST PUSH2 0x3B78 JUMP JUMPDEST PUSH1 0x0 DUP3 PUSH1 0x1 PUSH1 0x1 PUSH1 0xA0 SHL SUB AND DUP5 PUSH1 0x1 PUSH1 0x1 PUSH1 0xA0 SHL SUB AND GT ISZERO PUSH2 0x38A5 JUMPI SWAP2 SWAP3 SWAP2 JUMPDEST PUSH2 0x381A PUSH2 0x3880 DUP4 PUSH1 0x1 PUSH1 0x60 SHL DUP8 DUP8 SUB PUSH1 0x1 PUSH1 0x1 PUSH1 0xA0 SHL SUB AND PUSH2 0x3AC9 JUMP JUMPDEST PUSH1 0x0 DUP3 PUSH1 0x1 PUSH1 0x1 PUSH1 0xA0 SHL SUB AND DUP5 PUSH1 0x1 PUSH1 0x1 PUSH1 0xA0 SHL SUB AND GT ISZERO PUSH2 0x38E2 JUMPI SWAP2 SWAP3 SWAP2 JUMPDEST DUP4 PUSH1 0x1 PUSH1 0x1 PUSH1 0xA0 SHL SUB AND PUSH2 0x391B PUSH1 0x60 PUSH1 0xFF AND DUP5 PUSH1 0x1 PUSH1 0x1 PUSH1 0x80 SHL SUB AND SWAP1 SHL DUP7 DUP7 SUB PUSH1 0x1 PUSH1 0x1 PUSH1 0xA0 SHL SUB AND DUP7 PUSH1 0x1 PUSH1 0x1 PUSH1 0xA0 SHL SUB AND PUSH2 0x3AC9 JUMP JUMPDEST DUP2 PUSH2 0x3922 JUMPI INVALID JUMPDEST DIV SWAP5 SWAP4 POP POP POP POP JUMP JUMPDEST PUSH1 0x0 DUP3 PUSH1 0x1 PUSH1 0x1 PUSH1 0xA0 SHL SUB AND DUP5 PUSH1 0x1 PUSH1 0x1 PUSH1 0xA0 SHL SUB AND GT ISZERO PUSH2 0x394B JUMPI SWAP2 SWAP3 SWAP2 JUMPDEST PUSH2 0x381A DUP3 PUSH1 0x1 PUSH1 0x1 PUSH1 0x80 SHL SUB AND DUP6 DUP6 SUB PUSH1 0x1 PUSH1 0x1 PUSH1 0xA0 SHL SUB AND PUSH1 0x1 PUSH1 0x60 SHL PUSH2 0x3AC9 JUMP JUMPDEST PUSH1 0x60 DUP3 SELFBALANCE LT ISZERO PUSH2 0x39AF JUMPI PUSH1 0x40 MLOAD PUSH3 0x461BCD PUSH1 0xE5 SHL DUP2 MSTORE PUSH1 0x4 ADD DUP1 DUP1 PUSH1 0x20 ADD DUP3 DUP2 SUB DUP3 MSTORE PUSH1 0x26 DUP2 MSTORE PUSH1 0x20 ADD DUP1 PUSH2 0x3C88 PUSH1 0x26 SWAP2 CODECOPY PUSH1 0x40 ADD SWAP2 POP POP PUSH1 0x40 MLOAD DUP1 SWAP2 SUB SWAP1 REVERT JUMPDEST PUSH2 0x39B8 DUP6 PUSH2 0x3B8E JUMP JUMPDEST PUSH2 0x3A09 JUMPI PUSH1 0x40 DUP1 MLOAD PUSH3 0x461BCD PUSH1 0xE5 SHL DUP2 MSTORE PUSH1 0x20 PUSH1 0x4 DUP3 ADD MSTORE PUSH1 0x1D PUSH1 0x24 DUP3 ADD MSTORE PUSH32 0x416464726573733A2063616C6C20746F206E6F6E2D636F6E7472616374000000 PUSH1 0x44 DUP3 ADD MSTORE SWAP1 MLOAD SWAP1 DUP2 SWAP1 SUB PUSH1 0x64 ADD SWAP1 REVERT JUMPDEST PUSH1 0x0 DUP1 DUP7 PUSH1 0x1 PUSH1 0x1 PUSH1 0xA0 SHL SUB AND DUP6 DUP8 PUSH1 0x40 MLOAD DUP1 DUP3 DUP1 MLOAD SWAP1 PUSH1 0x20 ADD SWAP1 DUP1 DUP4 DUP4 JUMPDEST PUSH1 0x20 DUP4 LT PUSH2 0x3A47 JUMPI DUP1 MLOAD DUP3 MSTORE PUSH1 0x1F NOT SWAP1 SWAP3 ADD SWAP2 PUSH1 0x20 SWAP2 DUP3 ADD SWAP2 ADD PUSH2 0x3A28 JUMP JUMPDEST PUSH1 0x1 DUP4 PUSH1 0x20 SUB PUSH2 0x100 EXP SUB DUP1 NOT DUP3 MLOAD AND DUP2 DUP5 MLOAD AND DUP1 DUP3 OR DUP6 MSTORE POP POP POP POP POP POP SWAP1 POP ADD SWAP2 POP POP PUSH1 0x0 PUSH1 0x40 MLOAD DUP1 DUP4 SUB DUP2 DUP6 DUP8 GAS CALL SWAP3 POP POP POP RETURNDATASIZE DUP1 PUSH1 0x0 DUP2 EQ PUSH2 0x3AA9 JUMPI PUSH1 0x40 MLOAD SWAP2 POP PUSH1 0x1F NOT PUSH1 0x3F RETURNDATASIZE ADD AND DUP3 ADD PUSH1 0x40 MSTORE RETURNDATASIZE DUP3 MSTORE RETURNDATASIZE PUSH1 0x0 PUSH1 0x20 DUP5 ADD RETURNDATACOPY PUSH2 0x3AAE JUMP JUMPDEST PUSH1 0x60 SWAP2 POP JUMPDEST POP SWAP2 POP SWAP2 POP PUSH2 0x3ABE DUP3 DUP3 DUP7 PUSH2 0x3B94 JUMP JUMPDEST SWAP8 SWAP7 POP POP POP POP POP POP POP JUMP JUMPDEST PUSH1 0x0 DUP1 DUP1 PUSH1 0x0 NOT DUP6 DUP8 MULMOD DUP7 DUP7 MUL SWAP3 POP DUP3 DUP2 LT SWAP1 DUP4 SWAP1 SUB SUB SWAP1 POP DUP1 PUSH2 0x3AFF JUMPI PUSH1 0x0 DUP5 GT PUSH2 0x3AF4 JUMPI PUSH1 0x0 DUP1 REVERT JUMPDEST POP DUP3 SWAP1 DIV SWAP1 POP PUSH2 0xB7C JUMP JUMPDEST DUP1 DUP5 GT PUSH2 0x3B0B JUMPI PUSH1 0x0 DUP1 REVERT JUMPDEST PUSH1 0x0 DUP5 DUP7 DUP9 MULMOD PUSH1 0x0 DUP7 DUP2 SUB DUP8 AND SWAP7 DUP8 SWAP1 DIV SWAP7 PUSH1 0x2 PUSH1 0x3 DUP10 MUL DUP2 XOR DUP1 DUP11 MUL DUP3 SUB MUL DUP1 DUP11 MUL DUP3 SUB MUL DUP1 DUP11 MUL DUP3 SUB MUL DUP1 DUP11 MUL DUP3 SUB MUL DUP1 DUP11 MUL DUP3 SUB MUL DUP1 DUP11 MUL SWAP1 SWAP2 SUB MUL SWAP2 DUP2 SWAP1 SUB DUP2 SWAP1 DIV PUSH1 0x1 ADD DUP7 DUP5 GT SWAP1 SWAP6 SUB SWAP5 SWAP1 SWAP5 MUL SWAP2 SWAP1 SWAP5 SUB SWAP3 SWAP1 SWAP3 DIV SWAP2 SWAP1 SWAP2 OR SWAP2 SWAP1 SWAP2 MUL SWAP2 POP POP SWAP4 SWAP3 POP POP POP JUMP JUMPDEST DUP1 PUSH1 0x1 PUSH1 0x1 PUSH1 0x80 SHL SUB DUP2 AND DUP2 EQ PUSH2 0x1154 JUMPI PUSH1 0x0 DUP1 REVERT JUMPDEST EXTCODESIZE ISZERO ISZERO SWAP1 JUMP JUMPDEST PUSH1 0x60 DUP4 ISZERO PUSH2 0x3BA3 JUMPI POP DUP2 PUSH2 0xB7C JUMP JUMPDEST DUP3 MLOAD ISZERO PUSH2 0x3BB3 JUMPI DUP3 MLOAD DUP1 DUP5 PUSH1 0x20 ADD REVERT JUMPDEST PUSH1 0x40 MLOAD PUSH3 0x461BCD PUSH1 0xE5 SHL DUP2 MSTORE PUSH1 0x20 PUSH1 0x4 DUP3 ADD DUP2 DUP2 MSTORE DUP5 MLOAD PUSH1 0x24 DUP5 ADD MSTORE DUP5 MLOAD DUP6 SWAP4 SWAP2 SWAP3 DUP4 SWAP3 PUSH1 0x44 ADD SWAP2 SWAP1 DUP6 ADD SWAP1 DUP1 DUP4 DUP4 PUSH1 0x0 DUP4 ISZERO PUSH2 0x24E9 JUMPI DUP2 DUP2 ADD MLOAD DUP4 DUP3 ADD MSTORE PUSH1 0x20 ADD PUSH2 0x24D1 JUMP INVALID GASLIMIT MSTORE NUMBER ORIGIN ADDRESS GASPRICE KECCAK256 PUSH21 0x72616E7366657220746F20746865207A65726F2061 PUSH5 0x6472657373 GASLIMIT MSTORE NUMBER ORIGIN ADDRESS GASPRICE KECCAK256 PUSH3 0x75726E KECCAK256 PUSH2 0x6D6F PUSH22 0x6E7420657863656564732062616C616E636545524332 ADDRESS GASPRICE KECCAK256 PUSH2 0x7070 PUSH19 0x6F766520746F20746865207A65726F20616464 PUSH19 0x65737345524332303A207472616E7366657220 PUSH2 0x6D6F PUSH22 0x6E7420657863656564732062616C616E636541646472 PUSH6 0x73733A20696E PUSH20 0x756666696369656E742062616C616E636520666F PUSH19 0x2063616C6C536166654D6174683A206D756C74 PUSH10 0x706C69636174696F6E20 PUSH16 0x766572666C6F7745524332303A207472 PUSH2 0x6E73 PUSH7 0x657220616D6F75 PUSH15 0x74206578636565647320616C6C6F77 PUSH2 0x6E63 PUSH6 0x45524332303A KECCAK256 PUSH3 0x75726E KECCAK256 PUSH7 0x726F6D20746865 KECCAK256 PUSH27 0x65726F206164647265737345524332303A207472616E7366657220 PUSH7 0x726F6D20746865 KECCAK256 PUSH27 0x65726F206164647265737345524332303A20617070726F76652066 PUSH19 0x6F6D20746865207A65726F2061646472657373 MSTORE8 PUSH2 0x6665 GASLIMIT MSTORE NUMBER ORIGIN ADDRESS GASPRICE KECCAK256 GASLIMIT MSTORE NUMBER ORIGIN ADDRESS KECCAK256 PUSH16 0x7065726174696F6E20646964206E6F74 KECCAK256 PUSH20 0x75636365656445524332303A2064656372656173 PUSH6 0x6420616C6C6F PUSH24 0x616E63652062656C6F77207A65726FA26469706673582212 KECCAK256 SWAP16 0xCA PUSH10 0xD377B75B18B467AF91D7 0xC2 0xC7 0xB2 SWAP7 GT 0xC5 0xDE EXP 0xEB ADD PUSH30 0xC4D12A44FB9547E564736F6C634300070600330000000000000000000000 ",
  "sha1": "7a6ff9a8fa259a5b611542aeb1cf8a1229a74349",
  "source": "// SPDX-License-Identifier: Unlicense\n\npragma solidity 0.7.6;\n\nimport \"@openzeppelin/contracts/math/Math.sol\";\nimport \"@openzeppelin/contracts/math/SafeMath.sol\";\nimport \"@openzeppelin/contracts/token/ERC20/ERC20.sol\";\nimport \"@openzeppelin/contracts/token/ERC20/IERC20.sol\";\nimport \"@openzeppelin/contracts/token/ERC20/SafeERC20.sol\";\nimport \"@openzeppelin/contracts/utils/ReentrancyGuard.sol\";\nimport \"@uniswap/v3-core/contracts/interfaces/callback/IUniswapV3MintCallback.sol\";\nimport \"@uniswap/v3-core/contracts/interfaces/callback/IUniswapV3SwapCallback.sol\";\nimport \"@uniswap/v3-core/contracts/interfaces/IUniswapV3Pool.sol\";\nimport \"@uniswap/v3-core/contracts/libraries/TickMath.sol\";\nimport \"@uniswap/v3-periphery/contracts/libraries/LiquidityAmounts.sol\";\nimport \"@uniswap/v3-periphery/contracts/libraries/PositionKey.sol\";\n\nimport \"../interfaces/IVault.sol\";\n\n/**\n * @title   Alpha Vault\n * @notice  A vault that provides liquidity on Uniswap V3.\n */\ncontract AlphaVault is\n    IVault,\n    IUniswapV3MintCallback,\n    IUniswapV3SwapCallback,\n    ERC20,\n    ReentrancyGuard\n{\n    using SafeERC20 for IERC20;\n    using SafeMath for uint256;\n\n    event Deposit(\n        address indexed sender,\n        address indexed to,\n        uint256 shares,\n        uint256 amount0,\n        uint256 amount1\n    );\n\n    event Withdraw(\n        address indexed sender,\n        address indexed to,\n        uint256 shares,\n        uint256 amount0,\n        uint256 amount1\n    );\n\n    event CollectFees(\n        uint256 feesToVault0,\n        uint256 feesToVault1,\n        uint256 feesToProtocol0,\n        uint256 feesToProtocol1\n    );\n\n    event Snapshot(int24 tick, uint256 totalAmount0, uint256 totalAmount1, uint256 totalSupply);\n\n    IUniswapV3Pool public immutable pool;\n    IERC20 public immutable token0;\n    IERC20 public immutable token1;\n    int24 public immutable tickSpacing;\n\n    uint256 public protocolFee;\n    uint256 public maxTotalSupply;\n    address public strategy;\n    address public governance;\n    address public pendingGovernance;\n\n    int24 public baseLower;\n    int24 public baseUpper;\n    int24 public limitLower;\n    int24 public limitUpper;\n    uint256 public accruedProtocolFees0;\n    uint256 public accruedProtocolFees1;\n\n    /**\n     * @dev After deploying, strategy needs to be set via `setStrategy()`\n     * @param _pool Underlying Uniswap V3 pool\n     * @param _protocolFee Protocol fee expressed as multiple of 1e-6\n     * @param _maxTotalSupply Cap on total supply\n     */\n    constructor(\n        address _pool,\n        uint256 _protocolFee,\n        uint256 _maxTotalSupply\n    ) ERC20(\"Alpha Vault\", \"AV\") {\n        pool = IUniswapV3Pool(_pool);\n        token0 = IERC20(IUniswapV3Pool(_pool).token0());\n        token1 = IERC20(IUniswapV3Pool(_pool).token1());\n        tickSpacing = IUniswapV3Pool(_pool).tickSpacing();\n\n        protocolFee = _protocolFee;\n        maxTotalSupply = _maxTotalSupply;\n        governance = msg.sender;\n\n        require(_protocolFee < 1e6, \"protocolFee\");\n    }\n\n    /**\n     * @notice Deposits tokens in proportion to the vault's current holdings.\n     * @dev These tokens sit in the vault and are not used for liquidity on\n     * Uniswap until the next rebalance. Also note it's not necessary to check\n     * if user manipulated price to deposit cheaper, as the value of range\n     * orders can only by manipulated higher.\n     * @param amount0Desired Max amount of token0 to deposit\n     * @param amount1Desired Max amount of token1 to deposit\n     * @param amount0Min Revert if resulting `amount0` is less than this\n     * @param amount1Min Revert if resulting `amount1` is less than this\n     * @param to Recipient of shares\n     * @return shares Number of shares minted\n     * @return amount0 Amount of token0 deposited\n     * @return amount1 Amount of token1 deposited\n     */\n    function deposit(\n        uint256 amount0Desired,\n        uint256 amount1Desired,\n        uint256 amount0Min,\n        uint256 amount1Min,\n        address to\n    )\n        external\n        override\n        nonReentrant\n        returns (\n            uint256 shares,\n            uint256 amount0,\n            uint256 amount1\n        )\n    {\n        require(amount0Desired > 0 || amount1Desired > 0, \"amount0Desired or amount1Desired\");\n        require(to != address(0) && to != address(this), \"to\");\n\n        // Poke positions so vault's current holdings are up-to-date\n        _poke(baseLower, baseUpper);\n        _poke(limitLower, limitUpper);\n\n        // Calculate amounts proportional to vault's holdings\n        (shares, amount0, amount1) = _calcSharesAndAmounts(amount0Desired, amount1Desired);\n        require(shares > 0, \"shares\");\n        require(amount0 >= amount0Min, \"amount0Min\");\n        require(amount1 >= amount1Min, \"amount1Min\");\n\n        // Pull in tokens from sender\n        if (amount0 > 0) token0.safeTransferFrom(msg.sender, address(this), amount0);\n        if (amount1 > 0) token1.safeTransferFrom(msg.sender, address(this), amount1);\n\n        // Mint shares to recipient\n        _mint(to, shares);\n        emit Deposit(msg.sender, to, shares, amount0, amount1);\n        require(totalSupply() <= maxTotalSupply, \"maxTotalSupply\");\n    }\n\n    /// @dev Do zero-burns to poke a position on Uniswap so earned fees are\n    /// updated. Should be called if total amounts needs to include up-to-date\n    /// fees.\n    function _poke(int24 tickLower, int24 tickUpper) internal {\n        (uint128 liquidity, , , , ) = _position(tickLower, tickUpper);\n        if (liquidity > 0) {\n            pool.burn(tickLower, tickUpper, 0);\n        }\n    }\n\n    /// @dev Calculates the largest possible `amount0` and `amount1` such that\n    /// they're in the same proportion as total amounts, but not greater than\n    /// `amount0Desired` and `amount1Desired` respectively.\n    function _calcSharesAndAmounts(uint256 amount0Desired, uint256 amount1Desired)\n        internal\n        view\n        returns (\n            uint256 shares,\n            uint256 amount0,\n            uint256 amount1\n        )\n    {\n        uint256 totalSupply = totalSupply();\n        (uint256 total0, uint256 total1) = getTotalAmounts();\n\n        // If total supply > 0, vault can't be empty\n        assert(totalSupply == 0 || total0 > 0 || total1 > 0);\n\n        if (totalSupply == 0) {\n            // For first deposit, just use the amounts desired\n            amount0 = amount0Desired;\n            amount1 = amount1Desired;\n            shares = Math.max(amount0, amount1);\n        } else if (total0 == 0) {\n            amount1 = amount1Desired;\n            shares = amount1.mul(totalSupply).div(total1);\n        } else if (total1 == 0) {\n            amount0 = amount0Desired;\n            shares = amount0.mul(totalSupply).div(total0);\n        } else {\n            uint256 cross = Math.min(amount0Desired.mul(total1), amount1Desired.mul(total0));\n            require(cross > 0, \"cross\");\n\n            // Round up amounts\n            amount0 = cross.sub(1).div(total1).add(1);\n            amount1 = cross.sub(1).div(total0).add(1);\n            shares = cross.mul(totalSupply).div(total0).div(total1);\n        }\n    }\n\n    /**\n     * @notice Withdraws tokens in proportion to the vault's holdings.\n     * @param shares Shares burned by sender\n     * @param amount0Min Revert if resulting `amount0` is smaller than this\n     * @param amount1Min Revert if resulting `amount1` is smaller than this\n     * @param to Recipient of tokens\n     * @return amount0 Amount of token0 sent to recipient\n     * @return amount1 Amount of token1 sent to recipient\n     */\n    function withdraw(\n        uint256 shares,\n        uint256 amount0Min,\n        uint256 amount1Min,\n        address to\n    ) external override nonReentrant returns (uint256 amount0, uint256 amount1) {\n        require(shares > 0, \"shares\");\n        require(to != address(0) && to != address(this), \"to\");\n        uint256 totalSupply = totalSupply();\n\n        // Burn shares\n        _burn(msg.sender, shares);\n\n        // Calculate token amounts proportional to unused balances\n        uint256 unusedAmount0 = getBalance0().mul(shares).div(totalSupply);\n        uint256 unusedAmount1 = getBalance1().mul(shares).div(totalSupply);\n\n        // Withdraw proportion of liquidity from Uniswap pool\n        (uint256 baseAmount0, uint256 baseAmount1) =\n            _burnLiquidityShare(baseLower, baseUpper, shares, totalSupply);\n        (uint256 limitAmount0, uint256 limitAmount1) =\n            _burnLiquidityShare(limitLower, limitUpper, shares, totalSupply);\n\n        // Sum up total amounts owed to recipient\n        amount0 = unusedAmount0.add(baseAmount0).add(limitAmount0);\n        amount1 = unusedAmount1.add(baseAmount1).add(limitAmount1);\n        require(amount0 >= amount0Min, \"amount0Min\");\n        require(amount1 >= amount1Min, \"amount1Min\");\n\n        // Push tokens to recipient\n        if (amount0 > 0) token0.safeTransfer(to, amount0);\n        if (amount1 > 0) token1.safeTransfer(to, amount1);\n\n        emit Withdraw(msg.sender, to, shares, amount0, amount1);\n    }\n\n    /// @dev Withdraws share of liquidity in a range from Uniswap pool.\n    function _burnLiquidityShare(\n        int24 tickLower,\n        int24 tickUpper,\n        uint256 shares,\n        uint256 totalSupply\n    ) internal returns (uint256 amount0, uint256 amount1) {\n        (uint128 totalLiquidity, , , , ) = _position(tickLower, tickUpper);\n        uint256 liquidity = uint256(totalLiquidity).mul(shares).div(totalSupply);\n\n        if (liquidity > 0) {\n            (uint256 burned0, uint256 burned1, uint256 fees0, uint256 fees1) =\n                _burnAndCollect(tickLower, tickUpper, _toUint128(liquidity));\n\n            // Add share of fees\n            amount0 = burned0.add(fees0.mul(shares).div(totalSupply));\n            amount1 = burned1.add(fees1.mul(shares).div(totalSupply));\n        }\n    }\n\n    /**\n     * @notice Updates vault's positions. Can only be called by the strategy.\n     * @dev Two orders are placed - a base order and a limit order. The base\n     * order is placed first with as much liquidity as possible. This order\n     * should use up all of one token, leaving only the other one. This excess\n     * amount is then placed as a single-sided bid or ask order.\n     */\n    function rebalance(\n        int256 swapAmount,\n        uint160 sqrtPriceLimitX96,\n        int24 _baseLower,\n        int24 _baseUpper,\n        int24 _bidLower,\n        int24 _bidUpper,\n        int24 _askLower,\n        int24 _askUpper\n    ) external nonReentrant {\n        require(msg.sender == strategy, \"strategy\");\n        _checkRange(_baseLower, _baseUpper);\n        _checkRange(_bidLower, _bidUpper);\n        _checkRange(_askLower, _askUpper);\n\n        (, int24 tick, , , , , ) = pool.slot0();\n        require(_bidUpper <= tick, \"bidUpper\");\n        require(_askLower > tick, \"askLower\"); // inequality is strict as tick is rounded down\n\n        // Withdraw all current liquidity from Uniswap pool\n        {\n            (uint128 baseLiquidity, , , , ) = _position(baseLower, baseUpper);\n            (uint128 limitLiquidity, , , , ) = _position(limitLower, limitUpper);\n            _burnAndCollect(baseLower, baseUpper, baseLiquidity);\n            _burnAndCollect(limitLower, limitUpper, limitLiquidity);\n        }\n\n        // Emit snapshot to record balances and supply\n        uint256 balance0 = getBalance0();\n        uint256 balance1 = getBalance1();\n        emit Snapshot(tick, balance0, balance1, totalSupply());\n\n        if (swapAmount != 0) {\n            pool.swap(\n                address(this),\n                swapAmount > 0,\n                swapAmount > 0 ? swapAmount : -swapAmount,\n                sqrtPriceLimitX96,\n                \"\"\n            );\n            balance0 = getBalance0();\n            balance1 = getBalance1();\n        }\n\n        // Place base order on Uniswap\n        uint128 liquidity = _liquidityForAmounts(_baseLower, _baseUpper, balance0, balance1);\n        _mintLiquidity(_baseLower, _baseUpper, liquidity);\n        (baseLower, baseUpper) = (_baseLower, _baseUpper);\n\n        balance0 = getBalance0();\n        balance1 = getBalance1();\n\n        // Place bid or ask order on Uniswap depending on which token is left\n        uint128 bidLiquidity = _liquidityForAmounts(_bidLower, _bidUpper, balance0, balance1);\n        uint128 askLiquidity = _liquidityForAmounts(_askLower, _askUpper, balance0, balance1);\n        if (bidLiquidity > askLiquidity) {\n            _mintLiquidity(_bidLower, _bidUpper, bidLiquidity);\n            (limitLower, limitUpper) = (_bidLower, _bidUpper);\n        } else {\n            _mintLiquidity(_askLower, _askUpper, askLiquidity);\n            (limitLower, limitUpper) = (_askLower, _askUpper);\n        }\n    }\n\n    function _checkRange(int24 tickLower, int24 tickUpper) internal view {\n        int24 _tickSpacing = tickSpacing;\n        require(tickLower < tickUpper, \"tickLower < tickUpper\");\n        require(tickLower >= TickMath.MIN_TICK, \"tickLower too low\");\n        require(tickUpper <= TickMath.MAX_TICK, \"tickUpper too high\");\n        require(tickLower % _tickSpacing == 0, \"tickLower % tickSpacing\");\n        require(tickUpper % _tickSpacing == 0, \"tickUpper % tickSpacing\");\n    }\n\n    /// @dev Withdraws liquidity from a range and collects all fees in the\n    /// process.\n    function _burnAndCollect(\n        int24 tickLower,\n        int24 tickUpper,\n        uint128 liquidity\n    )\n        internal\n        returns (\n            uint256 burned0,\n            uint256 burned1,\n            uint256 feesToVault0,\n            uint256 feesToVault1\n        )\n    {\n        if (liquidity > 0) {\n            (burned0, burned1) = pool.burn(tickLower, tickUpper, liquidity);\n        }\n\n        // Collect all owed tokens including earned fees\n        (uint256 collect0, uint256 collect1) =\n            pool.collect(\n                address(this),\n                tickLower,\n                tickUpper,\n                type(uint128).max,\n                type(uint128).max\n            );\n\n        feesToVault0 = collect0.sub(burned0);\n        feesToVault1 = collect1.sub(burned1);\n        uint256 feesToProtocol0;\n        uint256 feesToProtocol1;\n\n        // Update accrued protocol fees\n        uint256 _protocolFee = protocolFee;\n        if (_protocolFee > 0) {\n            feesToProtocol0 = feesToVault0.mul(_protocolFee).div(1e6);\n            feesToProtocol1 = feesToVault1.mul(_protocolFee).div(1e6);\n            feesToVault0 = feesToVault0.sub(feesToProtocol0);\n            feesToVault1 = feesToVault1.sub(feesToProtocol1);\n            accruedProtocolFees0 = accruedProtocolFees0.add(feesToProtocol0);\n            accruedProtocolFees1 = accruedProtocolFees1.add(feesToProtocol1);\n        }\n        emit CollectFees(feesToVault0, feesToVault1, feesToProtocol0, feesToProtocol1);\n    }\n\n    /// @dev Deposits liquidity in a range on the Uniswap pool.\n    function _mintLiquidity(\n        int24 tickLower,\n        int24 tickUpper,\n        uint128 liquidity\n    ) internal {\n        if (liquidity > 0) {\n            pool.mint(address(this), tickLower, tickUpper, liquidity, \"\");\n        }\n    }\n\n    /**\n     * @notice Calculates the vault's total holdings of token0 and token1 - in\n     * other words, how much of each token the vault would hold if it withdrew\n     * all its liquidity from Uniswap.\n     */\n    function getTotalAmounts() public view override returns (uint256 total0, uint256 total1) {\n        (uint256 baseAmount0, uint256 baseAmount1) = getPositionAmounts(baseLower, baseUpper);\n        (uint256 limitAmount0, uint256 limitAmount1) =\n            getPositionAmounts(limitLower, limitUpper);\n        total0 = getBalance0().add(baseAmount0).add(limitAmount0);\n        total1 = getBalance1().add(baseAmount1).add(limitAmount1);\n    }\n\n    /**\n     * @notice Amounts of token0 and token1 held in vault's position. Includes\n     * owed fees but excludes the proportion of fees that will be paid to the\n     * protocol. Doesn't include fees accrued since last poke.\n     */\n    function getPositionAmounts(int24 tickLower, int24 tickUpper)\n        public\n        view\n        returns (uint256 amount0, uint256 amount1)\n    {\n        (uint128 liquidity, , , uint128 tokensOwed0, uint128 tokensOwed1) =\n            _position(tickLower, tickUpper);\n        (amount0, amount1) = _amountsForLiquidity(tickLower, tickUpper, liquidity);\n\n        // Subtract protocol fees\n        uint256 oneMinusFee = uint256(1e6).sub(protocolFee);\n        amount0 = amount0.add(uint256(tokensOwed0).mul(oneMinusFee).div(1e6));\n        amount1 = amount1.add(uint256(tokensOwed1).mul(oneMinusFee).div(1e6));\n    }\n\n    /**\n     * @notice Balance of token0 in vault not used in any position.\n     */\n    function getBalance0() public view returns (uint256) {\n        return token0.balanceOf(address(this)).sub(accruedProtocolFees0);\n    }\n\n    /**\n     * @notice Balance of token1 in vault not used in any position.\n     */\n    function getBalance1() public view returns (uint256) {\n        return token1.balanceOf(address(this)).sub(accruedProtocolFees1);\n    }\n\n    /// @dev Wrapper around `IUniswapV3Pool.positions()`.\n    function _position(int24 tickLower, int24 tickUpper)\n        internal\n        view\n        returns (\n            uint128,\n            uint256,\n            uint256,\n            uint128,\n            uint128\n        )\n    {\n        bytes32 positionKey = PositionKey.compute(address(this), tickLower, tickUpper);\n        return pool.positions(positionKey);\n    }\n\n    /// @dev Wrapper around `LiquidityAmounts.getAmountsForLiquidity()`.\n    function _amountsForLiquidity(\n        int24 tickLower,\n        int24 tickUpper,\n        uint128 liquidity\n    ) internal view returns (uint256, uint256) {\n        (uint160 sqrtRatioX96, , , , , , ) = pool.slot0();\n        return\n            LiquidityAmounts.getAmountsForLiquidity(\n                sqrtRatioX96,\n                TickMath.getSqrtRatioAtTick(tickLower),\n                TickMath.getSqrtRatioAtTick(tickUpper),\n                liquidity\n            );\n    }\n\n    /// @dev Wrapper around `LiquidityAmounts.getLiquidityForAmounts()`.\n    function _liquidityForAmounts(\n        int24 tickLower,\n        int24 tickUpper,\n        uint256 amount0,\n        uint256 amount1\n    ) internal view returns (uint128) {\n        (uint160 sqrtRatioX96, , , , , , ) = pool.slot0();\n        return\n            LiquidityAmounts.getLiquidityForAmounts(\n                sqrtRatioX96,\n                TickMath.getSqrtRatioAtTick(tickLower),\n                TickMath.getSqrtRatioAtTick(tickUpper),\n                amount0,\n                amount1\n            );\n    }\n\n    /// @dev Casts uint256 to uint128 with overflow check.\n    function _toUint128(uint256 x) internal pure returns (uint128) {\n        assert(x <= type(uint128).max);\n        return uint128(x);\n    }\n\n    /// @dev Callback for Uniswap V3 pool.\n    function uniswapV3MintCallback(\n        uint256 amount0,\n        uint256 amount1,\n        bytes calldata data\n    ) external override {\n        require(msg.sender == address(pool));\n        if (amount0 > 0) token0.safeTransfer(msg.sender, amount0);\n        if (amount1 > 0) token1.safeTransfer(msg.sender, amount1);\n    }\n\n    /// @dev Callback for Uniswap V3 pool.\n    function uniswapV3SwapCallback(\n        int256 amount0Delta,\n        int256 amount1Delta,\n        bytes calldata data\n    ) external override {\n        require(msg.sender == address(pool));\n        if (amount0Delta > 0) token0.safeTransfer(msg.sender, uint256(amount0Delta));\n        if (amount1Delta > 0) token1.safeTransfer(msg.sender, uint256(amount1Delta));\n    }\n\n    /**\n     * @notice Used to collect accumulated protocol fees.\n     */\n    function collectProtocol(\n        uint256 amount0,\n        uint256 amount1,\n        address to\n    ) external onlyGovernance {\n        accruedProtocolFees0 = accruedProtocolFees0.sub(amount0);\n        accruedProtocolFees1 = accruedProtocolFees1.sub(amount1);\n        if (amount0 > 0) token0.safeTransfer(to, amount0);\n        if (amount1 > 0) token1.safeTransfer(to, amount1);\n    }\n\n    /**\n     * @notice Removes tokens accidentally sent to this vault.\n     */\n    function sweep(\n        IERC20 token,\n        uint256 amount,\n        address to\n    ) external onlyGovernance {\n        require(token != token0 && token != token1, \"token\");\n        token.safeTransfer(to, amount);\n    }\n\n    /**\n     * @notice Used to set the strategy contract that determines the position\n     * ranges and calls rebalance(). Must be called after this vault is\n     * deployed.\n     */\n    function setStrategy(address _strategy) external onlyGovernance {\n        strategy = _strategy;\n    }\n\n    /**\n     * @notice Used to change the protocol fee charged on pool fees earned from\n     * Uniswap, expressed as multiple of 1e-6.\n     */\n    function setProtocolFee(uint256 _protocolFee) external onlyGovernance {\n        require(_protocolFee < 1e6, \"protocolFee\");\n        protocolFee = _protocolFee;\n    }\n\n    /**\n     * @notice Used to change deposit cap for a guarded launch or to ensure\n     * vault doesn't grow too large relative to the pool. Cap is on total\n     * supply rather than amounts of token0 and token1 as those amounts\n     * fluctuate naturally over time.\n     */\n    function setMaxTotalSupply(uint256 _maxTotalSupply) external onlyGovernance {\n        maxTotalSupply = _maxTotalSupply;\n    }\n\n    /**\n     * @notice Removes liquidity in case of emergency.\n     */\n    function emergencyBurn(\n        int24 tickLower,\n        int24 tickUpper,\n        uint128 liquidity\n    ) external onlyGovernance {\n        pool.burn(tickLower, tickUpper, liquidity);\n        pool.collect(address(this), tickLower, tickUpper, type(uint128).max, type(uint128).max);\n    }\n\n    /**\n     * @notice Governance address is not updated until the new governance\n     * address has called `acceptGovernance()` to accept this responsibility.\n     */\n    function setGovernance(address _governance) external onlyGovernance {\n        pendingGovernance = _governance;\n    }\n\n    /**\n     * @notice `setGovernance()` should be called by the existing governance\n     * address prior to calling this function.\n     */\n    function acceptGovernance() external {\n        require(msg.sender == pendingGovernance, \"pendingGovernance\");\n        governance = msg.sender;\n    }\n\n    modifier onlyGovernance {\n        require(msg.sender == governance, \"governance\");\n        _;\n    }\n}\n",
  "sourcePath": "contracts/AlphaVault.sol",
  "type": "contract"
}