{
  "abi": [
    {
      "inputs": [
        {
          "internalType": "address",
          "name": "_vault",
          "type": "address"
        },
        {
          "internalType": "int24",
          "name": "_baseThreshold",
          "type": "int24"
        },
        {
          "internalType": "int24",
          "name": "_limitThreshold",
          "type": "int24"
        },
        {
          "internalType": "int24",
          "name": "_maxTwapDeviation",
          "type": "int24"
        },
        {
          "internalType": "uint32",
          "name": "_twapDuration",
          "type": "uint32"
        },
        {
          "internalType": "address",
          "name": "_keeper",
          "type": "address"
        }
      ],
      "stateMutability": "nonpayable",
      "type": "constructor"
    },
    {
      "inputs": [],
      "name": "baseThreshold",
      "outputs": [
        {
          "internalType": "int24",
          "name": "",
          "type": "int24"
        }
      ],
      "stateMutability": "view",
      "type": "function"
    },
    {
      "inputs": [],
      "name": "getTick",
      "outputs": [
        {
          "internalType": "int24",
          "name": "tick",
          "type": "int24"
        }
      ],
      "stateMutability": "view",
      "type": "function"
    },
    {
      "inputs": [],
      "name": "getTwap",
      "outputs": [
        {
          "internalType": "int24",
          "name": "",
          "type": "int24"
        }
      ],
      "stateMutability": "view",
      "type": "function"
    },
    {
      "inputs": [],
      "name": "keeper",
      "outputs": [
        {
          "internalType": "address",
          "name": "",
          "type": "address"
        }
      ],
      "stateMutability": "view",
      "type": "function"
    },
    {
      "inputs": [],
      "name": "lastRebalance",
      "outputs": [
        {
          "internalType": "uint256",
          "name": "",
          "type": "uint256"
        }
      ],
      "stateMutability": "view",
      "type": "function"
    },
    {
      "inputs": [],
      "name": "lastTick",
      "outputs": [
        {
          "internalType": "int24",
          "name": "",
          "type": "int24"
        }
      ],
      "stateMutability": "view",
      "type": "function"
    },
    {
      "inputs": [],
      "name": "limitThreshold",
      "outputs": [
        {
          "internalType": "int24",
          "name": "",
          "type": "int24"
        }
      ],
      "stateMutability": "view",
      "type": "function"
    },
    {
      "inputs": [],
      "name": "maxTwapDeviation",
      "outputs": [
        {
          "internalType": "int24",
          "name": "",
          "type": "int24"
        }
      ],
      "stateMutability": "view",
      "type": "function"
    },
    {
      "inputs": [],
      "name": "pool",
      "outputs": [
        {
          "internalType": "contract IUniswapV3Pool",
          "name": "",
          "type": "address"
        }
      ],
      "stateMutability": "view",
      "type": "function"
    },
    {
      "inputs": [],
      "name": "rebalance",
      "outputs": [],
      "stateMutability": "nonpayable",
      "type": "function"
    },
    {
      "inputs": [
        {
          "internalType": "int24",
          "name": "_baseThreshold",
          "type": "int24"
        }
      ],
      "name": "setBaseThreshold",
      "outputs": [],
      "stateMutability": "nonpayable",
      "type": "function"
    },
    {
      "inputs": [
        {
          "internalType": "address",
          "name": "_keeper",
          "type": "address"
        }
      ],
      "name": "setKeeper",
      "outputs": [],
      "stateMutability": "nonpayable",
      "type": "function"
    },
    {
      "inputs": [
        {
          "internalType": "int24",
          "name": "_limitThreshold",
          "type": "int24"
        }
      ],
      "name": "setLimitThreshold",
      "outputs": [],
      "stateMutability": "nonpayable",
      "type": "function"
    },
    {
      "inputs": [
        {
          "internalType": "int24",
          "name": "_maxTwapDeviation",
          "type": "int24"
        }
      ],
      "name": "setMaxTwapDeviation",
      "outputs": [],
      "stateMutability": "nonpayable",
      "type": "function"
    },
    {
      "inputs": [
        {
          "internalType": "uint32",
          "name": "_twapDuration",
          "type": "uint32"
        }
      ],
      "name": "setTwapDuration",
      "outputs": [],
      "stateMutability": "nonpayable",
      "type": "function"
    },
    {
      "inputs": [],
      "name": "tickSpacing",
      "outputs": [
        {
          "internalType": "int24",
          "name": "",
          "type": "int24"
        }
      ],
      "stateMutability": "view",
      "type": "function"
    },
    {
      "inputs": [],
      "name": "twapDuration",
      "outputs": [
        {
          "internalType": "uint32",
          "name": "",
          "type": "uint32"
        }
      ],
      "stateMutability": "view",
      "type": "function"
    },
    {
      "inputs": [],
      "name": "vault",
      "outputs": [
        {
          "internalType": "contract AlphaVault",
          "name": "",
          "type": "address"
        }
      ],
      "stateMutability": "view",
      "type": "function"
    }
  ],
  "bytecode": "60e06040523480156200001157600080fd5b506040516200165d3803806200165d833981810160405260c08110156200003757600080fd5b5080516020808301516040808501516060860151608087015160a09097015183516316f0115b60e01b8152935196979496929591949390926000926001600160a01b038a16926316f0115b9260048083019392829003018186803b1580156200009f57600080fd5b505afa158015620000b4573d6000803e3d6000fd5b505050506040513d6020811015620000cb57600080fd5b5051604080516334324e9f60e21b815290519192506000916001600160a01b0384169163d0c93a7c916004808301926020929190829003018186803b1580156200011457600080fd5b505afa15801562000129573d6000803e3d6000fd5b505050506040513d60208110156200014057600080fd5b81019080805190602001909291905050509050876001600160a01b03166080816001600160a01b031660601b81525050816001600160a01b031660a0816001600160a01b031660601b815250508060020b60c08160020b60e81b81525050866000806101000a81548162ffffff021916908360020b62ffffff16021790555085600060036101000a81548162ffffff021916908360020b62ffffff16021790555084600060066101000a81548162ffffff021916908360020b62ffffff16021790555083600060096101000a81548163ffffffff021916908363ffffffff16021790555082600160006101000a8154816001600160a01b0302191690836001600160a01b031602179055506200025d87826200039760201b60201c565b62000269868262000397565b60008560020b13620002b5576040805162461bcd60e51b815260206004820152601060248201526f36b0bc2a3bb0b82232bb34b0ba34b7b760811b604482015290519081900360640190fd5b60008463ffffffff161162000300576040805162461bcd60e51b815260206004820152600c60248201526b3a3bb0b8223ab930ba34b7b760a11b604482015290519081900360640190fd5b816001600160a01b0316633850c7bd6040518163ffffffff1660e01b815260040160e06040518083038186803b1580156200033a57600080fd5b505afa1580156200034f573d6000803e3d6000fd5b505050506040513d60e08110156200036657600080fd5b50602001516003805460029290920b62ffffff1662ffffff19909216919091179055506200049d9650505050505050565b60008260020b13620003e0576040805162461bcd60e51b815260206004820152600d60248201526c07468726573686f6c64203e203609c1b604482015290519081900360640190fd5b620d89e8600283900b131562000432576040805162461bcd60e51b81526020600482015260126024820152710e8d0e4cae6d0ded8c840e8dede40d0d2ced60731b604482015290519081900360640190fd5b8060020b8260020b816200044257fe5b0760020b1562000499576040805162461bcd60e51b815260206004820152601760248201527f7468726573686f6c642025207469636b53706163696e67000000000000000000604482015290519081900360640190fd5b5050565b60805160601c60a05160601c60c05160e81c61113a620005236000398061085252806108c352806109f45280610bae5280610cdd5280610e6f5280610f5c5280610f9c5280610fdc5250806102a452806104d15280610e955250806102db52806106e25280610a555280610adc5280610c0b5280610d2b5280610f35525061113a6000f3fe608060405234801561001057600080fd5b50600436106101165760003560e01c8063a6329355116100a2578063c433c80a11610071578063c433c80a14610249578063d0c93a7c1461026c578063df8ad81414610274578063e7c7cb911461027c578063fbfa77cf1461028457610116565b8063a6329355146101f9578063a87bab9c14610219578063aced166114610221578063af7944801461022957610116565b80633cbff3fe116100e95780633cbff3fe146101995780633dfa5d87146101bb5780635d752a9a146101c3578063748747e6146101cb5780637d7c2a1c146101f157610116565b8063106b9ca11461011b57806316c3e29d1461013557806316f0115b1461015457806326d8954514610178575b600080fd5b61012361028c565b60408051918252519081900360200190f35b61013d610292565b6040805160029290920b8252519081900360200190f35b61015c6102a2565b604080516001600160a01b039092168252519081900360200190f35b6101806102c6565b6040805163ffffffff9092168252519081900360200190f35b6101b9600480360360208110156101af57600080fd5b503560020b6102d9565b005b61013d610420565b61013d610429565b6101b9600480360360208110156101e157600080fd5b50356001600160a01b03166106e0565b6101b96107d0565b6101b96004803603602081101561020f57600080fd5b503560020b610ada565b61013d610bf1565b61015c610bfa565b6101b96004803603602081101561023f57600080fd5b503560020b610c09565b6101b96004803603602081101561025f57600080fd5b503563ffffffff16610d29565b61013d610e6d565b61013d610e91565b61013d610f20565b61015c610f33565b60025481565b6000546301000000900460020b81565b7f000000000000000000000000000000000000000000000000000000000000000081565b600054600160481b900463ffffffff1681565b7f00000000000000000000000000000000000000000000000000000000000000006001600160a01b0316635aa6e6756040518163ffffffff1660e01b815260040160206040518083038186803b15801561033257600080fd5b505afa158015610346573d6000803e3d6000fd5b505050506040513d602081101561035c57600080fd5b50516001600160a01b031633146103a7576040805162461bcd60e51b815260206004820152600a602482015269676f7665726e616e636560b01b604482015290519081900360640190fd5b60008160020b136103f2576040805162461bcd60e51b815260206004820152601060248201526f36b0bc2a3bb0b82232bb34b0ba34b7b760811b604482015290519081900360640190fd5b6000805460029290920b62ffffff1666010000000000000268ffffff00000000000019909216919091179055565b60035460020b81565b60008054604080516002808252606082018352600160481b90930463ffffffff16928492602083019080368337019050509050818160008151811061046a57fe5b602002602001019063ffffffff16908163ffffffff168152505060008160018151811061049357fe5b63ffffffff90921660209283029190910182015260405163883bdbfd60e01b8152600481018281528351602483015283516000936001600160a01b037f0000000000000000000000000000000000000000000000000000000000000000169363883bdbfd938793909283926044019185820191028083838b5b8381101561052457818101518382015260200161050c565b505050509050019250505060006040518083038186803b15801561054757600080fd5b505afa15801561055b573d6000803e3d6000fd5b505050506040513d6000823e601f3d908101601f19168201604090815281101561058457600080fd5b81019080805160405193929190846401000000008211156105a457600080fd5b9083019060208201858111156105b957600080fd5b82518660208202830111640100000000821117156105d657600080fd5b82525081516020918201928201910280838360005b838110156106035781810151838201526020016105eb565b505050509050016040526020018051604051939291908464010000000082111561062c57600080fd5b90830190602082018581111561064157600080fd5b825186602082028301116401000000008211171561065e57600080fd5b82525081516020918201928201910280838360005b8381101561068b578181015183820152602001610673565b505050509050016040525050505090508263ffffffff16816000815181106106af57fe5b6020026020010151826001815181106106c457fe5b60200260200101510360060b816106d757fe5b05935050505090565b7f00000000000000000000000000000000000000000000000000000000000000006001600160a01b0316635aa6e6756040518163ffffffff1660e01b815260040160206040518083038186803b15801561073957600080fd5b505afa15801561074d573d6000803e3d6000fd5b505050506040513d602081101561076357600080fd5b50516001600160a01b031633146107ae576040805162461bcd60e51b815260206004820152600a602482015269676f7665726e616e636560b01b604482015290519081900360640190fd5b600180546001600160a01b0319166001600160a01b0392909216919091179055565b6001546001600160a01b03163314610818576040805162461bcd60e51b815260206004820152600660248201526535b2b2b832b960d11b604482015290519081900360640190fd5b60008054600281810b926301000000909204900b90610835610e91565b905060008260020b8460020b1361084c578261084e565b835b90507f000000000000000000000000000000000000000000000000000000000000000081620d89e719010160020b8260020b136108c1576040805162461bcd60e51b815260206004820152600c60248201526b7469636b20746f6f206c6f7760a01b604482015290519081900360640190fd5b7f000000000000000000000000000000000000000000000000000000000000000081620d89e719600003030360020b8260020b12610936576040805162461bcd60e51b815260206004820152600d60248201526c0e8d2c6d640e8dede40d0d2ced609b1b604482015290519081900360640190fd5b6000610940610429565b905060008160020b8460020b136109595783820361095d565b8184035b9050600060069054906101000a900460020b60020b8160020b13156109bc576040805162461bcd60e51b815260206004820152601060248201526f36b0bc2a3bb0b82232bb34b0ba34b7b760811b604482015290519081900360640190fd5b60006109c785610f57565b604080516387e5e08360e01b8152600060048201819052602482018190528a8403600290810b60448401527f000000000000000000000000000000000000000000000000000000000000000085018c8101820b60648501528b8603820b608485015285820b60a485015280820b60c48501528b810190910b60e4840152925193945091926001600160a01b037f000000000000000000000000000000000000000000000000000000000000000016926387e5e08392610104808201939182900301818387803b158015610a9957600080fd5b505af1158015610aad573d6000803e3d6000fd5b50504260029081556003805462ffffff191662ffffff9a90920b9990991617909755505050505050505050565b7f00000000000000000000000000000000000000000000000000000000000000006001600160a01b0316635aa6e6756040518163ffffffff1660e01b815260040160206040518083038186803b158015610b3357600080fd5b505afa158015610b47573d6000803e3d6000fd5b505050506040513d6020811015610b5d57600080fd5b50516001600160a01b03163314610ba8576040805162461bcd60e51b815260206004820152600a602482015269676f7665726e616e636560b01b604482015290519081900360640190fd5b610bd2817f0000000000000000000000000000000000000000000000000000000000000000611002565b6000805460029290920b62ffffff1662ffffff19909216919091179055565b60005460020b81565b6001546001600160a01b031681565b7f00000000000000000000000000000000000000000000000000000000000000006001600160a01b0316635aa6e6756040518163ffffffff1660e01b815260040160206040518083038186803b158015610c6257600080fd5b505afa158015610c76573d6000803e3d6000fd5b505050506040513d6020811015610c8c57600080fd5b50516001600160a01b03163314610cd7576040805162461bcd60e51b815260206004820152600a602482015269676f7665726e616e636560b01b604482015290519081900360640190fd5b610d01817f0000000000000000000000000000000000000000000000000000000000000000611002565b6000805460029290920b62ffffff1663010000000265ffffff00000019909216919091179055565b7f00000000000000000000000000000000000000000000000000000000000000006001600160a01b0316635aa6e6756040518163ffffffff1660e01b815260040160206040518083038186803b158015610d8257600080fd5b505afa158015610d96573d6000803e3d6000fd5b505050506040513d6020811015610dac57600080fd5b50516001600160a01b03163314610df7576040805162461bcd60e51b815260206004820152600a602482015269676f7665726e616e636560b01b604482015290519081900360640190fd5b60008163ffffffff1611610e41576040805162461bcd60e51b815260206004820152600c60248201526b3a3bb0b8223ab930ba34b7b760a11b604482015290519081900360640190fd5b6000805463ffffffff909216600160481b026cffffffff00000000000000000019909216919091179055565b7f000000000000000000000000000000000000000000000000000000000000000081565b60007f00000000000000000000000000000000000000000000000000000000000000006001600160a01b0316633850c7bd6040518163ffffffff1660e01b815260040160e06040518083038186803b158015610eec57600080fd5b505afa158015610f00573d6000803e3d6000fd5b505050506040513d60e0811015610f1657600080fd5b5060200151919050565b6000546601000000000000900460020b81565b7f000000000000000000000000000000000000000000000000000000000000000081565b6000807f000000000000000000000000000000000000000000000000000000000000000060020b8360020b81610f8957fe5b05905060008360020b128015610fd057507f000000000000000000000000000000000000000000000000000000000000000060020b8360020b81610fc957fe5b0760020b15155b15610fda57600019015b7f00000000000000000000000000000000000000000000000000000000000000000292915050565b60008260020b1361104a576040805162461bcd60e51b815260206004820152600d60248201526c07468726573686f6c64203e203609c1b604482015290519081900360640190fd5b620d89e8600283900b131561109b576040805162461bcd60e51b81526020600482015260126024820152710e8d0e4cae6d0ded8c840e8dede40d0d2ced60731b604482015290519081900360640190fd5b8060020b8260020b816110aa57fe5b0760020b15611100576040805162461bcd60e51b815260206004820152601760248201527f7468726573686f6c642025207469636b53706163696e67000000000000000000604482015290519081900360640190fd5b505056fea2646970667358221220ea8bf0bb1df229a76c0c053e8d5b9b0e308d090cd08a9c286269d6be41a32caa64736f6c63430007060033",
  "bytecodeSha1": "b58fcba327e3a73a596c47521ee02d5b711c24a9",
  "compiler": {
    "evm_version": "istanbul",
    "optimizer": {
      "enabled": true,
      "runs": 200
    },
    "version": "0.7.6+commit.7338295f"
  },
  "contractName": "AlphaStrategy",
  "language": "Solidity",
  "natspec": {
    "kind": "dev",
    "methods": {
      "constructor": {
        "params": {
          "_baseThreshold": "Used to determine base order range",
          "_keeper": "Account that can call `rebalance()`",
          "_limitThreshold": "Used to determine limit order range",
          "_maxTwapDeviation": "Max deviation from TWAP during rebalance",
          "_twapDuration": "TWAP duration in seconds for rebalance check",
          "_vault": "Underlying Alpha Vault"
        }
      },
      "getTick()": {
        "details": "Fetches current price in ticks from Uniswap pool."
      },
      "getTwap()": {
        "details": "Fetches time-weighted average price in ticks from Uniswap pool."
      },
      "rebalance()": {
        "notice": "Calculates new ranges for orders and calls `vault.rebalance()` so that vault can update its positions. Can only be called by keeper."
      }
    },
    "notice": "Rebalancing strategy for Alpha Vault that maintains the two          following range orders:          1. Base order is placed between X - B and X + B + TS.          2. Limit order is placed between X - L and X, or between X + TS             and X + L + TS, depending on which token it holds more of.          where:              X = current tick rounded down to multiple of tick spacing              TS = tick spacing              B = base threshold              L = limit threshold          Note that after these two orders, the vault should have deposited          all its tokens and should only have a few wei left.          Because the limit order tries to sell whichever token the vault          holds more of, the vault's holdings will have a tendency to get          closer to a 1:1 balance. This enables it to continue providing          liquidity without running out of inventory of either token, and          achieves this without the need to swap directly on Uniswap and pay          fees.",
    "title": "Alpha Strategy",
    "version": 1
  },
  "opcodes": "PUSH1 0x80 PUSH1 0x40 MSTORE CALLVALUE DUP1 ISZERO PUSH2 0x10 JUMPI PUSH1 0x0 DUP1 REVERT JUMPDEST POP PUSH1 0x4 CALLDATASIZE LT PUSH2 0x116 JUMPI PUSH1 0x0 CALLDATALOAD PUSH1 0xE0 SHR DUP1 PUSH4 0xA6329355 GT PUSH2 0xA2 JUMPI DUP1 PUSH4 0xC433C80A GT PUSH2 0x71 JUMPI DUP1 PUSH4 0xC433C80A EQ PUSH2 0x249 JUMPI DUP1 PUSH4 0xD0C93A7C EQ PUSH2 0x26C JUMPI DUP1 PUSH4 0xDF8AD814 EQ PUSH2 0x274 JUMPI DUP1 PUSH4 0xE7C7CB91 EQ PUSH2 0x27C JUMPI DUP1 PUSH4 0xFBFA77CF EQ PUSH2 0x284 JUMPI PUSH2 0x116 JUMP JUMPDEST DUP1 PUSH4 0xA6329355 EQ PUSH2 0x1F9 JUMPI DUP1 PUSH4 0xA87BAB9C EQ PUSH2 0x219 JUMPI DUP1 PUSH4 0xACED1661 EQ PUSH2 0x221 JUMPI DUP1 PUSH4 0xAF794480 EQ PUSH2 0x229 JUMPI PUSH2 0x116 JUMP JUMPDEST DUP1 PUSH4 0x3CBFF3FE GT PUSH2 0xE9 JUMPI DUP1 PUSH4 0x3CBFF3FE EQ PUSH2 0x199 JUMPI DUP1 PUSH4 0x3DFA5D87 EQ PUSH2 0x1BB JUMPI DUP1 PUSH4 0x5D752A9A EQ PUSH2 0x1C3 JUMPI DUP1 PUSH4 0x748747E6 EQ PUSH2 0x1CB JUMPI DUP1 PUSH4 0x7D7C2A1C EQ PUSH2 0x1F1 JUMPI PUSH2 0x116 JUMP JUMPDEST DUP1 PUSH4 0x106B9CA1 EQ PUSH2 0x11B JUMPI DUP1 PUSH4 0x16C3E29D EQ PUSH2 0x135 JUMPI DUP1 PUSH4 0x16F0115B EQ PUSH2 0x154 JUMPI DUP1 PUSH4 0x26D89545 EQ PUSH2 0x178 JUMPI JUMPDEST PUSH1 0x0 DUP1 REVERT JUMPDEST PUSH2 0x123 PUSH2 0x28C JUMP JUMPDEST PUSH1 0x40 DUP1 MLOAD SWAP2 DUP3 MSTORE MLOAD SWAP1 DUP2 SWAP1 SUB PUSH1 0x20 ADD SWAP1 RETURN JUMPDEST PUSH2 0x13D PUSH2 0x292 JUMP JUMPDEST PUSH1 0x40 DUP1 MLOAD PUSH1 0x2 SWAP3 SWAP1 SWAP3 SIGNEXTEND DUP3 MSTORE MLOAD SWAP1 DUP2 SWAP1 SUB PUSH1 0x20 ADD SWAP1 RETURN JUMPDEST PUSH2 0x15C PUSH2 0x2A2 JUMP JUMPDEST PUSH1 0x40 DUP1 MLOAD PUSH1 0x1 PUSH1 0x1 PUSH1 0xA0 SHL SUB SWAP1 SWAP3 AND DUP3 MSTORE MLOAD SWAP1 DUP2 SWAP1 SUB PUSH1 0x20 ADD SWAP1 RETURN JUMPDEST PUSH2 0x180 PUSH2 0x2C6 JUMP JUMPDEST PUSH1 0x40 DUP1 MLOAD PUSH4 0xFFFFFFFF SWAP1 SWAP3 AND DUP3 MSTORE MLOAD SWAP1 DUP2 SWAP1 SUB PUSH1 0x20 ADD SWAP1 RETURN JUMPDEST PUSH2 0x1B9 PUSH1 0x4 DUP1 CALLDATASIZE SUB PUSH1 0x20 DUP2 LT ISZERO PUSH2 0x1AF JUMPI PUSH1 0x0 DUP1 REVERT JUMPDEST POP CALLDATALOAD PUSH1 0x2 SIGNEXTEND PUSH2 0x2D9 JUMP JUMPDEST STOP JUMPDEST PUSH2 0x13D PUSH2 0x420 JUMP JUMPDEST PUSH2 0x13D PUSH2 0x429 JUMP JUMPDEST PUSH2 0x1B9 PUSH1 0x4 DUP1 CALLDATASIZE SUB PUSH1 0x20 DUP2 LT ISZERO PUSH2 0x1E1 JUMPI PUSH1 0x0 DUP1 REVERT JUMPDEST POP CALLDATALOAD PUSH1 0x1 PUSH1 0x1 PUSH1 0xA0 SHL SUB AND PUSH2 0x6E0 JUMP JUMPDEST PUSH2 0x1B9 PUSH2 0x7D0 JUMP JUMPDEST PUSH2 0x1B9 PUSH1 0x4 DUP1 CALLDATASIZE SUB PUSH1 0x20 DUP2 LT ISZERO PUSH2 0x20F JUMPI PUSH1 0x0 DUP1 REVERT JUMPDEST POP CALLDATALOAD PUSH1 0x2 SIGNEXTEND PUSH2 0xADA JUMP JUMPDEST PUSH2 0x13D PUSH2 0xBF1 JUMP JUMPDEST PUSH2 0x15C PUSH2 0xBFA JUMP JUMPDEST PUSH2 0x1B9 PUSH1 0x4 DUP1 CALLDATASIZE SUB PUSH1 0x20 DUP2 LT ISZERO PUSH2 0x23F JUMPI PUSH1 0x0 DUP1 REVERT JUMPDEST POP CALLDATALOAD PUSH1 0x2 SIGNEXTEND PUSH2 0xC09 JUMP JUMPDEST PUSH2 0x1B9 PUSH1 0x4 DUP1 CALLDATASIZE SUB PUSH1 0x20 DUP2 LT ISZERO PUSH2 0x25F JUMPI PUSH1 0x0 DUP1 REVERT JUMPDEST POP CALLDATALOAD PUSH4 0xFFFFFFFF AND PUSH2 0xD29 JUMP JUMPDEST PUSH2 0x13D PUSH2 0xE6D JUMP JUMPDEST PUSH2 0x13D PUSH2 0xE91 JUMP JUMPDEST PUSH2 0x13D PUSH2 0xF20 JUMP JUMPDEST PUSH2 0x15C PUSH2 0xF33 JUMP JUMPDEST PUSH1 0x2 SLOAD DUP2 JUMP JUMPDEST PUSH1 0x0 SLOAD PUSH4 0x1000000 SWAP1 DIV PUSH1 0x2 SIGNEXTEND DUP2 JUMP JUMPDEST PUSH32 0x0 DUP2 JUMP JUMPDEST PUSH1 0x0 SLOAD PUSH1 0x1 PUSH1 0x48 SHL SWAP1 DIV PUSH4 0xFFFFFFFF AND DUP2 JUMP JUMPDEST PUSH32 0x0 PUSH1 0x1 PUSH1 0x1 PUSH1 0xA0 SHL SUB AND PUSH4 0x5AA6E675 PUSH1 0x40 MLOAD DUP2 PUSH4 0xFFFFFFFF AND PUSH1 0xE0 SHL DUP2 MSTORE PUSH1 0x4 ADD PUSH1 0x20 PUSH1 0x40 MLOAD DUP1 DUP4 SUB DUP2 DUP7 DUP1 EXTCODESIZE ISZERO DUP1 ISZERO PUSH2 0x332 JUMPI PUSH1 0x0 DUP1 REVERT JUMPDEST POP GAS STATICCALL ISZERO DUP1 ISZERO PUSH2 0x346 JUMPI RETURNDATASIZE PUSH1 0x0 DUP1 RETURNDATACOPY RETURNDATASIZE PUSH1 0x0 REVERT JUMPDEST POP POP POP POP PUSH1 0x40 MLOAD RETURNDATASIZE PUSH1 0x20 DUP2 LT ISZERO PUSH2 0x35C JUMPI PUSH1 0x0 DUP1 REVERT JUMPDEST POP MLOAD PUSH1 0x1 PUSH1 0x1 PUSH1 0xA0 SHL SUB AND CALLER EQ PUSH2 0x3A7 JUMPI PUSH1 0x40 DUP1 MLOAD PUSH3 0x461BCD PUSH1 0xE5 SHL DUP2 MSTORE PUSH1 0x20 PUSH1 0x4 DUP3 ADD MSTORE PUSH1 0xA PUSH1 0x24 DUP3 ADD MSTORE PUSH10 0x676F7665726E616E6365 PUSH1 0xB0 SHL PUSH1 0x44 DUP3 ADD MSTORE SWAP1 MLOAD SWAP1 DUP2 SWAP1 SUB PUSH1 0x64 ADD SWAP1 REVERT JUMPDEST PUSH1 0x0 DUP2 PUSH1 0x2 SIGNEXTEND SGT PUSH2 0x3F2 JUMPI PUSH1 0x40 DUP1 MLOAD PUSH3 0x461BCD PUSH1 0xE5 SHL DUP2 MSTORE PUSH1 0x20 PUSH1 0x4 DUP3 ADD MSTORE PUSH1 0x10 PUSH1 0x24 DUP3 ADD MSTORE PUSH16 0x36B0BC2A3BB0B82232BB34B0BA34B7B7 PUSH1 0x81 SHL PUSH1 0x44 DUP3 ADD MSTORE SWAP1 MLOAD SWAP1 DUP2 SWAP1 SUB PUSH1 0x64 ADD SWAP1 REVERT JUMPDEST PUSH1 0x0 DUP1 SLOAD PUSH1 0x2 SWAP3 SWAP1 SWAP3 SIGNEXTEND PUSH3 0xFFFFFF AND PUSH7 0x1000000000000 MUL PUSH9 0xFFFFFF000000000000 NOT SWAP1 SWAP3 AND SWAP2 SWAP1 SWAP2 OR SWAP1 SSTORE JUMP JUMPDEST PUSH1 0x3 SLOAD PUSH1 0x2 SIGNEXTEND DUP2 JUMP JUMPDEST PUSH1 0x0 DUP1 SLOAD PUSH1 0x40 DUP1 MLOAD PUSH1 0x2 DUP1 DUP3 MSTORE PUSH1 0x60 DUP3 ADD DUP4 MSTORE PUSH1 0x1 PUSH1 0x48 SHL SWAP1 SWAP4 DIV PUSH4 0xFFFFFFFF AND SWAP3 DUP5 SWAP3 PUSH1 0x20 DUP4 ADD SWAP1 DUP1 CALLDATASIZE DUP4 CALLDATACOPY ADD SWAP1 POP POP SWAP1 POP DUP2 DUP2 PUSH1 0x0 DUP2 MLOAD DUP2 LT PUSH2 0x46A JUMPI INVALID JUMPDEST PUSH1 0x20 MUL PUSH1 0x20 ADD ADD SWAP1 PUSH4 0xFFFFFFFF AND SWAP1 DUP2 PUSH4 0xFFFFFFFF AND DUP2 MSTORE POP POP PUSH1 0x0 DUP2 PUSH1 0x1 DUP2 MLOAD DUP2 LT PUSH2 0x493 JUMPI INVALID JUMPDEST PUSH4 0xFFFFFFFF SWAP1 SWAP3 AND PUSH1 0x20 SWAP3 DUP4 MUL SWAP2 SWAP1 SWAP2 ADD DUP3 ADD MSTORE PUSH1 0x40 MLOAD PUSH4 0x883BDBFD PUSH1 0xE0 SHL DUP2 MSTORE PUSH1 0x4 DUP2 ADD DUP3 DUP2 MSTORE DUP4 MLOAD PUSH1 0x24 DUP4 ADD MSTORE DUP4 MLOAD PUSH1 0x0 SWAP4 PUSH1 0x1 PUSH1 0x1 PUSH1 0xA0 SHL SUB PUSH32 0x0 AND SWAP4 PUSH4 0x883BDBFD SWAP4 DUP8 SWAP4 SWAP1 SWAP3 DUP4 SWAP3 PUSH1 0x44 ADD SWAP2 DUP6 DUP3 ADD SWAP2 MUL DUP1 DUP4 DUP4 DUP12 JUMPDEST DUP4 DUP2 LT ISZERO PUSH2 0x524 JUMPI DUP2 DUP2 ADD MLOAD DUP4 DUP3 ADD MSTORE PUSH1 0x20 ADD PUSH2 0x50C JUMP JUMPDEST POP POP POP POP SWAP1 POP ADD SWAP3 POP POP POP PUSH1 0x0 PUSH1 0x40 MLOAD DUP1 DUP4 SUB DUP2 DUP7 DUP1 EXTCODESIZE ISZERO DUP1 ISZERO PUSH2 0x547 JUMPI PUSH1 0x0 DUP1 REVERT JUMPDEST POP GAS STATICCALL ISZERO DUP1 ISZERO PUSH2 0x55B JUMPI RETURNDATASIZE PUSH1 0x0 DUP1 RETURNDATACOPY RETURNDATASIZE PUSH1 0x0 REVERT JUMPDEST POP POP POP POP PUSH1 0x40 MLOAD RETURNDATASIZE PUSH1 0x0 DUP3 RETURNDATACOPY PUSH1 0x1F RETURNDATASIZE SWAP1 DUP2 ADD PUSH1 0x1F NOT AND DUP3 ADD PUSH1 0x40 SWAP1 DUP2 MSTORE DUP2 LT ISZERO PUSH2 0x584 JUMPI PUSH1 0x0 DUP1 REVERT JUMPDEST DUP2 ADD SWAP1 DUP1 DUP1 MLOAD PUSH1 0x40 MLOAD SWAP4 SWAP3 SWAP2 SWAP1 DUP5 PUSH5 0x100000000 DUP3 GT ISZERO PUSH2 0x5A4 JUMPI PUSH1 0x0 DUP1 REVERT JUMPDEST SWAP1 DUP4 ADD SWAP1 PUSH1 0x20 DUP3 ADD DUP6 DUP2 GT ISZERO PUSH2 0x5B9 JUMPI PUSH1 0x0 DUP1 REVERT JUMPDEST DUP3 MLOAD DUP7 PUSH1 0x20 DUP3 MUL DUP4 ADD GT PUSH5 0x100000000 DUP3 GT OR ISZERO PUSH2 0x5D6 JUMPI PUSH1 0x0 DUP1 REVERT JUMPDEST DUP3 MSTORE POP DUP2 MLOAD PUSH1 0x20 SWAP2 DUP3 ADD SWAP3 DUP3 ADD SWAP2 MUL DUP1 DUP4 DUP4 PUSH1 0x0 JUMPDEST DUP4 DUP2 LT ISZERO PUSH2 0x603 JUMPI DUP2 DUP2 ADD MLOAD DUP4 DUP3 ADD MSTORE PUSH1 0x20 ADD PUSH2 0x5EB JUMP JUMPDEST POP POP POP POP SWAP1 POP ADD PUSH1 0x40 MSTORE PUSH1 0x20 ADD DUP1 MLOAD PUSH1 0x40 MLOAD SWAP4 SWAP3 SWAP2 SWAP1 DUP5 PUSH5 0x100000000 DUP3 GT ISZERO PUSH2 0x62C JUMPI PUSH1 0x0 DUP1 REVERT JUMPDEST SWAP1 DUP4 ADD SWAP1 PUSH1 0x20 DUP3 ADD DUP6 DUP2 GT ISZERO PUSH2 0x641 JUMPI PUSH1 0x0 DUP1 REVERT JUMPDEST DUP3 MLOAD DUP7 PUSH1 0x20 DUP3 MUL DUP4 ADD GT PUSH5 0x100000000 DUP3 GT OR ISZERO PUSH2 0x65E JUMPI PUSH1 0x0 DUP1 REVERT JUMPDEST DUP3 MSTORE POP DUP2 MLOAD PUSH1 0x20 SWAP2 DUP3 ADD SWAP3 DUP3 ADD SWAP2 MUL DUP1 DUP4 DUP4 PUSH1 0x0 JUMPDEST DUP4 DUP2 LT ISZERO PUSH2 0x68B JUMPI DUP2 DUP2 ADD MLOAD DUP4 DUP3 ADD MSTORE PUSH1 0x20 ADD PUSH2 0x673 JUMP JUMPDEST POP POP POP POP SWAP1 POP ADD PUSH1 0x40 MSTORE POP POP POP POP SWAP1 POP DUP3 PUSH4 0xFFFFFFFF AND DUP2 PUSH1 0x0 DUP2 MLOAD DUP2 LT PUSH2 0x6AF JUMPI INVALID JUMPDEST PUSH1 0x20 MUL PUSH1 0x20 ADD ADD MLOAD DUP3 PUSH1 0x1 DUP2 MLOAD DUP2 LT PUSH2 0x6C4 JUMPI INVALID JUMPDEST PUSH1 0x20 MUL PUSH1 0x20 ADD ADD MLOAD SUB PUSH1 0x6 SIGNEXTEND DUP2 PUSH2 0x6D7 JUMPI INVALID JUMPDEST SDIV SWAP4 POP POP POP POP SWAP1 JUMP JUMPDEST PUSH32 0x0 PUSH1 0x1 PUSH1 0x1 PUSH1 0xA0 SHL SUB AND PUSH4 0x5AA6E675 PUSH1 0x40 MLOAD DUP2 PUSH4 0xFFFFFFFF AND PUSH1 0xE0 SHL DUP2 MSTORE PUSH1 0x4 ADD PUSH1 0x20 PUSH1 0x40 MLOAD DUP1 DUP4 SUB DUP2 DUP7 DUP1 EXTCODESIZE ISZERO DUP1 ISZERO PUSH2 0x739 JUMPI PUSH1 0x0 DUP1 REVERT JUMPDEST POP GAS STATICCALL ISZERO DUP1 ISZERO PUSH2 0x74D JUMPI RETURNDATASIZE PUSH1 0x0 DUP1 RETURNDATACOPY RETURNDATASIZE PUSH1 0x0 REVERT JUMPDEST POP POP POP POP PUSH1 0x40 MLOAD RETURNDATASIZE PUSH1 0x20 DUP2 LT ISZERO PUSH2 0x763 JUMPI PUSH1 0x0 DUP1 REVERT JUMPDEST POP MLOAD PUSH1 0x1 PUSH1 0x1 PUSH1 0xA0 SHL SUB AND CALLER EQ PUSH2 0x7AE JUMPI PUSH1 0x40 DUP1 MLOAD PUSH3 0x461BCD PUSH1 0xE5 SHL DUP2 MSTORE PUSH1 0x20 PUSH1 0x4 DUP3 ADD MSTORE PUSH1 0xA PUSH1 0x24 DUP3 ADD MSTORE PUSH10 0x676F7665726E616E6365 PUSH1 0xB0 SHL PUSH1 0x44 DUP3 ADD MSTORE SWAP1 MLOAD SWAP1 DUP2 SWAP1 SUB PUSH1 0x64 ADD SWAP1 REVERT JUMPDEST PUSH1 0x1 DUP1 SLOAD PUSH1 0x1 PUSH1 0x1 PUSH1 0xA0 SHL SUB NOT AND PUSH1 0x1 PUSH1 0x1 PUSH1 0xA0 SHL SUB SWAP3 SWAP1 SWAP3 AND SWAP2 SWAP1 SWAP2 OR SWAP1 SSTORE JUMP JUMPDEST PUSH1 0x1 SLOAD PUSH1 0x1 PUSH1 0x1 PUSH1 0xA0 SHL SUB AND CALLER EQ PUSH2 0x818 JUMPI PUSH1 0x40 DUP1 MLOAD PUSH3 0x461BCD PUSH1 0xE5 SHL DUP2 MSTORE PUSH1 0x20 PUSH1 0x4 DUP3 ADD MSTORE PUSH1 0x6 PUSH1 0x24 DUP3 ADD MSTORE PUSH6 0x35B2B2B832B9 PUSH1 0xD1 SHL PUSH1 0x44 DUP3 ADD MSTORE SWAP1 MLOAD SWAP1 DUP2 SWAP1 SUB PUSH1 0x64 ADD SWAP1 REVERT JUMPDEST PUSH1 0x0 DUP1 SLOAD PUSH1 0x2 DUP2 DUP2 SIGNEXTEND SWAP3 PUSH4 0x1000000 SWAP1 SWAP3 DIV SWAP1 SIGNEXTEND SWAP1 PUSH2 0x835 PUSH2 0xE91 JUMP JUMPDEST SWAP1 POP PUSH1 0x0 DUP3 PUSH1 0x2 SIGNEXTEND DUP5 PUSH1 0x2 SIGNEXTEND SGT PUSH2 0x84C JUMPI DUP3 PUSH2 0x84E JUMP JUMPDEST DUP4 JUMPDEST SWAP1 POP PUSH32 0x0 DUP2 PUSH3 0xD89E7 NOT ADD ADD PUSH1 0x2 SIGNEXTEND DUP3 PUSH1 0x2 SIGNEXTEND SGT PUSH2 0x8C1 JUMPI PUSH1 0x40 DUP1 MLOAD PUSH3 0x461BCD PUSH1 0xE5 SHL DUP2 MSTORE PUSH1 0x20 PUSH1 0x4 DUP3 ADD MSTORE PUSH1 0xC PUSH1 0x24 DUP3 ADD MSTORE PUSH12 0x7469636B20746F6F206C6F77 PUSH1 0xA0 SHL PUSH1 0x44 DUP3 ADD MSTORE SWAP1 MLOAD SWAP1 DUP2 SWAP1 SUB PUSH1 0x64 ADD SWAP1 REVERT JUMPDEST PUSH32 0x0 DUP2 PUSH3 0xD89E7 NOT PUSH1 0x0 SUB SUB SUB PUSH1 0x2 SIGNEXTEND DUP3 PUSH1 0x2 SIGNEXTEND SLT PUSH2 0x936 JUMPI PUSH1 0x40 DUP1 MLOAD PUSH3 0x461BCD PUSH1 0xE5 SHL DUP2 MSTORE PUSH1 0x20 PUSH1 0x4 DUP3 ADD MSTORE PUSH1 0xD PUSH1 0x24 DUP3 ADD MSTORE PUSH13 0xE8D2C6D640E8DEDE40D0D2CED PUSH1 0x9B SHL PUSH1 0x44 DUP3 ADD MSTORE SWAP1 MLOAD SWAP1 DUP2 SWAP1 SUB PUSH1 0x64 ADD SWAP1 REVERT JUMPDEST PUSH1 0x0 PUSH2 0x940 PUSH2 0x429 JUMP JUMPDEST SWAP1 POP PUSH1 0x0 DUP2 PUSH1 0x2 SIGNEXTEND DUP5 PUSH1 0x2 SIGNEXTEND SGT PUSH2 0x959 JUMPI DUP4 DUP3 SUB PUSH2 0x95D JUMP JUMPDEST DUP2 DUP5 SUB JUMPDEST SWAP1 POP PUSH1 0x0 PUSH1 0x6 SWAP1 SLOAD SWAP1 PUSH2 0x100 EXP SWAP1 DIV PUSH1 0x2 SIGNEXTEND PUSH1 0x2 SIGNEXTEND DUP2 PUSH1 0x2 SIGNEXTEND SGT ISZERO PUSH2 0x9BC JUMPI PUSH1 0x40 DUP1 MLOAD PUSH3 0x461BCD PUSH1 0xE5 SHL DUP2 MSTORE PUSH1 0x20 PUSH1 0x4 DUP3 ADD MSTORE PUSH1 0x10 PUSH1 0x24 DUP3 ADD MSTORE PUSH16 0x36B0BC2A3BB0B82232BB34B0BA34B7B7 PUSH1 0x81 SHL PUSH1 0x44 DUP3 ADD MSTORE SWAP1 MLOAD SWAP1 DUP2 SWAP1 SUB PUSH1 0x64 ADD SWAP1 REVERT JUMPDEST PUSH1 0x0 PUSH2 0x9C7 DUP6 PUSH2 0xF57 JUMP JUMPDEST PUSH1 0x40 DUP1 MLOAD PUSH4 0x87E5E083 PUSH1 0xE0 SHL DUP2 MSTORE PUSH1 0x0 PUSH1 0x4 DUP3 ADD DUP2 SWAP1 MSTORE PUSH1 0x24 DUP3 ADD DUP2 SWAP1 MSTORE DUP11 DUP5 SUB PUSH1 0x2 SWAP1 DUP2 SIGNEXTEND PUSH1 0x44 DUP5 ADD MSTORE PUSH32 0x0 DUP6 ADD DUP13 DUP2 ADD DUP3 SIGNEXTEND PUSH1 0x64 DUP6 ADD MSTORE DUP12 DUP7 SUB DUP3 SIGNEXTEND PUSH1 0x84 DUP6 ADD MSTORE DUP6 DUP3 SIGNEXTEND PUSH1 0xA4 DUP6 ADD MSTORE DUP1 DUP3 SIGNEXTEND PUSH1 0xC4 DUP6 ADD MSTORE DUP12 DUP2 ADD SWAP1 SWAP2 SIGNEXTEND PUSH1 0xE4 DUP5 ADD MSTORE SWAP3 MLOAD SWAP4 SWAP5 POP SWAP2 SWAP3 PUSH1 0x1 PUSH1 0x1 PUSH1 0xA0 SHL SUB PUSH32 0x0 AND SWAP3 PUSH4 0x87E5E083 SWAP3 PUSH2 0x104 DUP1 DUP3 ADD SWAP4 SWAP2 DUP3 SWAP1 SUB ADD DUP2 DUP4 DUP8 DUP1 EXTCODESIZE ISZERO DUP1 ISZERO PUSH2 0xA99 JUMPI PUSH1 0x0 DUP1 REVERT JUMPDEST POP GAS CALL ISZERO DUP1 ISZERO PUSH2 0xAAD JUMPI RETURNDATASIZE PUSH1 0x0 DUP1 RETURNDATACOPY RETURNDATASIZE PUSH1 0x0 REVERT JUMPDEST POP POP TIMESTAMP PUSH1 0x2 SWAP1 DUP2 SSTORE PUSH1 0x3 DUP1 SLOAD PUSH3 0xFFFFFF NOT AND PUSH3 0xFFFFFF SWAP11 SWAP1 SWAP3 SIGNEXTEND SWAP10 SWAP1 SWAP10 AND OR SWAP1 SWAP8 SSTORE POP POP POP POP POP POP POP POP POP JUMP JUMPDEST PUSH32 0x0 PUSH1 0x1 PUSH1 0x1 PUSH1 0xA0 SHL SUB AND PUSH4 0x5AA6E675 PUSH1 0x40 MLOAD DUP2 PUSH4 0xFFFFFFFF AND PUSH1 0xE0 SHL DUP2 MSTORE PUSH1 0x4 ADD PUSH1 0x20 PUSH1 0x40 MLOAD DUP1 DUP4 SUB DUP2 DUP7 DUP1 EXTCODESIZE ISZERO DUP1 ISZERO PUSH2 0xB33 JUMPI PUSH1 0x0 DUP1 REVERT JUMPDEST POP GAS STATICCALL ISZERO DUP1 ISZERO PUSH2 0xB47 JUMPI RETURNDATASIZE PUSH1 0x0 DUP1 RETURNDATACOPY RETURNDATASIZE PUSH1 0x0 REVERT JUMPDEST POP POP POP POP PUSH1 0x40 MLOAD RETURNDATASIZE PUSH1 0x20 DUP2 LT ISZERO PUSH2 0xB5D JUMPI PUSH1 0x0 DUP1 REVERT JUMPDEST POP MLOAD PUSH1 0x1 PUSH1 0x1 PUSH1 0xA0 SHL SUB AND CALLER EQ PUSH2 0xBA8 JUMPI PUSH1 0x40 DUP1 MLOAD PUSH3 0x461BCD PUSH1 0xE5 SHL DUP2 MSTORE PUSH1 0x20 PUSH1 0x4 DUP3 ADD MSTORE PUSH1 0xA PUSH1 0x24 DUP3 ADD MSTORE PUSH10 0x676F7665726E616E6365 PUSH1 0xB0 SHL PUSH1 0x44 DUP3 ADD MSTORE SWAP1 MLOAD SWAP1 DUP2 SWAP1 SUB PUSH1 0x64 ADD SWAP1 REVERT JUMPDEST PUSH2 0xBD2 DUP2 PUSH32 0x0 PUSH2 0x1002 JUMP JUMPDEST PUSH1 0x0 DUP1 SLOAD PUSH1 0x2 SWAP3 SWAP1 SWAP3 SIGNEXTEND PUSH3 0xFFFFFF AND PUSH3 0xFFFFFF NOT SWAP1 SWAP3 AND SWAP2 SWAP1 SWAP2 OR SWAP1 SSTORE JUMP JUMPDEST PUSH1 0x0 SLOAD PUSH1 0x2 SIGNEXTEND DUP2 JUMP JUMPDEST PUSH1 0x1 SLOAD PUSH1 0x1 PUSH1 0x1 PUSH1 0xA0 SHL SUB AND DUP2 JUMP JUMPDEST PUSH32 0x0 PUSH1 0x1 PUSH1 0x1 PUSH1 0xA0 SHL SUB AND PUSH4 0x5AA6E675 PUSH1 0x40 MLOAD DUP2 PUSH4 0xFFFFFFFF AND PUSH1 0xE0 SHL DUP2 MSTORE PUSH1 0x4 ADD PUSH1 0x20 PUSH1 0x40 MLOAD DUP1 DUP4 SUB DUP2 DUP7 DUP1 EXTCODESIZE ISZERO DUP1 ISZERO PUSH2 0xC62 JUMPI PUSH1 0x0 DUP1 REVERT JUMPDEST POP GAS STATICCALL ISZERO DUP1 ISZERO PUSH2 0xC76 JUMPI RETURNDATASIZE PUSH1 0x0 DUP1 RETURNDATACOPY RETURNDATASIZE PUSH1 0x0 REVERT JUMPDEST POP POP POP POP PUSH1 0x40 MLOAD RETURNDATASIZE PUSH1 0x20 DUP2 LT ISZERO PUSH2 0xC8C JUMPI PUSH1 0x0 DUP1 REVERT JUMPDEST POP MLOAD PUSH1 0x1 PUSH1 0x1 PUSH1 0xA0 SHL SUB AND CALLER EQ PUSH2 0xCD7 JUMPI PUSH1 0x40 DUP1 MLOAD PUSH3 0x461BCD PUSH1 0xE5 SHL DUP2 MSTORE PUSH1 0x20 PUSH1 0x4 DUP3 ADD MSTORE PUSH1 0xA PUSH1 0x24 DUP3 ADD MSTORE PUSH10 0x676F7665726E616E6365 PUSH1 0xB0 SHL PUSH1 0x44 DUP3 ADD MSTORE SWAP1 MLOAD SWAP1 DUP2 SWAP1 SUB PUSH1 0x64 ADD SWAP1 REVERT JUMPDEST PUSH2 0xD01 DUP2 PUSH32 0x0 PUSH2 0x1002 JUMP JUMPDEST PUSH1 0x0 DUP1 SLOAD PUSH1 0x2 SWAP3 SWAP1 SWAP3 SIGNEXTEND PUSH3 0xFFFFFF AND PUSH4 0x1000000 MUL PUSH6 0xFFFFFF000000 NOT SWAP1 SWAP3 AND SWAP2 SWAP1 SWAP2 OR SWAP1 SSTORE JUMP JUMPDEST PUSH32 0x0 PUSH1 0x1 PUSH1 0x1 PUSH1 0xA0 SHL SUB AND PUSH4 0x5AA6E675 PUSH1 0x40 MLOAD DUP2 PUSH4 0xFFFFFFFF AND PUSH1 0xE0 SHL DUP2 MSTORE PUSH1 0x4 ADD PUSH1 0x20 PUSH1 0x40 MLOAD DUP1 DUP4 SUB DUP2 DUP7 DUP1 EXTCODESIZE ISZERO DUP1 ISZERO PUSH2 0xD82 JUMPI PUSH1 0x0 DUP1 REVERT JUMPDEST POP GAS STATICCALL ISZERO DUP1 ISZERO PUSH2 0xD96 JUMPI RETURNDATASIZE PUSH1 0x0 DUP1 RETURNDATACOPY RETURNDATASIZE PUSH1 0x0 REVERT JUMPDEST POP POP POP POP PUSH1 0x40 MLOAD RETURNDATASIZE PUSH1 0x20 DUP2 LT ISZERO PUSH2 0xDAC JUMPI PUSH1 0x0 DUP1 REVERT JUMPDEST POP MLOAD PUSH1 0x1 PUSH1 0x1 PUSH1 0xA0 SHL SUB AND CALLER EQ PUSH2 0xDF7 JUMPI PUSH1 0x40 DUP1 MLOAD PUSH3 0x461BCD PUSH1 0xE5 SHL DUP2 MSTORE PUSH1 0x20 PUSH1 0x4 DUP3 ADD MSTORE PUSH1 0xA PUSH1 0x24 DUP3 ADD MSTORE PUSH10 0x676F7665726E616E6365 PUSH1 0xB0 SHL PUSH1 0x44 DUP3 ADD MSTORE SWAP1 MLOAD SWAP1 DUP2 SWAP1 SUB PUSH1 0x64 ADD SWAP1 REVERT JUMPDEST PUSH1 0x0 DUP2 PUSH4 0xFFFFFFFF AND GT PUSH2 0xE41 JUMPI PUSH1 0x40 DUP1 MLOAD PUSH3 0x461BCD PUSH1 0xE5 SHL DUP2 MSTORE PUSH1 0x20 PUSH1 0x4 DUP3 ADD MSTORE PUSH1 0xC PUSH1 0x24 DUP3 ADD MSTORE PUSH12 0x3A3BB0B8223AB930BA34B7B7 PUSH1 0xA1 SHL PUSH1 0x44 DUP3 ADD MSTORE SWAP1 MLOAD SWAP1 DUP2 SWAP1 SUB PUSH1 0x64 ADD SWAP1 REVERT JUMPDEST PUSH1 0x0 DUP1 SLOAD PUSH4 0xFFFFFFFF SWAP1 SWAP3 AND PUSH1 0x1 PUSH1 0x48 SHL MUL PUSH13 0xFFFFFFFF000000000000000000 NOT SWAP1 SWAP3 AND SWAP2 SWAP1 SWAP2 OR SWAP1 SSTORE JUMP JUMPDEST PUSH32 0x0 DUP2 JUMP JUMPDEST PUSH1 0x0 PUSH32 0x0 PUSH1 0x1 PUSH1 0x1 PUSH1 0xA0 SHL SUB AND PUSH4 0x3850C7BD PUSH1 0x40 MLOAD DUP2 PUSH4 0xFFFFFFFF AND PUSH1 0xE0 SHL DUP2 MSTORE PUSH1 0x4 ADD PUSH1 0xE0 PUSH1 0x40 MLOAD DUP1 DUP4 SUB DUP2 DUP7 DUP1 EXTCODESIZE ISZERO DUP1 ISZERO PUSH2 0xEEC JUMPI PUSH1 0x0 DUP1 REVERT JUMPDEST POP GAS STATICCALL ISZERO DUP1 ISZERO PUSH2 0xF00 JUMPI RETURNDATASIZE PUSH1 0x0 DUP1 RETURNDATACOPY RETURNDATASIZE PUSH1 0x0 REVERT JUMPDEST POP POP POP POP PUSH1 0x40 MLOAD RETURNDATASIZE PUSH1 0xE0 DUP2 LT ISZERO PUSH2 0xF16 JUMPI PUSH1 0x0 DUP1 REVERT JUMPDEST POP PUSH1 0x20 ADD MLOAD SWAP2 SWAP1 POP JUMP JUMPDEST PUSH1 0x0 SLOAD PUSH7 0x1000000000000 SWAP1 DIV PUSH1 0x2 SIGNEXTEND DUP2 JUMP JUMPDEST PUSH32 0x0 DUP2 JUMP JUMPDEST PUSH1 0x0 DUP1 PUSH32 0x0 PUSH1 0x2 SIGNEXTEND DUP4 PUSH1 0x2 SIGNEXTEND DUP2 PUSH2 0xF89 JUMPI INVALID JUMPDEST SDIV SWAP1 POP PUSH1 0x0 DUP4 PUSH1 0x2 SIGNEXTEND SLT DUP1 ISZERO PUSH2 0xFD0 JUMPI POP PUSH32 0x0 PUSH1 0x2 SIGNEXTEND DUP4 PUSH1 0x2 SIGNEXTEND DUP2 PUSH2 0xFC9 JUMPI INVALID JUMPDEST SMOD PUSH1 0x2 SIGNEXTEND ISZERO ISZERO JUMPDEST ISZERO PUSH2 0xFDA JUMPI PUSH1 0x0 NOT ADD JUMPDEST PUSH32 0x0 MUL SWAP3 SWAP2 POP POP JUMP JUMPDEST PUSH1 0x0 DUP3 PUSH1 0x2 SIGNEXTEND SGT PUSH2 0x104A JUMPI PUSH1 0x40 DUP1 MLOAD PUSH3 0x461BCD PUSH1 0xE5 SHL DUP2 MSTORE PUSH1 0x20 PUSH1 0x4 DUP3 ADD MSTORE PUSH1 0xD PUSH1 0x24 DUP3 ADD MSTORE PUSH13 0x7468726573686F6C64203E203 PUSH1 0x9C SHL PUSH1 0x44 DUP3 ADD MSTORE SWAP1 MLOAD SWAP1 DUP2 SWAP1 SUB PUSH1 0x64 ADD SWAP1 REVERT JUMPDEST PUSH3 0xD89E8 PUSH1 0x2 DUP4 SWAP1 SIGNEXTEND SGT ISZERO PUSH2 0x109B JUMPI PUSH1 0x40 DUP1 MLOAD PUSH3 0x461BCD PUSH1 0xE5 SHL DUP2 MSTORE PUSH1 0x20 PUSH1 0x4 DUP3 ADD MSTORE PUSH1 0x12 PUSH1 0x24 DUP3 ADD MSTORE PUSH18 0xE8D0E4CAE6D0DED8C840E8DEDE40D0D2CED PUSH1 0x73 SHL PUSH1 0x44 DUP3 ADD MSTORE SWAP1 MLOAD SWAP1 DUP2 SWAP1 SUB PUSH1 0x64 ADD SWAP1 REVERT JUMPDEST DUP1 PUSH1 0x2 SIGNEXTEND DUP3 PUSH1 0x2 SIGNEXTEND DUP2 PUSH2 0x10AA JUMPI INVALID JUMPDEST SMOD PUSH1 0x2 SIGNEXTEND ISZERO PUSH2 0x1100 JUMPI PUSH1 0x40 DUP1 MLOAD PUSH3 0x461BCD PUSH1 0xE5 SHL DUP2 MSTORE PUSH1 0x20 PUSH1 0x4 DUP3 ADD MSTORE PUSH1 0x17 PUSH1 0x24 DUP3 ADD MSTORE PUSH32 0x7468726573686F6C642025207469636B53706163696E67000000000000000000 PUSH1 0x44 DUP3 ADD MSTORE SWAP1 MLOAD SWAP1 DUP2 SWAP1 SUB PUSH1 0x64 ADD SWAP1 REVERT JUMPDEST POP POP JUMP INVALID LOG2 PUSH5 0x6970667358 0x22 SLT KECCAK256 0xEA DUP12 CREATE 0xBB SAR CALLCODE 0x29 0xA7 PUSH13 0xC053E8D5B9B0E308D090CD08A SWAP13 0x28 PUSH3 0x69D6BE COINBASE LOG3 0x2C 0xAA PUSH5 0x736F6C6343 STOP SMOD MOD STOP CALLER ",
  "sha1": "668b3af8bbe958984930589776a152a28052c510",
  "source": "// SPDX-License-Identifier: Unlicense\n\npragma solidity 0.7.6;\n\nimport \"@uniswap/v3-core/contracts/interfaces/IUniswapV3Pool.sol\";\nimport \"@uniswap/v3-core/contracts/libraries/TickMath.sol\";\n\nimport \"./AlphaVault.sol\";\n\n/**\n * @title   Alpha Strategy\n * @notice  Rebalancing strategy for Alpha Vault that maintains the two\n *          following range orders:\n *\n *          1. Base order is placed between X - B and X + B + TS.\n *          2. Limit order is placed between X - L and X, or between X + TS\n *             and X + L + TS, depending on which token it holds more of.\n *\n *          where:\n *\n *              X = current tick rounded down to multiple of tick spacing\n *              TS = tick spacing\n *              B = base threshold\n *              L = limit threshold\n *\n *          Note that after these two orders, the vault should have deposited\n *          all its tokens and should only have a few wei left.\n *\n *          Because the limit order tries to sell whichever token the vault\n *          holds more of, the vault's holdings will have a tendency to get\n *          closer to a 1:1 balance. This enables it to continue providing\n *          liquidity without running out of inventory of either token, and\n *          achieves this without the need to swap directly on Uniswap and pay\n *          fees.\n */\ncontract AlphaStrategy {\n    AlphaVault public immutable vault;\n    IUniswapV3Pool public immutable pool;\n    int24 public immutable tickSpacing;\n\n    int24 public baseThreshold;\n    int24 public limitThreshold;\n    int24 public maxTwapDeviation;\n    uint32 public twapDuration;\n    address public keeper;\n\n    uint256 public lastRebalance;\n    int24 public lastTick;\n\n    /**\n     * @param _vault Underlying Alpha Vault\n     * @param _baseThreshold Used to determine base order range\n     * @param _limitThreshold Used to determine limit order range\n     * @param _maxTwapDeviation Max deviation from TWAP during rebalance\n     * @param _twapDuration TWAP duration in seconds for rebalance check\n     * @param _keeper Account that can call `rebalance()`\n     */\n    constructor(\n        address _vault,\n        int24 _baseThreshold,\n        int24 _limitThreshold,\n        int24 _maxTwapDeviation,\n        uint32 _twapDuration,\n        address _keeper\n    ) {\n        IUniswapV3Pool _pool = AlphaVault(_vault).pool();\n        int24 _tickSpacing = _pool.tickSpacing();\n\n        vault = AlphaVault(_vault);\n        pool = _pool;\n        tickSpacing = _tickSpacing;\n\n        baseThreshold = _baseThreshold;\n        limitThreshold = _limitThreshold;\n        maxTwapDeviation = _maxTwapDeviation;\n        twapDuration = _twapDuration;\n        keeper = _keeper;\n\n        _checkThreshold(_baseThreshold, _tickSpacing);\n        _checkThreshold(_limitThreshold, _tickSpacing);\n        require(_maxTwapDeviation > 0, \"maxTwapDeviation\");\n        require(_twapDuration > 0, \"twapDuration\");\n\n        (, lastTick, , , , , ) = _pool.slot0();\n    }\n\n    /**\n     * @notice Calculates new ranges for orders and calls `vault.rebalance()`\n     * so that vault can update its positions. Can only be called by keeper.\n     */\n    function rebalance() external {\n        require(msg.sender == keeper, \"keeper\");\n\n        int24 _baseThreshold = baseThreshold;\n        int24 _limitThreshold = limitThreshold;\n\n        // Check price is not too close to min/max allowed by Uniswap. Price\n        // shouldn't be this extreme unless something was wrong with the pool.\n        int24 tick = getTick();\n        int24 maxThreshold =\n            _baseThreshold > _limitThreshold ? _baseThreshold : _limitThreshold;\n        require(tick > TickMath.MIN_TICK + maxThreshold + tickSpacing, \"tick too low\");\n        require(tick < TickMath.MAX_TICK - maxThreshold - tickSpacing, \"tick too high\");\n\n        // Check price has not moved a lot recently. This mitigates price\n        // manipulation during rebalance and also prevents placing orders\n        // when it's too volatile.\n        int24 twap = getTwap();\n        int24 deviation = tick > twap ? tick - twap : twap - tick;\n        require(deviation <= maxTwapDeviation, \"maxTwapDeviation\");\n\n        int24 tickFloor = _floor(tick);\n        int24 tickCeil = tickFloor + tickSpacing;\n\n        vault.rebalance(\n            0,\n            0,\n            tickFloor - _baseThreshold,\n            tickCeil + _baseThreshold,\n            tickFloor - _limitThreshold,\n            tickFloor,\n            tickCeil,\n            tickCeil + _limitThreshold\n        );\n\n        lastRebalance = block.timestamp;\n        lastTick = tick;\n    }\n\n    /// @dev Fetches current price in ticks from Uniswap pool.\n    function getTick() public view returns (int24 tick) {\n        (, tick, , , , , ) = pool.slot0();\n    }\n\n    /// @dev Fetches time-weighted average price in ticks from Uniswap pool.\n    function getTwap() public view returns (int24) {\n        uint32 _twapDuration = twapDuration;\n        uint32[] memory secondsAgo = new uint32[](2);\n        secondsAgo[0] = _twapDuration;\n        secondsAgo[1] = 0;\n\n        (int56[] memory tickCumulatives, ) = pool.observe(secondsAgo);\n        return int24((tickCumulatives[1] - tickCumulatives[0]) / _twapDuration);\n    }\n\n    /// @dev Rounds tick down towards negative infinity so that it's a multiple\n    /// of `tickSpacing`.\n    function _floor(int24 tick) internal view returns (int24) {\n        int24 compressed = tick / tickSpacing;\n        if (tick < 0 && tick % tickSpacing != 0) compressed--;\n        return compressed * tickSpacing;\n    }\n\n    function _checkThreshold(int24 threshold, int24 _tickSpacing) internal pure {\n        require(threshold > 0, \"threshold > 0\");\n        require(threshold <= TickMath.MAX_TICK, \"threshold too high\");\n        require(threshold % _tickSpacing == 0, \"threshold % tickSpacing\");\n    }\n\n    function setKeeper(address _keeper) external onlyGovernance {\n        keeper = _keeper;\n    }\n\n    function setBaseThreshold(int24 _baseThreshold) external onlyGovernance {\n        _checkThreshold(_baseThreshold, tickSpacing);\n        baseThreshold = _baseThreshold;\n    }\n\n    function setLimitThreshold(int24 _limitThreshold) external onlyGovernance {\n        _checkThreshold(_limitThreshold, tickSpacing);\n        limitThreshold = _limitThreshold;\n    }\n\n    function setMaxTwapDeviation(int24 _maxTwapDeviation) external onlyGovernance {\n        require(_maxTwapDeviation > 0, \"maxTwapDeviation\");\n        maxTwapDeviation = _maxTwapDeviation;\n    }\n\n    function setTwapDuration(uint32 _twapDuration) external onlyGovernance {\n        require(_twapDuration > 0, \"twapDuration\");\n        twapDuration = _twapDuration;\n    }\n\n    /// @dev Uses same governance as underlying vault.\n    modifier onlyGovernance {\n        require(msg.sender == vault.governance(), \"governance\");\n        _;\n    }\n}\n",
  "sourcePath": "contracts/AlphaStrategy.sol",
  "type": "contract"
}