{
  "abi": [
    {
      "inputs": [
        {
          "internalType": "address",
          "name": "_vault",
          "type": "address"
        },
        {
          "internalType": "int24",
          "name": "_baseThreshold",
          "type": "int24"
        },
        {
          "internalType": "int24",
          "name": "_limitThreshold",
          "type": "int24"
        },
        {
          "internalType": "uint256",
          "name": "_period",
          "type": "uint256"
        },
        {
          "internalType": "int24",
          "name": "_minTickMove",
          "type": "int24"
        },
        {
          "internalType": "int24",
          "name": "_maxTwapDeviation",
          "type": "int24"
        },
        {
          "internalType": "uint32",
          "name": "_twapDuration",
          "type": "uint32"
        },
        {
          "internalType": "address",
          "name": "_keeper",
          "type": "address"
        }
      ],
      "stateMutability": "nonpayable",
      "type": "constructor"
    },
    {
      "inputs": [],
      "name": "baseThreshold",
      "outputs": [
        {
          "internalType": "int24",
          "name": "",
          "type": "int24"
        }
      ],
      "stateMutability": "view",
      "type": "function"
    },
    {
      "inputs": [],
      "name": "getTwap",
      "outputs": [
        {
          "internalType": "int24",
          "name": "",
          "type": "int24"
        }
      ],
      "stateMutability": "view",
      "type": "function"
    },
    {
      "inputs": [],
      "name": "keeper",
      "outputs": [
        {
          "internalType": "address",
          "name": "",
          "type": "address"
        }
      ],
      "stateMutability": "view",
      "type": "function"
    },
    {
      "inputs": [],
      "name": "lastTick",
      "outputs": [
        {
          "internalType": "int24",
          "name": "",
          "type": "int24"
        }
      ],
      "stateMutability": "view",
      "type": "function"
    },
    {
      "inputs": [],
      "name": "lastTimestamp",
      "outputs": [
        {
          "internalType": "uint256",
          "name": "",
          "type": "uint256"
        }
      ],
      "stateMutability": "view",
      "type": "function"
    },
    {
      "inputs": [],
      "name": "limitThreshold",
      "outputs": [
        {
          "internalType": "int24",
          "name": "",
          "type": "int24"
        }
      ],
      "stateMutability": "view",
      "type": "function"
    },
    {
      "inputs": [],
      "name": "maxTwapDeviation",
      "outputs": [
        {
          "internalType": "int24",
          "name": "",
          "type": "int24"
        }
      ],
      "stateMutability": "view",
      "type": "function"
    },
    {
      "inputs": [],
      "name": "minTickMove",
      "outputs": [
        {
          "internalType": "int24",
          "name": "",
          "type": "int24"
        }
      ],
      "stateMutability": "view",
      "type": "function"
    },
    {
      "inputs": [],
      "name": "period",
      "outputs": [
        {
          "internalType": "uint256",
          "name": "",
          "type": "uint256"
        }
      ],
      "stateMutability": "view",
      "type": "function"
    },
    {
      "inputs": [],
      "name": "pool",
      "outputs": [
        {
          "internalType": "contract IUniswapV3Pool",
          "name": "",
          "type": "address"
        }
      ],
      "stateMutability": "view",
      "type": "function"
    },
    {
      "inputs": [],
      "name": "rebalance",
      "outputs": [],
      "stateMutability": "nonpayable",
      "type": "function"
    },
    {
      "inputs": [
        {
          "internalType": "int24",
          "name": "_baseThreshold",
          "type": "int24"
        }
      ],
      "name": "setBaseThreshold",
      "outputs": [],
      "stateMutability": "nonpayable",
      "type": "function"
    },
    {
      "inputs": [
        {
          "internalType": "address",
          "name": "_keeper",
          "type": "address"
        }
      ],
      "name": "setKeeper",
      "outputs": [],
      "stateMutability": "nonpayable",
      "type": "function"
    },
    {
      "inputs": [
        {
          "internalType": "int24",
          "name": "_limitThreshold",
          "type": "int24"
        }
      ],
      "name": "setLimitThreshold",
      "outputs": [],
      "stateMutability": "nonpayable",
      "type": "function"
    },
    {
      "inputs": [
        {
          "internalType": "int24",
          "name": "_maxTwapDeviation",
          "type": "int24"
        }
      ],
      "name": "setMaxTwapDeviation",
      "outputs": [],
      "stateMutability": "nonpayable",
      "type": "function"
    },
    {
      "inputs": [
        {
          "internalType": "int24",
          "name": "_minTickMove",
          "type": "int24"
        }
      ],
      "name": "setMinTickMove",
      "outputs": [],
      "stateMutability": "nonpayable",
      "type": "function"
    },
    {
      "inputs": [
        {
          "internalType": "uint256",
          "name": "_period",
          "type": "uint256"
        }
      ],
      "name": "setPeriod",
      "outputs": [],
      "stateMutability": "nonpayable",
      "type": "function"
    },
    {
      "inputs": [
        {
          "internalType": "uint32",
          "name": "_twapDuration",
          "type": "uint32"
        }
      ],
      "name": "setTwapDuration",
      "outputs": [],
      "stateMutability": "nonpayable",
      "type": "function"
    },
    {
      "inputs": [],
      "name": "shouldRebalance",
      "outputs": [
        {
          "internalType": "bool",
          "name": "",
          "type": "bool"
        }
      ],
      "stateMutability": "view",
      "type": "function"
    },
    {
      "inputs": [],
      "name": "tickSpacing",
      "outputs": [
        {
          "internalType": "int24",
          "name": "",
          "type": "int24"
        }
      ],
      "stateMutability": "view",
      "type": "function"
    },
    {
      "inputs": [],
      "name": "twapDuration",
      "outputs": [
        {
          "internalType": "uint32",
          "name": "",
          "type": "uint32"
        }
      ],
      "stateMutability": "view",
      "type": "function"
    },
    {
      "inputs": [],
      "name": "vault",
      "outputs": [
        {
          "internalType": "contract AlphaVault",
          "name": "",
          "type": "address"
        }
      ],
      "stateMutability": "view",
      "type": "function"
    }
  ],
  "bytecode": "60e06040523480156200001157600080fd5b5060405162001b4138038062001b4183398181016040526101008110156200003857600080fd5b5080516020808301516040808501516060860151608087015160a088015160c089015160e09099015185516316f0115b60e01b81529551989996989497939692959194929390926000926001600160a01b038c16926316f0115b92600480840193829003018186803b158015620000ae57600080fd5b505afa158015620000c3573d6000803e3d6000fd5b505050506040513d6020811015620000da57600080fd5b5051604080516334324e9f60e21b815290519192506000916001600160a01b0384169163d0c93a7c916004808301926020929190829003018186803b1580156200012357600080fd5b505afa15801562000138573d6000803e3d6000fd5b505050506040513d60208110156200014f57600080fd5b81019080805190602001909291905050509050896001600160a01b03166080816001600160a01b031660601b81525050816001600160a01b031660a0816001600160a01b031660601b815250508060020b60c08160020b60e81b81525050886000806101000a81548162ffffff021916908360020b62ffffff16021790555087600060036101000a81548162ffffff021916908360020b62ffffff1602179055508660018190555085600260006101000a81548162ffffff021916908360020b62ffffff16021790555084600260036101000a81548162ffffff021916908360020b62ffffff16021790555083600260066101000a81548163ffffffff021916908363ffffffff160217905550826002600a6101000a8154816001600160a01b0302191690836001600160a01b031602179055506200029589826200044a60201b60201c565b620002a188826200044a565b60008660020b1215620002fb576040805162461bcd60e51b815260206004820152601860248201527f6d696e5469636b4d6f7665206d757374206265203e3d20300000000000000000604482015290519081900360640190fd5b60008560020b121562000355576040805162461bcd60e51b815260206004820152601d60248201527f6d617854776170446576696174696f6e206d757374206265203e3d2030000000604482015290519081900360640190fd5b60008463ffffffff1611620003b1576040805162461bcd60e51b815260206004820152601860248201527f747761704475726174696f6e206d757374206265203e20300000000000000000604482015290519081900360640190fd5b816001600160a01b0316633850c7bd6040518163ffffffff1660e01b815260040160e06040518083038186803b158015620003eb57600080fd5b505afa15801562000400573d6000803e3d6000fd5b505050506040513d60e08110156200041757600080fd5b50602001516004805460029290920b62ffffff1662ffffff19909216919091179055506200054b98505050505050505050565b60008260020b13620004a3576040805162461bcd60e51b815260206004820152601560248201527f7468726573686f6c64206d757374206265203e20300000000000000000000000604482015290519081900360640190fd5b620d89e8600283900b1315620004f5576040805162461bcd60e51b81526020600482015260126024820152710e8d0e4cae6d0ded8c840e8dede40d0d2ced60731b604482015290519081900360640190fd5b8060020b8260020b816200050557fe5b0760020b15620005475760405162461bcd60e51b815260040180806020018281038252602981526020018062001b186029913960400191505060405180910390fd5b5050565b60805160601c60a05160601c60c05160e81c611538620005e060003980610a6a5280610c325280610e3d5280610e745280610f9a528061113a52806112de528061131e528061135e5250806103fe528061063752806109a65280610cda52508061031b528061043b52806108495280610ad35280610b605280610ec85280610fe8528061117452806112b752506115386000f3fe608060405234801561001057600080fd5b50600436106101425760003560e01c8063a6329355116100b8578063c433c80a1161007c578063c433c80a146102b6578063d0c93a7c146102d9578063e7c7cb91146102e1578063ef78d4fd146102e9578063f4005cae146102f1578063fbfa77cf1461031157610142565b8063a63293551461024a578063a87bab9c1461026a578063aced166114610272578063ae2c1d5f1461027a578063af7944801461029657610142565b80633cbff3fe1161010a5780633cbff3fe146101e45780633dfa5d87146102045780635d752a9a1461020c578063748747e6146102145780637d7c2a1c1461023a578063854360ef1461024257610142565b80630f3a9f651461014757806316c3e29d1461016657806316f0115b1461018557806319d8ac61146101a957806326d89545146101c3575b600080fd5b6101646004803603602081101561015d57600080fd5b5035610319565b005b61016e6103ec565b6040805160029290920b8252519081900360200190f35b61018d6103fc565b604080516001600160a01b039092168252519081900360200190f35b6101b1610420565b60408051918252519081900360200190f35b6101cb610426565b6040805163ffffffff9092168252519081900360200190f35b610164600480360360208110156101fa57600080fd5b503560020b610439565b61016e610585565b61016e61058e565b6101646004803603602081101561022a57600080fd5b50356001600160a01b0316610847565b610164610956565b61016e610b55565b6101646004803603602081101561026057600080fd5b503560020b610b5e565b61016e610c75565b61018d610c7e565b610282610c94565b604080519115158252519081900360200190f35b610164600480360360208110156102ac57600080fd5b503560020b610ec6565b610164600480360360208110156102cc57600080fd5b503563ffffffff16610fe6565b61016e611138565b61016e61115c565b6101b161116c565b6101646004803603602081101561030757600080fd5b503560020b611172565b61018d6112b5565b7f00000000000000000000000000000000000000000000000000000000000000006001600160a01b0316635aa6e6756040518163ffffffff1660e01b815260040160206040518083038186803b15801561037257600080fd5b505afa158015610386573d6000803e3d6000fd5b505050506040513d602081101561039c57600080fd5b50516001600160a01b031633146103e7576040805162461bcd60e51b815260206004820152600a602482015269676f7665726e616e636560b01b604482015290519081900360640190fd5b600155565b6000546301000000900460020b81565b7f000000000000000000000000000000000000000000000000000000000000000081565b60035481565b600254600160301b900463ffffffff1681565b7f00000000000000000000000000000000000000000000000000000000000000006001600160a01b0316635aa6e6756040518163ffffffff1660e01b815260040160206040518083038186803b15801561049257600080fd5b505afa1580156104a6573d6000803e3d6000fd5b505050506040513d60208110156104bc57600080fd5b50516001600160a01b03163314610507576040805162461bcd60e51b815260206004820152600a602482015269676f7665726e616e636560b01b604482015290519081900360640190fd5b60008160020b1215610560576040805162461bcd60e51b815260206004820152601d60248201527f6d617854776170446576696174696f6e206d757374206265203e3d2030000000604482015290519081900360640190fd5b6002805491810b62ffffff1663010000000265ffffff00000019909216919091179055565b60045460020b81565b6002805460408051838152606081018252600093600160301b90930463ffffffff1692849260208301908036833701905050905081816000815181106105d057fe5b602002602001019063ffffffff16908163ffffffff16815250506000816001815181106105f957fe5b63ffffffff90921660209283029190910182015260405163883bdbfd60e01b8152600481018281528351602483015283516000936001600160a01b037f0000000000000000000000000000000000000000000000000000000000000000169363883bdbfd938793909283926044019185820191028083838b5b8381101561068a578181015183820152602001610672565b505050509050019250505060006040518083038186803b1580156106ad57600080fd5b505afa1580156106c1573d6000803e3d6000fd5b505050506040513d6000823e601f3d908101601f1916820160409081528110156106ea57600080fd5b810190808051604051939291908464010000000082111561070a57600080fd5b90830190602082018581111561071f57600080fd5b825186602082028301116401000000008211171561073c57600080fd5b82525081516020918201928201910280838360005b83811015610769578181015183820152602001610751565b505050509050016040526020018051604051939291908464010000000082111561079257600080fd5b9083019060208201858111156107a757600080fd5b82518660208202830111640100000000821117156107c457600080fd5b82525081516020918201928201910280838360005b838110156107f15781810151838201526020016107d9565b505050509050016040525050505090508263ffffffff168160008151811061081557fe5b60200260200101518260018151811061082a57fe5b60200260200101510360060b8161083d57fe5b0593505050505b90565b7f00000000000000000000000000000000000000000000000000000000000000006001600160a01b0316635aa6e6756040518163ffffffff1660e01b815260040160206040518083038186803b1580156108a057600080fd5b505afa1580156108b4573d6000803e3d6000fd5b505050506040513d60208110156108ca57600080fd5b50516001600160a01b03163314610915576040805162461bcd60e51b815260206004820152600a602482015269676f7665726e616e636560b01b604482015290519081900360640190fd5b600280546001600160a01b03909216600160501b027fffff0000000000000000000000000000000000000000ffffffffffffffffffff909216919091179055565b61095e610c94565b6109a2576040805162461bcd60e51b815260206004820152601060248201526f63616e6e6f7420726562616c616e636560801b604482015290519081900360640190fd5b60007f00000000000000000000000000000000000000000000000000000000000000006001600160a01b0316633850c7bd6040518163ffffffff1660e01b815260040160e06040518083038186803b1580156109fd57600080fd5b505afa158015610a11573d6000803e3d6000fd5b505050506040513d60e0811015610a2757600080fd5b506020015190506000610a39826112d9565b60008054604080516387e5e08360e01b81526004810184905260248101849052600283810b808703820b60448401527f00000000000000000000000000000000000000000000000000000000000000008701908101820b60648401526301000000909404810b808703820b608484015286820b60a484015284820b60c48401528401900b60e4820152905193945090926001600160a01b037f000000000000000000000000000000000000000000000000000000000000000016926387e5e08392610104808201939182900301818387803b158015610b1757600080fd5b505af1158015610b2b573d6000803e3d6000fd5b50504260035550506004805460029490940b62ffffff1662ffffff19909416939093179092555050565b60028054900b81565b7f00000000000000000000000000000000000000000000000000000000000000006001600160a01b0316635aa6e6756040518163ffffffff1660e01b815260040160206040518083038186803b158015610bb757600080fd5b505afa158015610bcb573d6000803e3d6000fd5b505050506040513d6020811015610be157600080fd5b50516001600160a01b03163314610c2c576040805162461bcd60e51b815260206004820152600a602482015269676f7665726e616e636560b01b604482015290519081900360640190fd5b610c56817f0000000000000000000000000000000000000000000000000000000000000000611384565b6000805460029290920b62ffffff1662ffffff19909216919091179055565b60005460020b81565b600254600160501b90046001600160a01b031681565b600254600090600160501b90046001600160a01b03163314610cb857506000610844565b600154600354610cc791611478565b421015610cd657506000610844565b60007f00000000000000000000000000000000000000000000000000000000000000006001600160a01b0316633850c7bd6040518163ffffffff1660e01b815260040160e06040518083038186803b158015610d3157600080fd5b505afa158015610d45573d6000803e3d6000fd5b505050506040513d60e0811015610d5b57600080fd5b5060200151600454909150600090600290810b810b9083900b13610d875760045460020b829003610d90565b60045460020b82035b6002805491925090810b810b9082900b1215610db157600092505050610844565b6000610dbb61058e565b905060008160020b8460020b13610dd457838203610dd8565b8184035b9050600260039054906101000a900460020b60020b8160020b1315610e04576000945050505050610844565b6000805463010000008104600290810b810b91810b900b13610e32576000546301000000900460020b610e39565b60005460020b5b90507f000000000000000000000000000000000000000000000000000000000000000081620d89e719010160020b8560020b1280610ea757507f000000000000000000000000000000000000000000000000000000000000000081620d89e719600003030360020b8560020b135b15610eba57600095505050505050610844565b60019550505050505090565b7f00000000000000000000000000000000000000000000000000000000000000006001600160a01b0316635aa6e6756040518163ffffffff1660e01b815260040160206040518083038186803b158015610f1f57600080fd5b505afa158015610f33573d6000803e3d6000fd5b505050506040513d6020811015610f4957600080fd5b50516001600160a01b03163314610f94576040805162461bcd60e51b815260206004820152600a602482015269676f7665726e616e636560b01b604482015290519081900360640190fd5b610fbe817f0000000000000000000000000000000000000000000000000000000000000000611384565b6000805460029290920b62ffffff1663010000000265ffffff00000019909216919091179055565b7f00000000000000000000000000000000000000000000000000000000000000006001600160a01b0316635aa6e6756040518163ffffffff1660e01b815260040160206040518083038186803b15801561103f57600080fd5b505afa158015611053573d6000803e3d6000fd5b505050506040513d602081101561106957600080fd5b50516001600160a01b031633146110b4576040805162461bcd60e51b815260206004820152600a602482015269676f7665726e616e636560b01b604482015290519081900360640190fd5b60008163ffffffff161161110f576040805162461bcd60e51b815260206004820152601860248201527f747761704475726174696f6e206d757374206265203e20300000000000000000604482015290519081900360640190fd5b6002805463ffffffff909216600160301b0269ffffffff00000000000019909216919091179055565b7f000000000000000000000000000000000000000000000000000000000000000081565b6002805463010000009004900b81565b60015481565b7f00000000000000000000000000000000000000000000000000000000000000006001600160a01b0316635aa6e6756040518163ffffffff1660e01b815260040160206040518083038186803b1580156111cb57600080fd5b505afa1580156111df573d6000803e3d6000fd5b505050506040513d60208110156111f557600080fd5b50516001600160a01b03163314611240576040805162461bcd60e51b815260206004820152600a602482015269676f7665726e616e636560b01b604482015290519081900360640190fd5b60008160020b1215611299576040805162461bcd60e51b815260206004820152601860248201527f6d696e5469636b4d6f7665206d757374206265203e3d20300000000000000000604482015290519081900360640190fd5b6002805491810b62ffffff1662ffffff19909216919091179055565b7f000000000000000000000000000000000000000000000000000000000000000081565b6000807f000000000000000000000000000000000000000000000000000000000000000060020b8360020b8161130b57fe5b05905060008360020b12801561135257507f000000000000000000000000000000000000000000000000000000000000000060020b8360020b8161134b57fe5b0760020b15155b1561135c57600019015b7f00000000000000000000000000000000000000000000000000000000000000000292915050565b60008260020b136113d4576040805162461bcd60e51b815260206004820152601560248201527407468726573686f6c64206d757374206265203e203605c1b604482015290519081900360640190fd5b620d89e8600283900b1315611425576040805162461bcd60e51b81526020600482015260126024820152710e8d0e4cae6d0ded8c840e8dede40d0d2ced60731b604482015290519081900360640190fd5b8060020b8260020b8161143457fe5b0760020b156114745760405162461bcd60e51b81526004018080602001828103825260298152602001806114da6029913960400191505060405180910390fd5b5050565b6000828201838110156114d2576040805162461bcd60e51b815260206004820152601b60248201527f536166654d6174683a206164646974696f6e206f766572666c6f770000000000604482015290519081900360640190fd5b939250505056fe7468726573686f6c64206d757374206265206d756c7469706c65206f66207469636b53706163696e67a26469706673582212202d8d224c6a3e3b414e21cfa3160714ac3929d7800e15234f68fc0ec16f778a5e64736f6c634300070600337468726573686f6c64206d757374206265206d756c7469706c65206f66207469636b53706163696e67",
  "bytecodeSha1": "da39a3ee5e6b4b0d3255bfef95601890afd80709",
  "compiler": {
    "evm_version": "istanbul",
    "optimizer": {
      "enabled": true,
      "runs": 200
    },
    "version": "0.7.6+commit.7338295f"
  },
  "contractName": "PassiveStrategy",
  "language": "Solidity",
  "natspec": {
    "kind": "dev",
    "methods": {
      "constructor": {
        "params": {
          "_baseThreshold": "Used to determine base order range",
          "_keeper": "Account that can call `rebalance()`",
          "_limitThreshold": "Used to determine limit order range",
          "_maxTwapDeviation": "Max deviation from TWAP during rebalance",
          "_minTickMove": "Can only rebalance if price has moved at least this much",
          "_period": "Can only rebalance if this length of time has passed",
          "_twapDuration": "TWAP duration in seconds for deviation check",
          "_vault": "Underlying Alpha Vault"
        }
      },
      "getTwap()": {
        "details": "Fetches time-weighted average price in ticks from Uniswap pool."
      },
      "rebalance()": {
        "notice": "Calculates new ranges for orders and calls `vault.rebalance()` so that vault can update its positions. Can only be called by keeper."
      }
    },
    "notice": "Rebalancing strategy for Alpha Vault that maintains the two          following range orders:          1. Base order is placed between X - B and X + B + TS.          2. Limit order is placed between X - L and X, or between X + TS             and X + L + TS, depending on which token it holds more of.          where:              X = current tick rounded down to multiple of tick spacing              TS = tick spacing              B = base threshold              L = limit threshold          Note that after these two orders, the vault should have deposited          all its tokens and should only have a few wei left.          Because the limit order tries to sell whichever token the vault          holds more of, the vault's holdings will have a tendency to get          closer to a 1:1 balance. This enables it to continue providing          liquidity without running out of inventory of either token, and          achieves this without the need to swap directly on Uniswap and pay          fees.",
    "title": "Passive Strategy",
    "version": 1
  },
  "opcodes": "PUSH1 0x80 PUSH1 0x40 MSTORE CALLVALUE DUP1 ISZERO PUSH2 0x10 JUMPI PUSH1 0x0 DUP1 REVERT JUMPDEST POP PUSH1 0x4 CALLDATASIZE LT PUSH2 0x142 JUMPI PUSH1 0x0 CALLDATALOAD PUSH1 0xE0 SHR DUP1 PUSH4 0xA6329355 GT PUSH2 0xB8 JUMPI DUP1 PUSH4 0xC433C80A GT PUSH2 0x7C JUMPI DUP1 PUSH4 0xC433C80A EQ PUSH2 0x2B6 JUMPI DUP1 PUSH4 0xD0C93A7C EQ PUSH2 0x2D9 JUMPI DUP1 PUSH4 0xE7C7CB91 EQ PUSH2 0x2E1 JUMPI DUP1 PUSH4 0xEF78D4FD EQ PUSH2 0x2E9 JUMPI DUP1 PUSH4 0xF4005CAE EQ PUSH2 0x2F1 JUMPI DUP1 PUSH4 0xFBFA77CF EQ PUSH2 0x311 JUMPI PUSH2 0x142 JUMP JUMPDEST DUP1 PUSH4 0xA6329355 EQ PUSH2 0x24A JUMPI DUP1 PUSH4 0xA87BAB9C EQ PUSH2 0x26A JUMPI DUP1 PUSH4 0xACED1661 EQ PUSH2 0x272 JUMPI DUP1 PUSH4 0xAE2C1D5F EQ PUSH2 0x27A JUMPI DUP1 PUSH4 0xAF794480 EQ PUSH2 0x296 JUMPI PUSH2 0x142 JUMP JUMPDEST DUP1 PUSH4 0x3CBFF3FE GT PUSH2 0x10A JUMPI DUP1 PUSH4 0x3CBFF3FE EQ PUSH2 0x1E4 JUMPI DUP1 PUSH4 0x3DFA5D87 EQ PUSH2 0x204 JUMPI DUP1 PUSH4 0x5D752A9A EQ PUSH2 0x20C JUMPI DUP1 PUSH4 0x748747E6 EQ PUSH2 0x214 JUMPI DUP1 PUSH4 0x7D7C2A1C EQ PUSH2 0x23A JUMPI DUP1 PUSH4 0x854360EF EQ PUSH2 0x242 JUMPI PUSH2 0x142 JUMP JUMPDEST DUP1 PUSH4 0xF3A9F65 EQ PUSH2 0x147 JUMPI DUP1 PUSH4 0x16C3E29D EQ PUSH2 0x166 JUMPI DUP1 PUSH4 0x16F0115B EQ PUSH2 0x185 JUMPI DUP1 PUSH4 0x19D8AC61 EQ PUSH2 0x1A9 JUMPI DUP1 PUSH4 0x26D89545 EQ PUSH2 0x1C3 JUMPI JUMPDEST PUSH1 0x0 DUP1 REVERT JUMPDEST PUSH2 0x164 PUSH1 0x4 DUP1 CALLDATASIZE SUB PUSH1 0x20 DUP2 LT ISZERO PUSH2 0x15D JUMPI PUSH1 0x0 DUP1 REVERT JUMPDEST POP CALLDATALOAD PUSH2 0x319 JUMP JUMPDEST STOP JUMPDEST PUSH2 0x16E PUSH2 0x3EC JUMP JUMPDEST PUSH1 0x40 DUP1 MLOAD PUSH1 0x2 SWAP3 SWAP1 SWAP3 SIGNEXTEND DUP3 MSTORE MLOAD SWAP1 DUP2 SWAP1 SUB PUSH1 0x20 ADD SWAP1 RETURN JUMPDEST PUSH2 0x18D PUSH2 0x3FC JUMP JUMPDEST PUSH1 0x40 DUP1 MLOAD PUSH1 0x1 PUSH1 0x1 PUSH1 0xA0 SHL SUB SWAP1 SWAP3 AND DUP3 MSTORE MLOAD SWAP1 DUP2 SWAP1 SUB PUSH1 0x20 ADD SWAP1 RETURN JUMPDEST PUSH2 0x1B1 PUSH2 0x420 JUMP JUMPDEST PUSH1 0x40 DUP1 MLOAD SWAP2 DUP3 MSTORE MLOAD SWAP1 DUP2 SWAP1 SUB PUSH1 0x20 ADD SWAP1 RETURN JUMPDEST PUSH2 0x1CB PUSH2 0x426 JUMP JUMPDEST PUSH1 0x40 DUP1 MLOAD PUSH4 0xFFFFFFFF SWAP1 SWAP3 AND DUP3 MSTORE MLOAD SWAP1 DUP2 SWAP1 SUB PUSH1 0x20 ADD SWAP1 RETURN JUMPDEST PUSH2 0x164 PUSH1 0x4 DUP1 CALLDATASIZE SUB PUSH1 0x20 DUP2 LT ISZERO PUSH2 0x1FA JUMPI PUSH1 0x0 DUP1 REVERT JUMPDEST POP CALLDATALOAD PUSH1 0x2 SIGNEXTEND PUSH2 0x439 JUMP JUMPDEST PUSH2 0x16E PUSH2 0x585 JUMP JUMPDEST PUSH2 0x16E PUSH2 0x58E JUMP JUMPDEST PUSH2 0x164 PUSH1 0x4 DUP1 CALLDATASIZE SUB PUSH1 0x20 DUP2 LT ISZERO PUSH2 0x22A JUMPI PUSH1 0x0 DUP1 REVERT JUMPDEST POP CALLDATALOAD PUSH1 0x1 PUSH1 0x1 PUSH1 0xA0 SHL SUB AND PUSH2 0x847 JUMP JUMPDEST PUSH2 0x164 PUSH2 0x956 JUMP JUMPDEST PUSH2 0x16E PUSH2 0xB55 JUMP JUMPDEST PUSH2 0x164 PUSH1 0x4 DUP1 CALLDATASIZE SUB PUSH1 0x20 DUP2 LT ISZERO PUSH2 0x260 JUMPI PUSH1 0x0 DUP1 REVERT JUMPDEST POP CALLDATALOAD PUSH1 0x2 SIGNEXTEND PUSH2 0xB5E JUMP JUMPDEST PUSH2 0x16E PUSH2 0xC75 JUMP JUMPDEST PUSH2 0x18D PUSH2 0xC7E JUMP JUMPDEST PUSH2 0x282 PUSH2 0xC94 JUMP JUMPDEST PUSH1 0x40 DUP1 MLOAD SWAP2 ISZERO ISZERO DUP3 MSTORE MLOAD SWAP1 DUP2 SWAP1 SUB PUSH1 0x20 ADD SWAP1 RETURN JUMPDEST PUSH2 0x164 PUSH1 0x4 DUP1 CALLDATASIZE SUB PUSH1 0x20 DUP2 LT ISZERO PUSH2 0x2AC JUMPI PUSH1 0x0 DUP1 REVERT JUMPDEST POP CALLDATALOAD PUSH1 0x2 SIGNEXTEND PUSH2 0xEC6 JUMP JUMPDEST PUSH2 0x164 PUSH1 0x4 DUP1 CALLDATASIZE SUB PUSH1 0x20 DUP2 LT ISZERO PUSH2 0x2CC JUMPI PUSH1 0x0 DUP1 REVERT JUMPDEST POP CALLDATALOAD PUSH4 0xFFFFFFFF AND PUSH2 0xFE6 JUMP JUMPDEST PUSH2 0x16E PUSH2 0x1138 JUMP JUMPDEST PUSH2 0x16E PUSH2 0x115C JUMP JUMPDEST PUSH2 0x1B1 PUSH2 0x116C JUMP JUMPDEST PUSH2 0x164 PUSH1 0x4 DUP1 CALLDATASIZE SUB PUSH1 0x20 DUP2 LT ISZERO PUSH2 0x307 JUMPI PUSH1 0x0 DUP1 REVERT JUMPDEST POP CALLDATALOAD PUSH1 0x2 SIGNEXTEND PUSH2 0x1172 JUMP JUMPDEST PUSH2 0x18D PUSH2 0x12B5 JUMP JUMPDEST PUSH32 0x0 PUSH1 0x1 PUSH1 0x1 PUSH1 0xA0 SHL SUB AND PUSH4 0x5AA6E675 PUSH1 0x40 MLOAD DUP2 PUSH4 0xFFFFFFFF AND PUSH1 0xE0 SHL DUP2 MSTORE PUSH1 0x4 ADD PUSH1 0x20 PUSH1 0x40 MLOAD DUP1 DUP4 SUB DUP2 DUP7 DUP1 EXTCODESIZE ISZERO DUP1 ISZERO PUSH2 0x372 JUMPI PUSH1 0x0 DUP1 REVERT JUMPDEST POP GAS STATICCALL ISZERO DUP1 ISZERO PUSH2 0x386 JUMPI RETURNDATASIZE PUSH1 0x0 DUP1 RETURNDATACOPY RETURNDATASIZE PUSH1 0x0 REVERT JUMPDEST POP POP POP POP PUSH1 0x40 MLOAD RETURNDATASIZE PUSH1 0x20 DUP2 LT ISZERO PUSH2 0x39C JUMPI PUSH1 0x0 DUP1 REVERT JUMPDEST POP MLOAD PUSH1 0x1 PUSH1 0x1 PUSH1 0xA0 SHL SUB AND CALLER EQ PUSH2 0x3E7 JUMPI PUSH1 0x40 DUP1 MLOAD PUSH3 0x461BCD PUSH1 0xE5 SHL DUP2 MSTORE PUSH1 0x20 PUSH1 0x4 DUP3 ADD MSTORE PUSH1 0xA PUSH1 0x24 DUP3 ADD MSTORE PUSH10 0x676F7665726E616E6365 PUSH1 0xB0 SHL PUSH1 0x44 DUP3 ADD MSTORE SWAP1 MLOAD SWAP1 DUP2 SWAP1 SUB PUSH1 0x64 ADD SWAP1 REVERT JUMPDEST PUSH1 0x1 SSTORE JUMP JUMPDEST PUSH1 0x0 SLOAD PUSH4 0x1000000 SWAP1 DIV PUSH1 0x2 SIGNEXTEND DUP2 JUMP JUMPDEST PUSH32 0x0 DUP2 JUMP JUMPDEST PUSH1 0x3 SLOAD DUP2 JUMP JUMPDEST PUSH1 0x2 SLOAD PUSH1 0x1 PUSH1 0x30 SHL SWAP1 DIV PUSH4 0xFFFFFFFF AND DUP2 JUMP JUMPDEST PUSH32 0x0 PUSH1 0x1 PUSH1 0x1 PUSH1 0xA0 SHL SUB AND PUSH4 0x5AA6E675 PUSH1 0x40 MLOAD DUP2 PUSH4 0xFFFFFFFF AND PUSH1 0xE0 SHL DUP2 MSTORE PUSH1 0x4 ADD PUSH1 0x20 PUSH1 0x40 MLOAD DUP1 DUP4 SUB DUP2 DUP7 DUP1 EXTCODESIZE ISZERO DUP1 ISZERO PUSH2 0x492 JUMPI PUSH1 0x0 DUP1 REVERT JUMPDEST POP GAS STATICCALL ISZERO DUP1 ISZERO PUSH2 0x4A6 JUMPI RETURNDATASIZE PUSH1 0x0 DUP1 RETURNDATACOPY RETURNDATASIZE PUSH1 0x0 REVERT JUMPDEST POP POP POP POP PUSH1 0x40 MLOAD RETURNDATASIZE PUSH1 0x20 DUP2 LT ISZERO PUSH2 0x4BC JUMPI PUSH1 0x0 DUP1 REVERT JUMPDEST POP MLOAD PUSH1 0x1 PUSH1 0x1 PUSH1 0xA0 SHL SUB AND CALLER EQ PUSH2 0x507 JUMPI PUSH1 0x40 DUP1 MLOAD PUSH3 0x461BCD PUSH1 0xE5 SHL DUP2 MSTORE PUSH1 0x20 PUSH1 0x4 DUP3 ADD MSTORE PUSH1 0xA PUSH1 0x24 DUP3 ADD MSTORE PUSH10 0x676F7665726E616E6365 PUSH1 0xB0 SHL PUSH1 0x44 DUP3 ADD MSTORE SWAP1 MLOAD SWAP1 DUP2 SWAP1 SUB PUSH1 0x64 ADD SWAP1 REVERT JUMPDEST PUSH1 0x0 DUP2 PUSH1 0x2 SIGNEXTEND SLT ISZERO PUSH2 0x560 JUMPI PUSH1 0x40 DUP1 MLOAD PUSH3 0x461BCD PUSH1 0xE5 SHL DUP2 MSTORE PUSH1 0x20 PUSH1 0x4 DUP3 ADD MSTORE PUSH1 0x1D PUSH1 0x24 DUP3 ADD MSTORE PUSH32 0x6D617854776170446576696174696F6E206D757374206265203E3D2030000000 PUSH1 0x44 DUP3 ADD MSTORE SWAP1 MLOAD SWAP1 DUP2 SWAP1 SUB PUSH1 0x64 ADD SWAP1 REVERT JUMPDEST PUSH1 0x2 DUP1 SLOAD SWAP2 DUP2 SIGNEXTEND PUSH3 0xFFFFFF AND PUSH4 0x1000000 MUL PUSH6 0xFFFFFF000000 NOT SWAP1 SWAP3 AND SWAP2 SWAP1 SWAP2 OR SWAP1 SSTORE JUMP JUMPDEST PUSH1 0x4 SLOAD PUSH1 0x2 SIGNEXTEND DUP2 JUMP JUMPDEST PUSH1 0x2 DUP1 SLOAD PUSH1 0x40 DUP1 MLOAD DUP4 DUP2 MSTORE PUSH1 0x60 DUP2 ADD DUP3 MSTORE PUSH1 0x0 SWAP4 PUSH1 0x1 PUSH1 0x30 SHL SWAP1 SWAP4 DIV PUSH4 0xFFFFFFFF AND SWAP3 DUP5 SWAP3 PUSH1 0x20 DUP4 ADD SWAP1 DUP1 CALLDATASIZE DUP4 CALLDATACOPY ADD SWAP1 POP POP SWAP1 POP DUP2 DUP2 PUSH1 0x0 DUP2 MLOAD DUP2 LT PUSH2 0x5D0 JUMPI INVALID JUMPDEST PUSH1 0x20 MUL PUSH1 0x20 ADD ADD SWAP1 PUSH4 0xFFFFFFFF AND SWAP1 DUP2 PUSH4 0xFFFFFFFF AND DUP2 MSTORE POP POP PUSH1 0x0 DUP2 PUSH1 0x1 DUP2 MLOAD DUP2 LT PUSH2 0x5F9 JUMPI INVALID JUMPDEST PUSH4 0xFFFFFFFF SWAP1 SWAP3 AND PUSH1 0x20 SWAP3 DUP4 MUL SWAP2 SWAP1 SWAP2 ADD DUP3 ADD MSTORE PUSH1 0x40 MLOAD PUSH4 0x883BDBFD PUSH1 0xE0 SHL DUP2 MSTORE PUSH1 0x4 DUP2 ADD DUP3 DUP2 MSTORE DUP4 MLOAD PUSH1 0x24 DUP4 ADD MSTORE DUP4 MLOAD PUSH1 0x0 SWAP4 PUSH1 0x1 PUSH1 0x1 PUSH1 0xA0 SHL SUB PUSH32 0x0 AND SWAP4 PUSH4 0x883BDBFD SWAP4 DUP8 SWAP4 SWAP1 SWAP3 DUP4 SWAP3 PUSH1 0x44 ADD SWAP2 DUP6 DUP3 ADD SWAP2 MUL DUP1 DUP4 DUP4 DUP12 JUMPDEST DUP4 DUP2 LT ISZERO PUSH2 0x68A JUMPI DUP2 DUP2 ADD MLOAD DUP4 DUP3 ADD MSTORE PUSH1 0x20 ADD PUSH2 0x672 JUMP JUMPDEST POP POP POP POP SWAP1 POP ADD SWAP3 POP POP POP PUSH1 0x0 PUSH1 0x40 MLOAD DUP1 DUP4 SUB DUP2 DUP7 DUP1 EXTCODESIZE ISZERO DUP1 ISZERO PUSH2 0x6AD JUMPI PUSH1 0x0 DUP1 REVERT JUMPDEST POP GAS STATICCALL ISZERO DUP1 ISZERO PUSH2 0x6C1 JUMPI RETURNDATASIZE PUSH1 0x0 DUP1 RETURNDATACOPY RETURNDATASIZE PUSH1 0x0 REVERT JUMPDEST POP POP POP POP PUSH1 0x40 MLOAD RETURNDATASIZE PUSH1 0x0 DUP3 RETURNDATACOPY PUSH1 0x1F RETURNDATASIZE SWAP1 DUP2 ADD PUSH1 0x1F NOT AND DUP3 ADD PUSH1 0x40 SWAP1 DUP2 MSTORE DUP2 LT ISZERO PUSH2 0x6EA JUMPI PUSH1 0x0 DUP1 REVERT JUMPDEST DUP2 ADD SWAP1 DUP1 DUP1 MLOAD PUSH1 0x40 MLOAD SWAP4 SWAP3 SWAP2 SWAP1 DUP5 PUSH5 0x100000000 DUP3 GT ISZERO PUSH2 0x70A JUMPI PUSH1 0x0 DUP1 REVERT JUMPDEST SWAP1 DUP4 ADD SWAP1 PUSH1 0x20 DUP3 ADD DUP6 DUP2 GT ISZERO PUSH2 0x71F JUMPI PUSH1 0x0 DUP1 REVERT JUMPDEST DUP3 MLOAD DUP7 PUSH1 0x20 DUP3 MUL DUP4 ADD GT PUSH5 0x100000000 DUP3 GT OR ISZERO PUSH2 0x73C JUMPI PUSH1 0x0 DUP1 REVERT JUMPDEST DUP3 MSTORE POP DUP2 MLOAD PUSH1 0x20 SWAP2 DUP3 ADD SWAP3 DUP3 ADD SWAP2 MUL DUP1 DUP4 DUP4 PUSH1 0x0 JUMPDEST DUP4 DUP2 LT ISZERO PUSH2 0x769 JUMPI DUP2 DUP2 ADD MLOAD DUP4 DUP3 ADD MSTORE PUSH1 0x20 ADD PUSH2 0x751 JUMP JUMPDEST POP POP POP POP SWAP1 POP ADD PUSH1 0x40 MSTORE PUSH1 0x20 ADD DUP1 MLOAD PUSH1 0x40 MLOAD SWAP4 SWAP3 SWAP2 SWAP1 DUP5 PUSH5 0x100000000 DUP3 GT ISZERO PUSH2 0x792 JUMPI PUSH1 0x0 DUP1 REVERT JUMPDEST SWAP1 DUP4 ADD SWAP1 PUSH1 0x20 DUP3 ADD DUP6 DUP2 GT ISZERO PUSH2 0x7A7 JUMPI PUSH1 0x0 DUP1 REVERT JUMPDEST DUP3 MLOAD DUP7 PUSH1 0x20 DUP3 MUL DUP4 ADD GT PUSH5 0x100000000 DUP3 GT OR ISZERO PUSH2 0x7C4 JUMPI PUSH1 0x0 DUP1 REVERT JUMPDEST DUP3 MSTORE POP DUP2 MLOAD PUSH1 0x20 SWAP2 DUP3 ADD SWAP3 DUP3 ADD SWAP2 MUL DUP1 DUP4 DUP4 PUSH1 0x0 JUMPDEST DUP4 DUP2 LT ISZERO PUSH2 0x7F1 JUMPI DUP2 DUP2 ADD MLOAD DUP4 DUP3 ADD MSTORE PUSH1 0x20 ADD PUSH2 0x7D9 JUMP JUMPDEST POP POP POP POP SWAP1 POP ADD PUSH1 0x40 MSTORE POP POP POP POP SWAP1 POP DUP3 PUSH4 0xFFFFFFFF AND DUP2 PUSH1 0x0 DUP2 MLOAD DUP2 LT PUSH2 0x815 JUMPI INVALID JUMPDEST PUSH1 0x20 MUL PUSH1 0x20 ADD ADD MLOAD DUP3 PUSH1 0x1 DUP2 MLOAD DUP2 LT PUSH2 0x82A JUMPI INVALID JUMPDEST PUSH1 0x20 MUL PUSH1 0x20 ADD ADD MLOAD SUB PUSH1 0x6 SIGNEXTEND DUP2 PUSH2 0x83D JUMPI INVALID JUMPDEST SDIV SWAP4 POP POP POP POP JUMPDEST SWAP1 JUMP JUMPDEST PUSH32 0x0 PUSH1 0x1 PUSH1 0x1 PUSH1 0xA0 SHL SUB AND PUSH4 0x5AA6E675 PUSH1 0x40 MLOAD DUP2 PUSH4 0xFFFFFFFF AND PUSH1 0xE0 SHL DUP2 MSTORE PUSH1 0x4 ADD PUSH1 0x20 PUSH1 0x40 MLOAD DUP1 DUP4 SUB DUP2 DUP7 DUP1 EXTCODESIZE ISZERO DUP1 ISZERO PUSH2 0x8A0 JUMPI PUSH1 0x0 DUP1 REVERT JUMPDEST POP GAS STATICCALL ISZERO DUP1 ISZERO PUSH2 0x8B4 JUMPI RETURNDATASIZE PUSH1 0x0 DUP1 RETURNDATACOPY RETURNDATASIZE PUSH1 0x0 REVERT JUMPDEST POP POP POP POP PUSH1 0x40 MLOAD RETURNDATASIZE PUSH1 0x20 DUP2 LT ISZERO PUSH2 0x8CA JUMPI PUSH1 0x0 DUP1 REVERT JUMPDEST POP MLOAD PUSH1 0x1 PUSH1 0x1 PUSH1 0xA0 SHL SUB AND CALLER EQ PUSH2 0x915 JUMPI PUSH1 0x40 DUP1 MLOAD PUSH3 0x461BCD PUSH1 0xE5 SHL DUP2 MSTORE PUSH1 0x20 PUSH1 0x4 DUP3 ADD MSTORE PUSH1 0xA PUSH1 0x24 DUP3 ADD MSTORE PUSH10 0x676F7665726E616E6365 PUSH1 0xB0 SHL PUSH1 0x44 DUP3 ADD MSTORE SWAP1 MLOAD SWAP1 DUP2 SWAP1 SUB PUSH1 0x64 ADD SWAP1 REVERT JUMPDEST PUSH1 0x2 DUP1 SLOAD PUSH1 0x1 PUSH1 0x1 PUSH1 0xA0 SHL SUB SWAP1 SWAP3 AND PUSH1 0x1 PUSH1 0x50 SHL MUL PUSH32 0xFFFF0000000000000000000000000000000000000000FFFFFFFFFFFFFFFFFFFF SWAP1 SWAP3 AND SWAP2 SWAP1 SWAP2 OR SWAP1 SSTORE JUMP JUMPDEST PUSH2 0x95E PUSH2 0xC94 JUMP JUMPDEST PUSH2 0x9A2 JUMPI PUSH1 0x40 DUP1 MLOAD PUSH3 0x461BCD PUSH1 0xE5 SHL DUP2 MSTORE PUSH1 0x20 PUSH1 0x4 DUP3 ADD MSTORE PUSH1 0x10 PUSH1 0x24 DUP3 ADD MSTORE PUSH16 0x63616E6E6F7420726562616C616E6365 PUSH1 0x80 SHL PUSH1 0x44 DUP3 ADD MSTORE SWAP1 MLOAD SWAP1 DUP2 SWAP1 SUB PUSH1 0x64 ADD SWAP1 REVERT JUMPDEST PUSH1 0x0 PUSH32 0x0 PUSH1 0x1 PUSH1 0x1 PUSH1 0xA0 SHL SUB AND PUSH4 0x3850C7BD PUSH1 0x40 MLOAD DUP2 PUSH4 0xFFFFFFFF AND PUSH1 0xE0 SHL DUP2 MSTORE PUSH1 0x4 ADD PUSH1 0xE0 PUSH1 0x40 MLOAD DUP1 DUP4 SUB DUP2 DUP7 DUP1 EXTCODESIZE ISZERO DUP1 ISZERO PUSH2 0x9FD JUMPI PUSH1 0x0 DUP1 REVERT JUMPDEST POP GAS STATICCALL ISZERO DUP1 ISZERO PUSH2 0xA11 JUMPI RETURNDATASIZE PUSH1 0x0 DUP1 RETURNDATACOPY RETURNDATASIZE PUSH1 0x0 REVERT JUMPDEST POP POP POP POP PUSH1 0x40 MLOAD RETURNDATASIZE PUSH1 0xE0 DUP2 LT ISZERO PUSH2 0xA27 JUMPI PUSH1 0x0 DUP1 REVERT JUMPDEST POP PUSH1 0x20 ADD MLOAD SWAP1 POP PUSH1 0x0 PUSH2 0xA39 DUP3 PUSH2 0x12D9 JUMP JUMPDEST PUSH1 0x0 DUP1 SLOAD PUSH1 0x40 DUP1 MLOAD PUSH4 0x87E5E083 PUSH1 0xE0 SHL DUP2 MSTORE PUSH1 0x4 DUP2 ADD DUP5 SWAP1 MSTORE PUSH1 0x24 DUP2 ADD DUP5 SWAP1 MSTORE PUSH1 0x2 DUP4 DUP2 SIGNEXTEND DUP1 DUP8 SUB DUP3 SIGNEXTEND PUSH1 0x44 DUP5 ADD MSTORE PUSH32 0x0 DUP8 ADD SWAP1 DUP2 ADD DUP3 SIGNEXTEND PUSH1 0x64 DUP5 ADD MSTORE PUSH4 0x1000000 SWAP1 SWAP5 DIV DUP2 SIGNEXTEND DUP1 DUP8 SUB DUP3 SIGNEXTEND PUSH1 0x84 DUP5 ADD MSTORE DUP7 DUP3 SIGNEXTEND PUSH1 0xA4 DUP5 ADD MSTORE DUP5 DUP3 SIGNEXTEND PUSH1 0xC4 DUP5 ADD MSTORE DUP5 ADD SWAP1 SIGNEXTEND PUSH1 0xE4 DUP3 ADD MSTORE SWAP1 MLOAD SWAP4 SWAP5 POP SWAP1 SWAP3 PUSH1 0x1 PUSH1 0x1 PUSH1 0xA0 SHL SUB PUSH32 0x0 AND SWAP3 PUSH4 0x87E5E083 SWAP3 PUSH2 0x104 DUP1 DUP3 ADD SWAP4 SWAP2 DUP3 SWAP1 SUB ADD DUP2 DUP4 DUP8 DUP1 EXTCODESIZE ISZERO DUP1 ISZERO PUSH2 0xB17 JUMPI PUSH1 0x0 DUP1 REVERT JUMPDEST POP GAS CALL ISZERO DUP1 ISZERO PUSH2 0xB2B JUMPI RETURNDATASIZE PUSH1 0x0 DUP1 RETURNDATACOPY RETURNDATASIZE PUSH1 0x0 REVERT JUMPDEST POP POP TIMESTAMP PUSH1 0x3 SSTORE POP POP PUSH1 0x4 DUP1 SLOAD PUSH1 0x2 SWAP5 SWAP1 SWAP5 SIGNEXTEND PUSH3 0xFFFFFF AND PUSH3 0xFFFFFF NOT SWAP1 SWAP5 AND SWAP4 SWAP1 SWAP4 OR SWAP1 SWAP3 SSTORE POP POP JUMP JUMPDEST PUSH1 0x2 DUP1 SLOAD SWAP1 SIGNEXTEND DUP2 JUMP JUMPDEST PUSH32 0x0 PUSH1 0x1 PUSH1 0x1 PUSH1 0xA0 SHL SUB AND PUSH4 0x5AA6E675 PUSH1 0x40 MLOAD DUP2 PUSH4 0xFFFFFFFF AND PUSH1 0xE0 SHL DUP2 MSTORE PUSH1 0x4 ADD PUSH1 0x20 PUSH1 0x40 MLOAD DUP1 DUP4 SUB DUP2 DUP7 DUP1 EXTCODESIZE ISZERO DUP1 ISZERO PUSH2 0xBB7 JUMPI PUSH1 0x0 DUP1 REVERT JUMPDEST POP GAS STATICCALL ISZERO DUP1 ISZERO PUSH2 0xBCB JUMPI RETURNDATASIZE PUSH1 0x0 DUP1 RETURNDATACOPY RETURNDATASIZE PUSH1 0x0 REVERT JUMPDEST POP POP POP POP PUSH1 0x40 MLOAD RETURNDATASIZE PUSH1 0x20 DUP2 LT ISZERO PUSH2 0xBE1 JUMPI PUSH1 0x0 DUP1 REVERT JUMPDEST POP MLOAD PUSH1 0x1 PUSH1 0x1 PUSH1 0xA0 SHL SUB AND CALLER EQ PUSH2 0xC2C JUMPI PUSH1 0x40 DUP1 MLOAD PUSH3 0x461BCD PUSH1 0xE5 SHL DUP2 MSTORE PUSH1 0x20 PUSH1 0x4 DUP3 ADD MSTORE PUSH1 0xA PUSH1 0x24 DUP3 ADD MSTORE PUSH10 0x676F7665726E616E6365 PUSH1 0xB0 SHL PUSH1 0x44 DUP3 ADD MSTORE SWAP1 MLOAD SWAP1 DUP2 SWAP1 SUB PUSH1 0x64 ADD SWAP1 REVERT JUMPDEST PUSH2 0xC56 DUP2 PUSH32 0x0 PUSH2 0x1384 JUMP JUMPDEST PUSH1 0x0 DUP1 SLOAD PUSH1 0x2 SWAP3 SWAP1 SWAP3 SIGNEXTEND PUSH3 0xFFFFFF AND PUSH3 0xFFFFFF NOT SWAP1 SWAP3 AND SWAP2 SWAP1 SWAP2 OR SWAP1 SSTORE JUMP JUMPDEST PUSH1 0x0 SLOAD PUSH1 0x2 SIGNEXTEND DUP2 JUMP JUMPDEST PUSH1 0x2 SLOAD PUSH1 0x1 PUSH1 0x50 SHL SWAP1 DIV PUSH1 0x1 PUSH1 0x1 PUSH1 0xA0 SHL SUB AND DUP2 JUMP JUMPDEST PUSH1 0x2 SLOAD PUSH1 0x0 SWAP1 PUSH1 0x1 PUSH1 0x50 SHL SWAP1 DIV PUSH1 0x1 PUSH1 0x1 PUSH1 0xA0 SHL SUB AND CALLER EQ PUSH2 0xCB8 JUMPI POP PUSH1 0x0 PUSH2 0x844 JUMP JUMPDEST PUSH1 0x1 SLOAD PUSH1 0x3 SLOAD PUSH2 0xCC7 SWAP2 PUSH2 0x1478 JUMP JUMPDEST TIMESTAMP LT ISZERO PUSH2 0xCD6 JUMPI POP PUSH1 0x0 PUSH2 0x844 JUMP JUMPDEST PUSH1 0x0 PUSH32 0x0 PUSH1 0x1 PUSH1 0x1 PUSH1 0xA0 SHL SUB AND PUSH4 0x3850C7BD PUSH1 0x40 MLOAD DUP2 PUSH4 0xFFFFFFFF AND PUSH1 0xE0 SHL DUP2 MSTORE PUSH1 0x4 ADD PUSH1 0xE0 PUSH1 0x40 MLOAD DUP1 DUP4 SUB DUP2 DUP7 DUP1 EXTCODESIZE ISZERO DUP1 ISZERO PUSH2 0xD31 JUMPI PUSH1 0x0 DUP1 REVERT JUMPDEST POP GAS STATICCALL ISZERO DUP1 ISZERO PUSH2 0xD45 JUMPI RETURNDATASIZE PUSH1 0x0 DUP1 RETURNDATACOPY RETURNDATASIZE PUSH1 0x0 REVERT JUMPDEST POP POP POP POP PUSH1 0x40 MLOAD RETURNDATASIZE PUSH1 0xE0 DUP2 LT ISZERO PUSH2 0xD5B JUMPI PUSH1 0x0 DUP1 REVERT JUMPDEST POP PUSH1 0x20 ADD MLOAD PUSH1 0x4 SLOAD SWAP1 SWAP2 POP PUSH1 0x0 SWAP1 PUSH1 0x2 SWAP1 DUP2 SIGNEXTEND DUP2 SIGNEXTEND SWAP1 DUP4 SWAP1 SIGNEXTEND SGT PUSH2 0xD87 JUMPI PUSH1 0x4 SLOAD PUSH1 0x2 SIGNEXTEND DUP3 SWAP1 SUB PUSH2 0xD90 JUMP JUMPDEST PUSH1 0x4 SLOAD PUSH1 0x2 SIGNEXTEND DUP3 SUB JUMPDEST PUSH1 0x2 DUP1 SLOAD SWAP2 SWAP3 POP SWAP1 DUP2 SIGNEXTEND DUP2 SIGNEXTEND SWAP1 DUP3 SWAP1 SIGNEXTEND SLT ISZERO PUSH2 0xDB1 JUMPI PUSH1 0x0 SWAP3 POP POP POP PUSH2 0x844 JUMP JUMPDEST PUSH1 0x0 PUSH2 0xDBB PUSH2 0x58E JUMP JUMPDEST SWAP1 POP PUSH1 0x0 DUP2 PUSH1 0x2 SIGNEXTEND DUP5 PUSH1 0x2 SIGNEXTEND SGT PUSH2 0xDD4 JUMPI DUP4 DUP3 SUB PUSH2 0xDD8 JUMP JUMPDEST DUP2 DUP5 SUB JUMPDEST SWAP1 POP PUSH1 0x2 PUSH1 0x3 SWAP1 SLOAD SWAP1 PUSH2 0x100 EXP SWAP1 DIV PUSH1 0x2 SIGNEXTEND PUSH1 0x2 SIGNEXTEND DUP2 PUSH1 0x2 SIGNEXTEND SGT ISZERO PUSH2 0xE04 JUMPI PUSH1 0x0 SWAP5 POP POP POP POP POP PUSH2 0x844 JUMP JUMPDEST PUSH1 0x0 DUP1 SLOAD PUSH4 0x1000000 DUP2 DIV PUSH1 0x2 SWAP1 DUP2 SIGNEXTEND DUP2 SIGNEXTEND SWAP2 DUP2 SIGNEXTEND SWAP1 SIGNEXTEND SGT PUSH2 0xE32 JUMPI PUSH1 0x0 SLOAD PUSH4 0x1000000 SWAP1 DIV PUSH1 0x2 SIGNEXTEND PUSH2 0xE39 JUMP JUMPDEST PUSH1 0x0 SLOAD PUSH1 0x2 SIGNEXTEND JUMPDEST SWAP1 POP PUSH32 0x0 DUP2 PUSH3 0xD89E7 NOT ADD ADD PUSH1 0x2 SIGNEXTEND DUP6 PUSH1 0x2 SIGNEXTEND SLT DUP1 PUSH2 0xEA7 JUMPI POP PUSH32 0x0 DUP2 PUSH3 0xD89E7 NOT PUSH1 0x0 SUB SUB SUB PUSH1 0x2 SIGNEXTEND DUP6 PUSH1 0x2 SIGNEXTEND SGT JUMPDEST ISZERO PUSH2 0xEBA JUMPI PUSH1 0x0 SWAP6 POP POP POP POP POP POP PUSH2 0x844 JUMP JUMPDEST PUSH1 0x1 SWAP6 POP POP POP POP POP POP SWAP1 JUMP JUMPDEST PUSH32 0x0 PUSH1 0x1 PUSH1 0x1 PUSH1 0xA0 SHL SUB AND PUSH4 0x5AA6E675 PUSH1 0x40 MLOAD DUP2 PUSH4 0xFFFFFFFF AND PUSH1 0xE0 SHL DUP2 MSTORE PUSH1 0x4 ADD PUSH1 0x20 PUSH1 0x40 MLOAD DUP1 DUP4 SUB DUP2 DUP7 DUP1 EXTCODESIZE ISZERO DUP1 ISZERO PUSH2 0xF1F JUMPI PUSH1 0x0 DUP1 REVERT JUMPDEST POP GAS STATICCALL ISZERO DUP1 ISZERO PUSH2 0xF33 JUMPI RETURNDATASIZE PUSH1 0x0 DUP1 RETURNDATACOPY RETURNDATASIZE PUSH1 0x0 REVERT JUMPDEST POP POP POP POP PUSH1 0x40 MLOAD RETURNDATASIZE PUSH1 0x20 DUP2 LT ISZERO PUSH2 0xF49 JUMPI PUSH1 0x0 DUP1 REVERT JUMPDEST POP MLOAD PUSH1 0x1 PUSH1 0x1 PUSH1 0xA0 SHL SUB AND CALLER EQ PUSH2 0xF94 JUMPI PUSH1 0x40 DUP1 MLOAD PUSH3 0x461BCD PUSH1 0xE5 SHL DUP2 MSTORE PUSH1 0x20 PUSH1 0x4 DUP3 ADD MSTORE PUSH1 0xA PUSH1 0x24 DUP3 ADD MSTORE PUSH10 0x676F7665726E616E6365 PUSH1 0xB0 SHL PUSH1 0x44 DUP3 ADD MSTORE SWAP1 MLOAD SWAP1 DUP2 SWAP1 SUB PUSH1 0x64 ADD SWAP1 REVERT JUMPDEST PUSH2 0xFBE DUP2 PUSH32 0x0 PUSH2 0x1384 JUMP JUMPDEST PUSH1 0x0 DUP1 SLOAD PUSH1 0x2 SWAP3 SWAP1 SWAP3 SIGNEXTEND PUSH3 0xFFFFFF AND PUSH4 0x1000000 MUL PUSH6 0xFFFFFF000000 NOT SWAP1 SWAP3 AND SWAP2 SWAP1 SWAP2 OR SWAP1 SSTORE JUMP JUMPDEST PUSH32 0x0 PUSH1 0x1 PUSH1 0x1 PUSH1 0xA0 SHL SUB AND PUSH4 0x5AA6E675 PUSH1 0x40 MLOAD DUP2 PUSH4 0xFFFFFFFF AND PUSH1 0xE0 SHL DUP2 MSTORE PUSH1 0x4 ADD PUSH1 0x20 PUSH1 0x40 MLOAD DUP1 DUP4 SUB DUP2 DUP7 DUP1 EXTCODESIZE ISZERO DUP1 ISZERO PUSH2 0x103F JUMPI PUSH1 0x0 DUP1 REVERT JUMPDEST POP GAS STATICCALL ISZERO DUP1 ISZERO PUSH2 0x1053 JUMPI RETURNDATASIZE PUSH1 0x0 DUP1 RETURNDATACOPY RETURNDATASIZE PUSH1 0x0 REVERT JUMPDEST POP POP POP POP PUSH1 0x40 MLOAD RETURNDATASIZE PUSH1 0x20 DUP2 LT ISZERO PUSH2 0x1069 JUMPI PUSH1 0x0 DUP1 REVERT JUMPDEST POP MLOAD PUSH1 0x1 PUSH1 0x1 PUSH1 0xA0 SHL SUB AND CALLER EQ PUSH2 0x10B4 JUMPI PUSH1 0x40 DUP1 MLOAD PUSH3 0x461BCD PUSH1 0xE5 SHL DUP2 MSTORE PUSH1 0x20 PUSH1 0x4 DUP3 ADD MSTORE PUSH1 0xA PUSH1 0x24 DUP3 ADD MSTORE PUSH10 0x676F7665726E616E6365 PUSH1 0xB0 SHL PUSH1 0x44 DUP3 ADD MSTORE SWAP1 MLOAD SWAP1 DUP2 SWAP1 SUB PUSH1 0x64 ADD SWAP1 REVERT JUMPDEST PUSH1 0x0 DUP2 PUSH4 0xFFFFFFFF AND GT PUSH2 0x110F JUMPI PUSH1 0x40 DUP1 MLOAD PUSH3 0x461BCD PUSH1 0xE5 SHL DUP2 MSTORE PUSH1 0x20 PUSH1 0x4 DUP3 ADD MSTORE PUSH1 0x18 PUSH1 0x24 DUP3 ADD MSTORE PUSH32 0x747761704475726174696F6E206D757374206265203E20300000000000000000 PUSH1 0x44 DUP3 ADD MSTORE SWAP1 MLOAD SWAP1 DUP2 SWAP1 SUB PUSH1 0x64 ADD SWAP1 REVERT JUMPDEST PUSH1 0x2 DUP1 SLOAD PUSH4 0xFFFFFFFF SWAP1 SWAP3 AND PUSH1 0x1 PUSH1 0x30 SHL MUL PUSH10 0xFFFFFFFF000000000000 NOT SWAP1 SWAP3 AND SWAP2 SWAP1 SWAP2 OR SWAP1 SSTORE JUMP JUMPDEST PUSH32 0x0 DUP2 JUMP JUMPDEST PUSH1 0x2 DUP1 SLOAD PUSH4 0x1000000 SWAP1 DIV SWAP1 SIGNEXTEND DUP2 JUMP JUMPDEST PUSH1 0x1 SLOAD DUP2 JUMP JUMPDEST PUSH32 0x0 PUSH1 0x1 PUSH1 0x1 PUSH1 0xA0 SHL SUB AND PUSH4 0x5AA6E675 PUSH1 0x40 MLOAD DUP2 PUSH4 0xFFFFFFFF AND PUSH1 0xE0 SHL DUP2 MSTORE PUSH1 0x4 ADD PUSH1 0x20 PUSH1 0x40 MLOAD DUP1 DUP4 SUB DUP2 DUP7 DUP1 EXTCODESIZE ISZERO DUP1 ISZERO PUSH2 0x11CB JUMPI PUSH1 0x0 DUP1 REVERT JUMPDEST POP GAS STATICCALL ISZERO DUP1 ISZERO PUSH2 0x11DF JUMPI RETURNDATASIZE PUSH1 0x0 DUP1 RETURNDATACOPY RETURNDATASIZE PUSH1 0x0 REVERT JUMPDEST POP POP POP POP PUSH1 0x40 MLOAD RETURNDATASIZE PUSH1 0x20 DUP2 LT ISZERO PUSH2 0x11F5 JUMPI PUSH1 0x0 DUP1 REVERT JUMPDEST POP MLOAD PUSH1 0x1 PUSH1 0x1 PUSH1 0xA0 SHL SUB AND CALLER EQ PUSH2 0x1240 JUMPI PUSH1 0x40 DUP1 MLOAD PUSH3 0x461BCD PUSH1 0xE5 SHL DUP2 MSTORE PUSH1 0x20 PUSH1 0x4 DUP3 ADD MSTORE PUSH1 0xA PUSH1 0x24 DUP3 ADD MSTORE PUSH10 0x676F7665726E616E6365 PUSH1 0xB0 SHL PUSH1 0x44 DUP3 ADD MSTORE SWAP1 MLOAD SWAP1 DUP2 SWAP1 SUB PUSH1 0x64 ADD SWAP1 REVERT JUMPDEST PUSH1 0x0 DUP2 PUSH1 0x2 SIGNEXTEND SLT ISZERO PUSH2 0x1299 JUMPI PUSH1 0x40 DUP1 MLOAD PUSH3 0x461BCD PUSH1 0xE5 SHL DUP2 MSTORE PUSH1 0x20 PUSH1 0x4 DUP3 ADD MSTORE PUSH1 0x18 PUSH1 0x24 DUP3 ADD MSTORE PUSH32 0x6D696E5469636B4D6F7665206D757374206265203E3D20300000000000000000 PUSH1 0x44 DUP3 ADD MSTORE SWAP1 MLOAD SWAP1 DUP2 SWAP1 SUB PUSH1 0x64 ADD SWAP1 REVERT JUMPDEST PUSH1 0x2 DUP1 SLOAD SWAP2 DUP2 SIGNEXTEND PUSH3 0xFFFFFF AND PUSH3 0xFFFFFF NOT SWAP1 SWAP3 AND SWAP2 SWAP1 SWAP2 OR SWAP1 SSTORE JUMP JUMPDEST PUSH32 0x0 DUP2 JUMP JUMPDEST PUSH1 0x0 DUP1 PUSH32 0x0 PUSH1 0x2 SIGNEXTEND DUP4 PUSH1 0x2 SIGNEXTEND DUP2 PUSH2 0x130B JUMPI INVALID JUMPDEST SDIV SWAP1 POP PUSH1 0x0 DUP4 PUSH1 0x2 SIGNEXTEND SLT DUP1 ISZERO PUSH2 0x1352 JUMPI POP PUSH32 0x0 PUSH1 0x2 SIGNEXTEND DUP4 PUSH1 0x2 SIGNEXTEND DUP2 PUSH2 0x134B JUMPI INVALID JUMPDEST SMOD PUSH1 0x2 SIGNEXTEND ISZERO ISZERO JUMPDEST ISZERO PUSH2 0x135C JUMPI PUSH1 0x0 NOT ADD JUMPDEST PUSH32 0x0 MUL SWAP3 SWAP2 POP POP JUMP JUMPDEST PUSH1 0x0 DUP3 PUSH1 0x2 SIGNEXTEND SGT PUSH2 0x13D4 JUMPI PUSH1 0x40 DUP1 MLOAD PUSH3 0x461BCD PUSH1 0xE5 SHL DUP2 MSTORE PUSH1 0x20 PUSH1 0x4 DUP3 ADD MSTORE PUSH1 0x15 PUSH1 0x24 DUP3 ADD MSTORE PUSH21 0x7468726573686F6C64206D757374206265203E203 PUSH1 0x5C SHL PUSH1 0x44 DUP3 ADD MSTORE SWAP1 MLOAD SWAP1 DUP2 SWAP1 SUB PUSH1 0x64 ADD SWAP1 REVERT JUMPDEST PUSH3 0xD89E8 PUSH1 0x2 DUP4 SWAP1 SIGNEXTEND SGT ISZERO PUSH2 0x1425 JUMPI PUSH1 0x40 DUP1 MLOAD PUSH3 0x461BCD PUSH1 0xE5 SHL DUP2 MSTORE PUSH1 0x20 PUSH1 0x4 DUP3 ADD MSTORE PUSH1 0x12 PUSH1 0x24 DUP3 ADD MSTORE PUSH18 0xE8D0E4CAE6D0DED8C840E8DEDE40D0D2CED PUSH1 0x73 SHL PUSH1 0x44 DUP3 ADD MSTORE SWAP1 MLOAD SWAP1 DUP2 SWAP1 SUB PUSH1 0x64 ADD SWAP1 REVERT JUMPDEST DUP1 PUSH1 0x2 SIGNEXTEND DUP3 PUSH1 0x2 SIGNEXTEND DUP2 PUSH2 0x1434 JUMPI INVALID JUMPDEST SMOD PUSH1 0x2 SIGNEXTEND ISZERO PUSH2 0x1474 JUMPI PUSH1 0x40 MLOAD PUSH3 0x461BCD PUSH1 0xE5 SHL DUP2 MSTORE PUSH1 0x4 ADD DUP1 DUP1 PUSH1 0x20 ADD DUP3 DUP2 SUB DUP3 MSTORE PUSH1 0x29 DUP2 MSTORE PUSH1 0x20 ADD DUP1 PUSH2 0x14DA PUSH1 0x29 SWAP2 CODECOPY PUSH1 0x40 ADD SWAP2 POP POP PUSH1 0x40 MLOAD DUP1 SWAP2 SUB SWAP1 REVERT JUMPDEST POP POP JUMP JUMPDEST PUSH1 0x0 DUP3 DUP3 ADD DUP4 DUP2 LT ISZERO PUSH2 0x14D2 JUMPI PUSH1 0x40 DUP1 MLOAD PUSH3 0x461BCD PUSH1 0xE5 SHL DUP2 MSTORE PUSH1 0x20 PUSH1 0x4 DUP3 ADD MSTORE PUSH1 0x1B PUSH1 0x24 DUP3 ADD MSTORE PUSH32 0x536166654D6174683A206164646974696F6E206F766572666C6F770000000000 PUSH1 0x44 DUP3 ADD MSTORE SWAP1 MLOAD SWAP1 DUP2 SWAP1 SUB PUSH1 0x64 ADD SWAP1 REVERT JUMPDEST SWAP4 SWAP3 POP POP POP JUMP INVALID PUSH21 0x68726573686F6C64206D757374206265206D756C74 PUSH10 0x706C65206F6620746963 PUSH12 0x53706163696E67A264697066 PUSH20 0x582212202D8D224C6A3E3B414E21CFA3160714AC CODECOPY 0x29 0xD7 DUP1 0xE ISZERO 0x23 0x4F PUSH9 0xFC0EC16F778A5E6473 PUSH16 0x6C634300070600330000000000000000 ",
  "sha1": "c748d2ea5db3151efe1dcede7e705cd3f1fe3727",
  "source": "// SPDX-License-Identifier: Unlicense\n\npragma solidity 0.7.6;\n\nimport \"@openzeppelin/contracts/math/SafeMath.sol\";\nimport \"@uniswap/v3-core/contracts/interfaces/IUniswapV3Pool.sol\";\nimport \"@uniswap/v3-core/contracts/libraries/TickMath.sol\";\n\nimport \"./AlphaVault.sol\";\nimport \"../interfaces/IStrategy.sol\";\n\n/**\n * @title   Passive Strategy\n * @notice  Rebalancing strategy for Alpha Vault that maintains the two\n *          following range orders:\n *\n *          1. Base order is placed between X - B and X + B + TS.\n *          2. Limit order is placed between X - L and X, or between X + TS\n *             and X + L + TS, depending on which token it holds more of.\n *\n *          where:\n *\n *              X = current tick rounded down to multiple of tick spacing\n *              TS = tick spacing\n *              B = base threshold\n *              L = limit threshold\n *\n *          Note that after these two orders, the vault should have deposited\n *          all its tokens and should only have a few wei left.\n *\n *          Because the limit order tries to sell whichever token the vault\n *          holds more of, the vault's holdings will have a tendency to get\n *          closer to a 1:1 balance. This enables it to continue providing\n *          liquidity without running out of inventory of either token, and\n *          achieves this without the need to swap directly on Uniswap and pay\n *          fees.\n */\ncontract PassiveStrategy is IStrategy {\n    using SafeMath for uint256;\n\n    AlphaVault public immutable vault;\n    IUniswapV3Pool public immutable pool;\n    int24 public immutable tickSpacing;\n\n    int24 public baseThreshold;\n    int24 public limitThreshold;\n    uint256 public period;\n    int24 public minTickMove;\n    int24 public maxTwapDeviation;\n    uint32 public twapDuration;\n    address public keeper;\n\n    uint256 public lastTimestamp;\n    int24 public lastTick;\n\n    /**\n     * @param _vault Underlying Alpha Vault\n     * @param _baseThreshold Used to determine base order range\n     * @param _limitThreshold Used to determine limit order range\n     * @param _period Can only rebalance if this length of time has passed\n     * @param _minTickMove Can only rebalance if price has moved at least this much\n     * @param _maxTwapDeviation Max deviation from TWAP during rebalance\n     * @param _twapDuration TWAP duration in seconds for deviation check\n     * @param _keeper Account that can call `rebalance()`\n     */\n    constructor(\n        address _vault,\n        int24 _baseThreshold,\n        int24 _limitThreshold,\n        uint256 _period,\n        int24 _minTickMove,\n        int24 _maxTwapDeviation,\n        uint32 _twapDuration,\n        address _keeper\n    ) {\n        IUniswapV3Pool _pool = AlphaVault(_vault).pool();\n        int24 _tickSpacing = _pool.tickSpacing();\n\n        vault = AlphaVault(_vault);\n        pool = _pool;\n        tickSpacing = _tickSpacing;\n\n        baseThreshold = _baseThreshold;\n        limitThreshold = _limitThreshold;\n        period = _period;\n        minTickMove = _minTickMove;\n        maxTwapDeviation = _maxTwapDeviation;\n        twapDuration = _twapDuration;\n        keeper = _keeper;\n\n        _checkThreshold(_baseThreshold, _tickSpacing);\n        _checkThreshold(_limitThreshold, _tickSpacing);\n        require(_minTickMove >= 0, \"minTickMove must be >= 0\");\n        require(_maxTwapDeviation >= 0, \"maxTwapDeviation must be >= 0\");\n        require(_twapDuration > 0, \"twapDuration must be > 0\");\n\n        (, lastTick, , , , , ) = _pool.slot0();\n    }\n\n    /**\n     * @notice Calculates new ranges for orders and calls `vault.rebalance()`\n     * so that vault can update its positions. Can only be called by keeper.\n     */\n    function rebalance() external override {\n        require(shouldRebalance(), \"cannot rebalance\");\n\n        (, int24 tick, , , , , ) = pool.slot0();\n        int24 tickFloor = _floor(tick);\n        int24 tickCeil = tickFloor + tickSpacing;\n\n        vault.rebalance(\n            0,\n            0,\n            tickFloor - baseThreshold,\n            tickCeil + baseThreshold,\n            tickFloor - limitThreshold,\n            tickFloor,\n            tickCeil,\n            tickCeil + limitThreshold\n        );\n\n        lastTimestamp = block.timestamp;\n        lastTick = tick;\n    }\n\n    function shouldRebalance() public view override returns (bool) {\n        // check called by keeper\n        if (msg.sender != keeper) {\n            return false;\n        }\n\n        // check enough time has passed\n        if (block.timestamp < lastTimestamp.add(period)) {\n            return false;\n        }\n\n        // check price has moved enough\n        (, int24 tick, , , , , ) = pool.slot0();\n        int24 tickMove = tick > lastTick ? tick - lastTick : lastTick - tick;\n        if (tickMove < minTickMove) {\n            return false;\n        }\n\n        // check price near twap\n        int24 twap = getTwap();\n        int24 twapDeviation = tick > twap ? tick - twap : twap - tick;\n        if (twapDeviation > maxTwapDeviation) {\n            return false;\n        }\n\n        // check price not too close to boundary\n        int24 maxThreshold = baseThreshold > limitThreshold ? baseThreshold : limitThreshold;\n        if (\n            tick < TickMath.MIN_TICK + maxThreshold + tickSpacing ||\n            tick > TickMath.MAX_TICK - maxThreshold - tickSpacing\n        ) {\n            return false;\n        }\n\n        return true;\n    }\n\n    /// @dev Fetches time-weighted average price in ticks from Uniswap pool.\n    function getTwap() public view returns (int24) {\n        uint32 _twapDuration = twapDuration;\n        uint32[] memory secondsAgo = new uint32[](2);\n        secondsAgo[0] = _twapDuration;\n        secondsAgo[1] = 0;\n\n        (int56[] memory tickCumulatives, ) = pool.observe(secondsAgo);\n        return int24((tickCumulatives[1] - tickCumulatives[0]) / _twapDuration);\n    }\n\n    /// @dev Rounds tick down towards negative infinity so that it's a multiple\n    /// of `tickSpacing`.\n    function _floor(int24 tick) internal view returns (int24) {\n        int24 compressed = tick / tickSpacing;\n        if (tick < 0 && tick % tickSpacing != 0) compressed--;\n        return compressed * tickSpacing;\n    }\n\n    function _checkThreshold(int24 threshold, int24 _tickSpacing) internal pure {\n        require(threshold > 0, \"threshold must be > 0\");\n        require(threshold <= TickMath.MAX_TICK, \"threshold too high\");\n        require(threshold % _tickSpacing == 0, \"threshold must be multiple of tickSpacing\");\n    }\n\n    function setKeeper(address _keeper) external onlyGovernance {\n        keeper = _keeper;\n    }\n\n    function setBaseThreshold(int24 _baseThreshold) external onlyGovernance {\n        _checkThreshold(_baseThreshold, tickSpacing);\n        baseThreshold = _baseThreshold;\n    }\n\n    function setLimitThreshold(int24 _limitThreshold) external onlyGovernance {\n        _checkThreshold(_limitThreshold, tickSpacing);\n        limitThreshold = _limitThreshold;\n    }\n\n    function setPeriod(uint256 _period) external onlyGovernance {\n        period = _period;\n    }\n\n    function setMinTickMove(int24 _minTickMove) external onlyGovernance {\n        require(_minTickMove >= 0, \"minTickMove must be >= 0\");\n        minTickMove = _minTickMove;\n    }\n\n    function setMaxTwapDeviation(int24 _maxTwapDeviation) external onlyGovernance {\n        require(_maxTwapDeviation >= 0, \"maxTwapDeviation must be >= 0\");\n        maxTwapDeviation = _maxTwapDeviation;\n    }\n\n    function setTwapDuration(uint32 _twapDuration) external onlyGovernance {\n        require(_twapDuration > 0, \"twapDuration must be > 0\");\n        twapDuration = _twapDuration;\n    }\n\n    /// @dev Uses same governance as underlying vault.\n    modifier onlyGovernance {\n        require(msg.sender == vault.governance(), \"governance\");\n        _;\n    }\n}\n",
  "sourcePath": "contracts/PassiveStrategy.sol",
  "type": "contract"
}